:020000040000FA
:100000007804002095010000BB0100007901000088
:1000100000000000000000000000000000000000E0
:10002000000000000000000000000000BF01000010
:100030000000000000000000C1010000C30100003A
:10004000C50100000D0A0000C5010000C501000047
:10005000C5010000C5010000C5010000C501000088
:10006000C5010000C5010000C5010000C501000078
:10007000C5010000C5010000C5010000C501000068
:10008000C5010000C5010000C5010000C501000058
:10009000C5010000C5010000C5010000C501000048
:1000A000C5010000C5010000C5010000C501000038
:1000B000C5010000C5010000C5010000C501000028
:1000C00000F002F800F048F80CA030C808382418F6
:1000D0002D18A246671EAB4654465D46AC4201D180
:1000E00000F03AF87E460F3E0FCCB646012633426A
:1000F00000D0FB1AA246AB4633431847240C00003D
:10010000440C0000103A02D378C878C1FAD85207DC
:1001100001D330C830C101D504680C6070470000BD
:100120000023002400250026103A01D378C1FBD813
:10013000520700D330C100D50B60704710B5782945
:1001400002D100F06FF810BD002010BD1FB5C046F1
:10015000C0461FBD10B510BD00F04EFA1146FFF7A6
:10016000F5FF00F09BFC00F066FA03B4FFF7F2FF26
:1001700003BC00F06BFA000004207146084202D074
:10018000EFF3098001E0EFF308807146004A104761
:10019000A90700000F48104901601049016010498B
:1001A0000160104A10491160104A11491160002184
:1001B00001601048804710480047FEE7FEE7FEE771
:1001C000FEE7FEE7FEE700000C480D490B4A0D4B29
:1001D00070470000000100505900000016000000A8
:1001E0008800000024000050A55A00008003005041
:1001F0001F00000035090000C10000007800002049
:1002000078040020780000200FB4054910B503AA37
:10021000029800F0C5F910BC08BC04B018470000F3
:100220000C00002070B504460D4621461068C046FB
:10023000C0462168090502D50F4A7A4402E00E4AF9
:100240007A440E3223460021243305E00607360F98
:10025000965D5E54491C00090028F7D120680023F0
:10026000000705D5702D03D0002901D011320223DB
:10027000204600F03FF970BDB80A0000F3B504460F
:10028000002081B082E0E1682046884700287FD0C6
:10029000252802D06268A16875E0E1682046002642
:1002A000884705460020E0610746A0612A2D0BD053
:1002B0002946012230390A292BD2002A29D0B80038
:1002C00000190090816119E00298BA00121902C861
:1002D000916102902046E1688847012F05461AD1B6
:1002E000E069002822DA202086431FE000980A21D6
:1002F0008069484300994019303888612046E16898
:10030000884705460120294630390A2901D20028AC
:10031000ECD1012F0AD02E2D08D12046E168884764
:100320000546202006437F1C022FBFDBA069002862
:1003300003DA4042A06101200643F00701D01020FB
:100340008643002D24D028464138192803D801209F
:10035000C00206432035204626602946029A1646EA
:10036000FFF7ECFE00280BD0012806D0F61DF008A0
:10037000C0000830029086E70AE0361D029682E748
:1003800062682846A1689047206A401C20627AE78C
:10039000206AFEBD002203098B422CD3030A8B4244
:1003A00011D300239C464EE003460B433CD400226D
:1003B00043088B4231D303098B421CD3030A8B427F
:1003C00001D394463FE0C3098B4201D3CB01C01A4D
:1003D000524183098B4201D38B01C01A5241430918
:1003E0008B4201D34B01C01A524103098B4201D306
:1003F0000B01C01A5241C3088B4201D3CB00C01A73
:10040000524183088B4201D38B00C01A52414308EA
:100410008B4201D34B00C01A5241411A00D201460F
:100420005241104670475DE0CA0F00D049420310A8
:1004300000D34042534000229C4603098B422DD3F7
:10044000030A8B4212D3FC22890112BA030A8B429F
:100450000CD3890192118B4208D3890192118B42EE
:1004600004D389013AD0921100E08909C3098B4273
:1004700001D3CB01C01A524183098B4201D38B01B6
:10048000C01A524143098B4201D34B01C01A524159
:1004900003098B4201D30B01C01A5241C3088B429E
:1004A00001D3CB00C01A524183088B4201D38B0089
:1004B000C01A5241D9D243088B4201D34B00C01A13
:1004C0005241411A00D20146634652415B10104628
:1004D00001D34042002B00D54942704763465B1070
:1004E00000D3404201B50020C046C04602BD70475F
:1004F00070477047FFB504460D4681B02430009028
:100500002168880604D51022E0699143216000E04B
:1005100001200027A84200DD471B0498A1697A1931
:100520001018081AA0612068C00602D42046C046F0
:10053000C046002608E003986268A168805D904785
:10054000206A401C761C206204988642F3DB2068F7
:10055000C0060AD52046C046C04606E06268A168CB
:1005600030209047206A401C206238467F1E0028B9
:10057000F4DC07E000986268A168405D9047206A5B
:10058000401C206228466D1E0028F3DC2046C04631
:10059000C04621680220090600D4012005B0F0BD44
:1005A000084B70B50C467B4400F013F80546204616
:1005B00000F068FA002802D00020C04370BD284631
:1005C00070BD0000E304000001694A1C0261087864
:1005D000704700B58FB00291002105910549019344
:1005E00079440391114604906846FFF747FE0FB027
:1005F00000BD0000E5FFFFFF754600F023F8AE46A2
:10060000050069465346C008C000854618B020B5AD
:10061000FFF7DAFD60BC00274908B6460026C0C5D2
:10062000C0C5C0C5C0C5C0C5C0C5C0C5C0C5403DAA
:1006300049008D4670470446C046C0462046FFF735
:1006400094FD000000487047180000200149182060
:10065000ABBEFEE72600020070470000FEB500209A
:10066000029019A0006800901848046A0013044220
:1006700001D00020FEBD0120C004044201D0144D71
:1006800000E0144D01204004044201D02846F1E767
:10069000032080032040800B69460A5C0192E0053C
:1006A000C00D871C1F2040022040400A861C019A72
:1006B00072431146AA087A431046FFF76BFE80008A
:1006C00002900298D6E700000102020400020050E6
:1006D00000805101001BB700FEB50020029019A058
:1006E000006800901848046A0013044201D00020FA
:1006F000FEBD0120C004044201D0144D00E0144DA1
:1007000001204004044201D02846F1E70320800381
:100710002040800B69460A5C0192E005C00D871CF1
:100720001F2040022040400A861C019A7243114655
:10073000AA087A431046FFF72DFE80000290029827
:10074000D6E70000010202040002005000805101BF
:10075000001BB7000146074A05E01046521E00285C
:1007600001DC002070470448C06808408842F4D18A
:100770000120F7E7804F12000002005070B50346D9
:1007800000200EE0012484400C4209D01C68460081
:100790000325B540AC4346001546B5402C431C60CC
:1007A000401C0828EED370BD044604A0FFF72CFDC2
:1007B000204600F0F9F900BFFEE70000496E20482E
:1007C000617264204661756C742048616E646C656A
:1007D000720A000010B51848006804210843164941
:1007E00008601020FFF7B6FF07201349086108468C
:1007F000006AC901084310490862084600680921D7
:1008000008430D4908600D4808620D20FFF7A2FF5C
:100810001A20094908610A4888600A48486100F0BE
:1008200057F8032005210907C8630122042106485F
:10083000FFF7A4FF10BD00000002005017420000A7
:100840000100010003000001004100500849020EB0
:100850008958012282400A430549030ECA50020EFC
:100860008958012282409143014A030ED1507047BA
:100870000800005006E0592005490860162008606D
:1008800088200860024800680128F4D17047000001
:100890000001005000B50346184600F001F800BD05
:1008A00000BF0A4989690122D2051142F9D10749DD
:1008B00008600A2809D100BF044989690122D205CC
:1008C0001142F9D10D21014A116070470000054025
:1008D00070B51248006945076D0FFFF7BFFE10495C
:1008E0000860022D03D0A8000E490C5801E00C4806
:1008F00004680A4880690007000F461C31462046FC
:10090000FFF748FD084908600849074800684A1091
:100910008018FFF73FFD0649086070BD00020050D7
:1009200008000020500C00000000002040420F0092
:10093000040000207047000010B50448FFF786FF50
:100940004B21C901024800F005F810BD1000000459
:1009500000000540F0B587B004460D462748014623
:100960000EC9C06803AE0EC606900020029024484F
:100970004069032109060840060E214880690F21BD
:1009800009020840070A002020630320E060A068F5
:100990001C490840A060012E04D1FFF79DFEB10064
:1009A00003AA5050002D26D0B10003AA5058791C3C
:1009B000FFF7F0FC6908401829460190FFF7EAFCB0
:1009C000801E02901049029888420FD9B10003AAF4
:1009D0005058791CFFF7DEFCE900401829460190C9
:1009E000FFF7D8FC0009801E606204E003210907BC
:1009F00002980843606207B0F0BD0000700C000070
:100A0000000200500FFFF0FFFFFF000010B50B4881
:100A1000006808210840C00801280DD10748006877
:100A2000242188430821084304490860012004491F
:100A3000087004A0FFF7E8FB10BD00000040004074
:100A4000140000205744542074696D652D6F75742F
:100A500020696E74657272757074206F636375724D
:100A60007265642E0A00000030B5054C6160802478
:100A7000044355002C431D012C43014D2C6030BD17
:100A80000040004001460020C043704730B5044696
:100A90000D462046FFF7FEFE204630BD10B5FFF79D
:100AA000E9FEFFF797FE00BF00202E49086000BF57
:100AB000FFF742FF2C480068042108408008012805
:100AC00017D1012200212948FFF758FE01202849AB
:100AD000086000200860264980318860224800684C
:100AE00028218843042108431F49086021A0FFF7FB
:100AF0008BFB2A48FFF788FB012200211B48FFF7E8
:100B00003DFE01201A490860002008601849803124
:100B10008860FFF7AFFE0020214908700023012202
:100B2000194605200002FFF79FFF00BF0E4800682E
:100B3000402108430C49086000BF00BF0120014666
:100B400081401848016000BF05E0012008490860A5
:100B5000074980318860124800780028F5D00020CD
:100B600010BD000000010050004000400040005057
:100B7000004200500A2A2A2A205744542074696DE2
:100B8000652D6F7574207265736574206F6363756E
:100B900072726564202A2A2A0A000000A00C000054
:100BA0001400002000E100E010B5044610A0216808
:100BB000FFF72AFB11A06168FFF726FB12A0A168CE
:100BC000FFF722FB13A0E168FFF71EFB14A02169C9
:100BD000FFF71AFB15A06169FFF716FB16A0A169C4
:100BE000FFF712FB17A0E169FFF70EFB10BD000035
:100BF000723020203D20307825780A007231202084
:100C00003D20307825780A00723220203D2030784F
:100C100025780A00723320203D20307825780A009C
:100C2000723132203D20307825780A006C72202005
:100C30003D20307825780A00706320203D203078F0
:100C400025780A00707372203D20307825780A00DC
:100C5000001BB7000000000080F0FA02102700001F
:100C600000000000000000000000000000805101B2
:100C7000001BB700000000000000000000805101D0
:100C8000001BB700000000000000000000805101C0
:100C9000001BB700000000000000000000805101B0
:100CA00020204D6561737572652050302E30206CA8
:100CB0006F7720706572696F6420746F2063686558
:100CC000636B2074696D652D6F757420696E746532
:100CD0007276616C20616E6420646F206E6F742088
:100CE00072656C6F61642057445420636F756E7435
:100CF00065722E0A0A0030313233343536373839CE
:100D00004142434445464030580030313233343557
:100D100036373839616263646566403078000000B8
:100D2000400D000000000020180000000401000039
:100D3000580D000018000020600400002001000091
:100D400080F0FA023200000080F0FA020000000099
:080D500000000000000000009B
:040000050000019561
:00000001FF
