:020000040000FA
:10000000B8100020D5000000F5000000F700000047
:1000100000000000000000000000000000000000E0
:10002000000000000000000000000000F9000000D7
:100030000000000000000000FB000000FD000000C8
:10004000FF000000FF00000075150000FF00000029
:100050004D160000FF000000FF000000FF00000040
:100060008D2500003D26000071260000F9270000C4
:100070001D280000052A0000FF000000FF0000000E
:10008000FF000000FF000000FF000000FF00000074
:10009000D1050000FF000000FF000000FF0000008D
:1000A000FF000000FF000000FF000000FF00000054
:1000B000FF000000FF000000FF000000FF00000044
:1000C0000348854600F034F900480047F931000044
:1000D000B81000200A480B4901600B4901600B4928
:1000E00001600B4A0B491160002101600A488047FA
:1000F0000A480047FEE7FEE7FEE7FEE7FEE7FEE709
:1001000000010050590000001600000088000000A7
:1001100024000050A55A0000B5230000C1000000D3
:1001200030B50B46014600202022012409E00D468F
:10013000D5409D4205D31D469540491B2546954017
:1001400040191546521E002DF1DC30BD70B500245B
:100150002546002801DA01244042002901DA012560
:100160004942FFF7DDFFAC4200D04042002C00D0F6
:10017000494270BDF0B51FB40646002082B0054666
:100180004024019100901BE0019922460F46304621
:1001900000F0BDF8049A059B801A994110D31046CF
:1001A0001946224600F0A3F8361A8F4101972246DD
:1001B00001200021009F00F09AF838184D4100906E
:1001C0002046641E0028DFDC019B00982946324649
:1001D00007B0F0BDF0B51FB486B0002000900190CC
:1001E00002900698069980B204900798090C0204C0
:1001F0000014114307900027089D099806913E4678
:100200003C4603900398A9B20204000C03900498A2
:100210002D0C154348430021224600F068F8C71909
:10022000714110340E46402CECDB3846029A00F047
:100230005EF8009A019B8018009059410298019144
:10024000103002904028CCDB00980BB0F0BD034684
:100250000B439B0703D009E008C9121F08C0042AFA
:10026000FAD203E00B78491C0370401C521EF9D2ED
:100270007047D2B201E00270401C491EFBD27047A9
:100280000022F6E710B5044608461146024620460D
:10029000FFF7EFFF204610BD30B50EE003460A46DB
:1002A00001E05B1C521C1C781578AC4201D1002C7B
:1002B000F7D12A06120E04D0401C0278002AEDD194
:1002C000002030BD0146002000E0401C0A5C002AEE
:1002D000FBD1704730B504460020034600E05B1CAC
:1002E000934203D2E05CCD5C401BF8D030BD10B52A
:1002F000202A04DB0146203A9140002010BD9140A5
:1003000020239C1A0346E3401943904010BD10B5CA
:10031000202A04DB0846203AD040002110BD0B46BD
:10032000D340D0402024A21A91400843194610BD62
:10033000064C0125064E05E02046E36807C82B431E
:1003400098471034B442F7D3FFF7BEFE6043000075
:10035000804300000B484168A3221204114341600E
:1003600005200007026BA3218A430263026B0A4344
:100370000263002181620448026A01210A43026289
:10038000016370470040005000000E4030B5064841
:10039000046A064D2C400C4314430462416A090A66
:1003A00009021943416230BD00000E40F3FBFFFF1C
:1003B00010B50648AA210170BB214170012181704E
:1003C000C170042103F038FD10BD0000140A0020A4
:1003D000F8B5002426462546002001F06BFE641C7B
:1003E0008619E4B20A2CF7D3FF205527C6303F0305
:1003F00070433946FFF794FE0A4900240860012043
:1004000001F058FE641C4519E4B20A2CF7D30648E3
:1004100039466843FFF784FE02490930803908668F
:10042000F8BD000030010020510C00000FB4F8B5F9
:10043000444C06A80090E07F25462746002620353C
:10044000E037002816D040A14148FFF725FF0028DB
:1004500064D0FF212D313E48FFF712FF2E83E6774F
:100460002046A6776030866104207E61F8BC08BC17
:1004700004B01847A07F002841D03648416A34486C
:10048000FFF70AFF002836D002F02AFC314D303049
:10049000C33D28703020687000F076F83030A870C6
:1004A00001F022FE3030E870012000F0EFFF2AA0BA
:1004B00001F096FB0098C01C01F092FB00981230EE
:1004C00001F08EFB25A001F08BFB284601F088FB94
:1004D000681C01F085FBA81C01F082FBE81C01F000
:1004E0007FFB281D01F07CFB1DA001F079FB0120A2
:1004F000E0777E6124E0FF21F531786911E015484D
:100500002838406A01F06CFB16A001F069FB14A0CA
:1005100001F066FB01207E61A07711E07D21786902
:10052000C90088420CD3FF212D3109487E61FFF7B5
:10053000A7FE2E83E6712672E677A677002095E760
:10054000032093E75000002053454E44204F4B00BA
:10055000430B002010020020583B00003B0000002D
:100560000D0000003839000001463039092901D852
:10057000C8B2704701464139052902D83738C0B2A0
:100580007047FF207047000003480068252801D20B
:1005900001207047002070473001002010B50A4844
:1005A0000A4904680948002240300123252C04D35D
:1005B000054C803C246EDC2C03D9896B002901D0CA
:1005C000836010BD826010BD3001002000420050E9
:1005D00070B5144C21690120C00381420ED16068BE
:1005E000C00603D56068102188436060606800071A
:1005F00003D5606808218843606070BD4A1E1546B7
:100600001F2A07D8204600F027F9E9B2204600F05B
:10061000B6F870BD0448C16A0129FAD10021C1624F
:1006200070BD0000000018404001184010B504469D
:10063000062100F0C0F828490868020A120280204A
:1006400002430A60142001F021FD244B0122002105
:10065000204600F02FFA00283DD00122204B114601
:10066000204600F027FA002835D01E4B0122022137
:10067000204600F01FFA00282DD01B4B0122032139
:10068000204600F017FA002825D0184B012204213B
:10069000204600F00FFA00281DD0154B012205213D
:1006A000204600F007FA002815D0124B012206213F
:1006B000204600F0FFF900280DD00F4B0122072142
:1006C000204600F0F7F9002805D00C4B0122082144
:1006D000204600F0EFF910BD14E400E00004F00C37
:1006E00000EFFE1800EEFE1800CAFE1800E5FE1826
:1006F00000FFFE180001FD1800FFEC1800FFEB18CA
:1007000010B50246803293691B0401D4002010BD4D
:1007100043681024A3434360332050605069400471
:1007200005D4002008605069C004400D07E0012096
:1007300008605069C004C008886013691843886065
:1007400050698004C017401C486090690007000F82
:100750000873D0694873D069000A8873106AC87337
:10076000106A000A0874506A4874506A000A887453
:10077000906AC874906A000A0875012010BD70B5AF
:1007800000230446803401251A462D07066A3604E4
:1007900001D4002307E02668360401D4012302E0D7
:1007A000521CAA42F2D360240C22634318184262FE
:1007B000491C016270BD10B50B46044600F014F8E8
:1007C0002068F12108409907C90F490008435907DB
:1007D000C90F890008431907C90FC90008432060E1
:1007E000204600F031F810BD01680122114301607C
:1007F00001684022114301607047000070B5C16874
:1008000009050C0FC16849044D0FC168806989064C
:10081000890E800101430548491C0068FFF780FCF0
:100820006119C91CFFF77CFC70BD000000000020AE
:10083000FF3001300122102901D2006A01E0406A34
:1008400010398A401040704701684122914301608D
:100850000168C907FCD17047F8B53C4C0B462146EE
:1008600040310126002502F07DFA0A6F060A0E12B9
:10087000171B1F262A6F4E736571012722E04E73E6
:10088000657102271EE04E73657103271AE04E73EF
:100890006571E570042715E04E736571052711E059
:1008A0004E73657106270DE04E7328492031CE70D6
:1008B0006571072706E04E736571082702E04E73E5
:1008C00065710927224A791E00F09AF8214B002011
:1008D000F900C9181E4A1218527B0A54401CC0B2B3
:1008E0000828F7D31B4A4032082F10D15079CA2864
:1008F0002AD12571267600201649091840314B78F7
:10090000144950310B54401CC0B20728F4D3092FAE
:100910001AD1207E002817D00E4B25715033127A41
:100920009878904200D12576D50000200949AA1A6E
:10093000D3180A184032527A1A54401CC0B2072801
:10094000F7D3207A30432072F8BD00003000002039
:10095000E4080020D407002070B50446154600F0D6
:1009600063F8012D05D12168802211432160042103
:10097000616170BD70B504460D461646FFF758FF1D
:1009800000283CD06068102188436060002E01D0B0
:10099000042000E0002078300321084380346060A8
:1009A0006D1C256020680004FCD46069400405D4F7
:1009B000002018606069C004400D06E00120186046
:1009C00060692169C004C00808439860A0690007F5
:1009D000000F1873E0695873E069000A9873206A81
:1009E000D873206A000A1874606A5874606A000A32
:1009F0009874A06AD874A06A000A1875012070BDA6
:100A000010B50B4611460268120605D54269520719
:100A100002D5FFF775FE10BDDCB20B460122214660
:100A2000FFF7A8FF10BD0000F8B50F460646FFF718
:100A3000DBFE01F077FC1E480224012539460068E0
:100A4000FFF76EFB07466119C91C3846FFF768FBC4
:100A5000002911D0072C01D26D1CEDB26119C91CFF
:100A60003846FFF75DFB002906D00F2C02D2641C2C
:100A7000E4B2E8E70224012561193846C91CFFF7F2
:100A80004FFB29032202401E11438206920E11439E
:100A9000F268C0231A401143F1608005000FB06175
:100AA0003046FFF7D1FE3046FFF7A8FEF8BD000044
:100AB00000000020FFB50024012781B00D46164636
:100AC0003F0705E0641CBC4202D3002005B0F0BD26
:100AD00001230093F2B2E9B2049B019800F004F8FC
:100AE0000028EFD00120F1E7FFB581B007460D46A1
:100AF00016461C4600F066FFC0B2022819D06022DC
:100B0000F3215043C01941620021002E14D0A2B23B
:100B10000263E200D20C03239B03D2184263052236
:100B2000920282630A9B8022002B836B0AD01343BC
:100B300009E0002005B0F0BD01636205D20C01237D
:100B4000DB03EAE793438363C16301644164816427
:100B50006D1C05620120EDE7F8B53C4D3C4C687911
:100B600032280FD300210A460020CB001B191A544B
:100B7000401CC0B20828FAD3491CC9B20A29F3D3D1
:100B80002820207632480A22017BC07A09020143DC
:100B90003048E96600F023FFC0082F49E866884224
:100BA00000D9E966294EE07C40363746B0704037C0
:100BB000B968142802D20122114301E04908490012
:100BC000B960FA2801D9FA20B070C1B221480A22CE
:100BD000503000F004FFC0B20521FFF7A1FA400039
:100BE000B0701C48217EA9700A22283000F0F7FE60
:100BF000C0B2A870282801D9283800E00020A870C9
:100C0000F0701348203001794A09C178120211436B
:100C1000827809020A437A66C27A817A1202114303
:100C2000427A09020A43017A1202114349082967EC
:100C3000007C8007800F0128287C03D0F721084022
:100C40002874F8BD08210843FAE7000030000020AE
:100C5000D407002098040020B80B00001FB50A4CF0
:100C600010341ECC03946C460EC4810F8A00694672
:100C70008A58064951184A68C306DB0E012098407D
:100C800002434A601FBD00005042000000020050B5
:100C9000F0B507000C46564885B054490162554EE0
:100CA000016813D0042211430160102000F082F982
:100CB0000120C00402905048042503904F48504939
:100CC000201888420DD8002004901CE00122114316
:100CD0000160104600F06EF9002002250396029094
:100CE000ECE7484848492018884203D801206400AE
:100CF000049008E04548454920184942884249D8AF
:100D00000320A40004900026F643002000900190E8
:100D100021E029460398FFF703FA3D493D4A41186F
:100D2000914217D2364F02227F1C344B0146514369
:100D30005B1CCB18BB4209D80B1BA14200D8631A1D
:100D4000B34203D21E000095019203D03249521CD7
:100D50008A42EAD96D1C212DDBD9049802998003BF
:100D600008430099012249029202891A0843019915
:100D7000891E08431E490862042000F01BF90499EB
:100D80000098491C41430398FFF7CAF90199484369
:100D900005B0F0BD002F0FD0204915480162042096
:100DA00000F008F91EA0006800901148016A0013C5
:100DB000014203D00020EBE71A49EEE7080300D513
:100DC0000D4E880301D53046E2E70804800F6A46DD
:100DD000105CCA058904C90E891CD20D4143921CBE
:100DE000B0085043FFF79CF98000D1E700000100F4
:100DF00000020050001BB70000805101FF1E0AFADC
:100E0000FFE0F5057F0F05FD7FF0FA02C08782FE47
:100E1000FF95E7FFBF77CC00010200006FD600000E
:100E2000010202042EC2000002490A6802430A605D
:100E3000704700000002005008B511A00068009043
:100E40001048016A0013014201D0002008BD0803C8
:100E500001D50D4800E00D488A03F7D40A04920F2B
:100E60006B469B5CCA058904D20DC90E921C891C75
:100E7000800859435043FFF753F9800008BD000034
:100E8000010202040002005000805101001BB70063
:100E9000F8B51C4D0446EE68102006401A488442FE
:100EA00002D84010844200D2044628680427384300
:100EB0002860102000F07EF8286907210843286187
:100EC000A86900090001A8612868C00705D0610071
:100ED0000020FFF7DDFE044608E001206100C004A9
:100EE000FFF7D6FEEE6804461020064001210220DE
:100EF00000F00CF8002E02D12868B8432860600882
:100F0000F8BD00000002005080F0FA0270B5104CED
:100F1000E56810262268354004231A432260E268FF
:100F2000D206FCD5226907231A432261A26912095D
:100F300012010A43A261216999430143216101F031
:100F4000F1F9002D02D12068B043206070BD00008F
:100F5000000200507FB5154E78CE03966E4638C617
:100F6000840A23061B0E0CD003039B0F104D9B001D
:100F70005B19E5B28405E40EA5401C68AC4314433C
:100F80001C60420E520710D08200920F92006B46F6
:100F90009A58074B083BD21803015B0FC001C00EE3
:100FA000834010689843084310607FBD50420000A2
:100FB0001802005010B504460749084A05E00B46E0
:100FC000491E002B01DC002010BDD3682046984349
:100FD000F5D1012010BD0000804F1200000200502A
:100FE00070B50D46411E1446032901D3002070BD83
:100FF000032809D002281AD00A212846FFF790F8C2
:1010000030312170012070BD64212846FFF788F837
:101010003030207008460A21FFF782F830306070C7
:101020000A212846FFF77CF83031A170EAE76421F5
:101030002846FFF775F808460A21FFF771F83030A7
:1010400020700A212846FFF76BF830316170D9E72C
:1010500070B50C4605461449FFF762F83030207031
:101060007D260846F6003146FFF75AF830306070AA
:1010700031462846FFF754F808466421FFF750F838
:101080003030A07064212846FFF74AF808460A214C
:10109000FFF746F83030E0700A212846FFF740F8A5
:1010A0003031217170BD00001027000070B50C4672
:1010B0007D210546C900FFF733F83030E07108465E
:1010C0006421FFF72DF83030207264212846FFF7A5
:1010D00027F808460A21FFF723F8303060720A210A
:1010E0002846FFF71DF83031A17270BD70B500229F
:1010F00001263124302533469340034201D08C54DD
:1011000000E08D54521CD2B2102AF4D370BD0000FE
:1011100070B5464C464D20680121C2B2E869903056
:10112000FFF7A7F8206801210004020EE86991305A
:10113000FFF79FF8206801210002020EE869923053
:10114000FFF797F820680121020EE8699330FFF756
:1011500090F800F053FF218BE1200001814200D97B
:101160002083A079642801D96420A071E0797828CF
:1011700001D97820E071207A082801D9082020724E
:101180002C48E168814200D9E060208B2A49FEF7B3
:10119000C7FF7D260846F6003146FEF7C1FFEA6923
:1011A000014688320120FFF71BFF208B3146FEF7F6
:1011B000B7FFEA6903208932FFF712FFEA69A179D4
:1011C00062320320FFF70CFFEA69E17969320320FC
:1011D000FFF706FFEA69217A70320320FFF700FF6C
:1011E0001449E068491CFEF79BFF08463146FEF7AC
:1011F00097FFEA6981B27E320320FFF7F1FE3146A4
:10120000E068FEF78DFFEA6903208132FFF7E8FE10
:10121000E18AFF206930814200D9E082EA69E18AEF
:1012200077320320FFF7DCFE70BD000020050020B0
:10123000B00000203F420F00102700000649222284
:10124000CA60486001200861BFF36F8F08690028F9
:10125000FCD108687047000000C000500649002219
:10126000CA60486001200861BFF36F8F08690028D9
:10127000FCD188687047000000C00050F0B50C4EEB
:101280000546002330681C460121084330607F2753
:10129000BF02D819FFF7E2FFA100641C1B1D6850B4
:1012A000E4B2142BF5D33068400840003060F0BD44
:1012B00000C00050F0B50C4D0024286823460121E1
:1012C00008432860F92676024F029819FFF7C6FFF7
:1012D000411C03D01B1D0446BB42F6D328684008BE
:1012E000400028602046F0BD00C00050F0B50C4D15
:1012F0000024286823460121084328601F2636035E
:101300004F029819FFF7AAFF411C03D01B1D04468A
:10131000BB42F6D328684008400028602046F0BD54
:1013200000C00050F0B50C4D002428682346012170
:10133000084328603F26F6024F029819FFF78EFFF8
:10134000411C03D01B1D0446BB42F6D3286840084D
:10135000400028602046F0BD00C00050F0B50C4DA4
:10136000002428682346012108432860FD267602D0
:101370004F029819FFF772FF411C03D01B1D044652
:10138000BB42F6D328684008400028602046F0BDE4
:1013900000C00050064A2123D360506091600120B4
:1013A0001061BFF36F8F10690028FCD170470000F7
:1013B00000C00050F0B50C4F0646002438682546A2
:1013C000012108433860A80031587F20800220188E
:1013D000FFF7E0FF6D1C241DEDB2142CF3D3386829
:1013E000400840003860F0BD00C00050F0B5104E1D
:1013F0000746306800230121084330604D02F9247C
:1014000064021819FFF72AFF401C02D01B1DAB42D3
:10141000F7D3AB4203D12046FFF710FF0023394634
:101420001819FFF7B7FF3068400840003060F0BD82
:1014300000C00050F0B5104E07463068002301216F
:10144000084330604D02FD2464021819FFF706FFBF
:10145000401C02D01B1DAB42F7D3AB4203D1204648
:10146000FFF7ECFE002339461819FFF793FF3068A9
:10147000400840003060F0BD00C00050024900202C
:10148000401C8842FCD370477604000000B5034638
:10149000002202E0FFF7F2FF521C9A42FAD300BD8D
:1014A00010B5044600F0E4FE2046FFF7E7FE024ACE
:1014B00000211160204610BD0001005010B500F061
:1014C000D7FEFFF7F7FE0649064A00244867904218
:1014D00003D900204C67FFF789FF0348046010BD63
:1014E000300000209F8601000001005010B500F080
:1014F000BFFEFFF717FF024A0021116010BD000078
:101500000001005010B500F0B3FEFFF727FF024ABC
:101510000021116010BD00000001005010B504460C
:1015200000F0A6FE2046FFF745FF024900200860B4
:1015300010BD00000001005010B500F099FE0448F5
:10154000406FFFF753FF03490020086010BD000003
:10155000300000200001005010B5044600F088FE65
:101560002046FFF767FF02490020086010BD000019
:101570000001005001200549800308620448806B87
:10158000002801D103498871704700004040005095
:1015900040420050300000200FB470B504AC20462B
:1015A000FEF790FE0546E01CFEF78CFE2D18204647
:1015B0001230FEF787FE2D1820466030FEF782FEBF
:1015C0002D1820466730FEF77DFE2D1820466D1C35
:1015D0006E30FEF777FE064620467530FEF772FE47
:1015E000361820467C30FEF76DFE3018451920462F
:1015F0008630FEF767FE40190F30C5B27D21C90065
:101600002846FEF78DFD08466421FEF789FD0E4C45
:101610003030207064212846FEF782FD08460A21FA
:10162000FEF77EFD303060700A212846FEF778FD17
:101630003031A1700D20E07000202071204670BC78
:1016400008BC04B0184700004801002010B5FF2076
:101650001849013008621848006A002828D1174844
:101660000168491C016080681549884220DA1549E3
:10167000154B487B0022401CC0B248730C2808D38D
:101680000C464A7380342068401C2060984200D386
:101690002260886F0D4C401C8867A04208D38A677F
:1016A000C86F0124401CC867CC72984200D9CA6731
:1016B00010BD000040400050404200501005002086
:1016C000B80B0000300000203F420F006C2D0000DE
:1016D00010B58369140E8C4023438361C3691202E1
:1016E000120A8A401343C36110BD0000F8B50520FB
:1016F0000007406B05218008800009074863486B9C
:1017000003210843052109074863486B30218843BA
:10171000052109074863486B302108430521090763
:101720004863C86B03218903884305210907C863FF
:10173000C86B03218903084305210907C863C86BE7
:10174000C021884305210907C863C86BC02108432D
:1017500005210907C863002201218B4800F01EF90A
:1017600000220221884800F019F90022042186484D
:1017700000F014F903220821834800F00FF9834D8B
:101780000024EC60032210217F4800F007F92C614F
:10179000002220217C4800F001F9032240217A48F0
:1017A00000F0FCF8AC6100228021774800F0F6F8E8
:1017B000FF2103220131744800F0F0F82C6201216E
:1017C00000224902704800F0E9F8012291026E48B7
:1017D00000F0E4F8AC6201210022C9026A4800F07E
:1017E000DDF8012103220903674800F0D7F801263C
:1017F0002E6303227103644800F0D0F86E63002268
:10180000B103614800F0CAF80122D1035E4800F03C
:10181000C5F8EC635C4F002240370121384600F0E8
:10182000BDF800220221384600F0B8F80322042156
:10183000384600F0B3F8554D4035AC600122082120
:10184000384600F0ABF8EC6000224021384600F04A
:10185000A5F800228021384600F0A0F8032271028A
:10186000384600F09BF86C6200223103384600F0E5
:1018700095F8474A0C213846FFF72AFF43493A209A
:10188000803908607869310308437861042000F0EA
:10189000FDFB0022B103384600F080F80322F1037B
:1018A000384600F07BF8EC63374F03228037012184
:1018B000384600F073F8354D80352E600322022142
:1018C000384600F06BF86E6000220421384600F0C4
:1018D00065F803220821384600F060F8EE60012226
:1018E0004021384600F05AF8AC6103228021384686
:1018F00000F054F8EC6103223102384600F04EF853
:101900002C6203227102384600F048F86C62032210
:10191000B102384600F042F8AC620322F1023846C8
:1019200000F03CF8EC620322B103384600F036F8D0
:10193000AC630322F103384600F030F8EC63012277
:101940002021144800F02AF813484461114C002269
:1019500040341021204600F021F8002220212046AA
:1019600000F01CF80A4A05212046FFF7B1FE606925
:10197000202108436061052000F088FB002231022D
:10198000204600F00BF8F8BD004000500042005027
:10199000010001000041005000430050F0B5002359
:1019A00001273C469C400C4208D005685C00032699
:1019B000A640B5431646A640354305605B1C102B78
:1019C000EFD3F0BD016A090401D4002070478030D4
:1019D0000068000401D40120704702207047F8B568
:1019E0000E4604461146551E00209200171905E0C8
:1019F0008200BB1A403B9A6B401CDA63A842F7D3C3
:101A000000200346266003E09A00A25810185B1CD1
:101A10008B42F9D3FEF784FBF8BD0000F8B5654CA6
:101A20000026E079254620350090282872D2207AB9
:101A30002746E03700280FD1FF212D315E48FEF701
:101A40001FFC2E83009839468000B831085800F0FA
:101A5000C7F8012020727E61E079584903286AD0D6
:101A6000800009585448FEF717FC002807D00120D1
:101A7000FFF70CFD2672E079072810D034E07D20B6
:101A80007969C000814278D3FF212D314A487E61B7
:101A9000FEF7F6FB2E830A20FFF7F8FC7AE048A158
:101AA0004548FEF7F9FB00281ED0434A0021143AAE
:101AB000837A5354491C401CC9B21429F8D3FFF748
:101AC00021FD3C4F6037F8643F48FFF7E9FCF86CB4
:101AD000002820D03849142214393B48FEF7FAFB7D
:101AE000002826D00120E072FF212D313248FEF778
:101AF000C7FB2E830A20FFF7C9FCE079401CC0B267
:101B0000E07109284AD32B48267260308661012093
:101B1000207130E046E00120F864FFF71DFD264902
:101B2000142214392848FEF792FB2748FFF7F6FCE9
:101B3000DAE7E672D8E7C9681F48FEF7ADFB002870
:101B400005D122A11C48FEF7A7FB002816D00120D2
:101B5000FFF79CFCFF2126722D311748FEF790FB02
:101B60002E83E079401CC0B2E071092818D31148D7
:101B7000603086617E610220F8BD0FE07D207969CA
:101B8000C00081420AD3FF212D310B487E61FEF750
:101B900077FB2E83E67126720020EDE70120EBE74C
:101BA0007E61FBE7FF212D310348FEF769FB2E83A1
:101BB000E671F1E750000020430B002010020020E6
:101BC00041542B4343494400700C00202B435245A1
:101BD000473A20302C320D0A0D0A4F4B0D0A0000F7
:101BE00010B5044602E0641C01F084F82078002857
:101BF000F9D110BDF8B53248324C00903248617FBF
:101C00002546074600262035E03F002913D0816A8B
:101C10002E48FEF741FB00283DD0FF212D312B48F7
:101C2000FEF72EFB2E83667720462677603086618E
:101C300004207E61F8BD217F002916D0416A234827
:101C4000FEF72AFB00280CD00120FFF71FFC0098AC
:101C5000FFF7C6FF1EA0FFF7C3FF012060777E617C
:101C60002BE0FF21F531786918E017482838406AE1
:101C7000FFF7B6FF14483021C83801703421417095
:101C8000382181700D21C1700671FFF7A9FF012075
:101C90007E61207711E07D217869C90088420CD3EC
:101CA000FF212D3109487E61FEF7EAFA2E83E671A5
:101CB0002672667726770020F8BD0320F8BD000065
:101CC000E70500205000002010020020430B0020F8
:101CD0000D0000000FB4F0B5494CA5B0E07D2646DC
:101CE000002720362AAD002818D046A14748FEF725
:101CF000D3FA00286ED0FF212D314448FEF7C0FAF8
:101D00003783E7752046A77560308761803047616B
:101D1000042025B0F0BC08BC04B01847A07D002802
:101D200042D03B48416A3948FEF7B6FA002835D020
:101D30002846FFF755FFE81CFFF752FF28461230F0
:101D4000FFF74EFF33A0FFF74BFF28466030FFF749
:101D500047FF28466730FFF743FF28466E30FFF7FE
:101D60003FFF28467530FFF73BFF28467C30FFF7E2
:101D700037FF28468630FFF733FF28468E3000F0C5
:101D800031F92846963000F02DF923A0FFF728FFFF
:101D90000120E0751A48E03047612FE01848FF2223
:101DA000E030F53241691AE019482838406AFFF7F7
:101DB00017FF93222EA96846FEF749FA2AA80FC8F2
:101DC000FFF7EAFBFFF70CFF0D48E0304761012009
:101DD000A07513E00A487D22E0304169D2009142AB
:101DE0000CD3FF2147612D310848FEF749FA3783AC
:101DF000E7712772E775A77500208AE7032088E757
:101E00005000002024474E524D430000430B002059
:101E1000100200203B0000000D0000000FB4F8B5D8
:101E200006A8334C00903348E17E2546074600263D
:101E30002035E03F002916D0816A2F48FEF72CFAA2
:101E4000002840D0FF212D312B48FEF719FA2E83B0
:101E5000E6762046A6766030866104207E61F8BC76
:101E600008BC04B01847A17E002916D0416A224858
:101E7000FEF712FA00280CD00120FFF707FB0098AC
:101E8000FFF7AEFE1DA0FFF7ABFE0120E0767E61FE
:101E90002BE0FF21F531786918E016482838406AB0
:101EA000FFF79EFE13483021C8380170332141707E
:101EB000382181700D21C1700671FFF791FE01205C
:101EC0007E61A07611E07D217869C90088420CD33B
:101ED000FF212D3108487E61FEF7D2F92E83E6718D
:101EE0002672E676A6760020B9E70320B7E7000061
:101EF0005000002010020020430B00200D000000C5
:101F00000FB4F8B506A8334C00903348617E2546DF
:101F1000074600262035E03F002916D0816A2F4869
:101F2000FEF7BAF9002840D0FF212D312B48FEF7EB
:101F3000A7F92E83667620462676603086610420D7
:101F40007E61F8BC08BC04B01847217E002916D079
:101F5000416A2248FEF7A0F900280CD00120FFF7C3
:101F600095FA0098FFF73CFE1DA0FFF739FE01200F
:101F700060767E612BE0FF21F531786918E0164824
:101F80002838406AFFF72CFE13483021C83801700A
:101F900033214170322181700D21C1700671FFF72C
:101FA0001FFE01207E61207611E07D217869C90045
:101FB00088420CD3FF212D3108487E61FEF760F97D
:101FC0002E83E6712672667626760020B9E7032016
:101FD000B7E700005000002010020020430B002053
:101FE0000D00000070B50546002428786D1C00F037
:101FF00081FE641CE4B2072CF7D370BD70B5214E8E
:102000000025307A3446C1078034E06980300029E9
:102010001FD01D4909886162062919D3891E8A08C3
:10202000A2620276B17E491CCBB2B37693420CD841
:10203000E46A99000919C91EF41DF934E1604C786D
:1020400044768C788476C978C176934200D1B5768F
:1020500070BD0D49B57630390A79CB785209120234
:1020600013438A781B021A43626602D00122027669
:1020700000E005768A784276CA7882760979C17658
:1020800070BD00003000002024080020C106C90EE9
:1020900001208840014908607047000000E100E02D
:1020A000C106C90E01208840014908607047000040
:1020B00000E100E070B5012633460A4C0546834036
:1020C000002211462046FEF761F9206AF10208431A
:1020D0002062206BC007FCD0A800001900682663AE
:1020E00080B270BD00000E400248C07A012800D0C6
:1020F0000020704750000020F0B52749274B087A90
:10210000274E1C6FC00738D0264800885862062822
:102110002CD3801E80080A469862517E8446491C52
:10212000C9B2517681421CD8D86A8A001018C01EE4
:10213000B060C5781B4F6D092D028C37BD50877874
:102140003D43184F2D028C37BD5047783D43154F06
:102150008C37BD50C0783A46C006C00E2832505465
:1021600075600D4A614501D10020507670680028E5
:102170000DD00120800304430CE0586E00227060F3
:102180004A76002802D001209862F2E79A62012084
:10219000800384431C67F0BD30000020B0000020A5
:1021A000300100202408002010B50420FEF73CFE7A
:1021B0001020FEF7FFFE00210846FEF7A7FE0120D3
:1021C000FEF732FE0120FEF7F5FE1B48FEF760FE2B
:1021D0002B246406002203212046FEF7BBFE204686
:1021E000FEF73CFD154C2046FEF738FD0022114657
:1021F0002046FEF7AFFE641C2046FEF72FFD0022AE
:1022000011462046FEF7A6FE641C2046FEF726FD7A
:10221000002211462046FEF79DFE0948FEF71EFDEE
:10222000084C2046FEF71AFD032252040C212046DA
:10223000FEF790FE10BD0000006CDC02103D8057E0
:10224000180000401CFE235605200007816801226B
:102250001143816070470521020E090751188B68F0
:102260000122824013438B608868904388607047E6
:1022700010B5592116230548882202E00160036049
:1022800002600468012CF9D110BD0000000100506B
:1022900010B509495A220A70A5224A7004228A7090
:1022A0008022CA7003220A71020A4A7188710721CA
:1022B000014801F0C1FD10BD140A002010B50A4A02
:1022C0005A231370A5235370052393708223D37070
:1022D000030A13715071080A9071D17108211046D8
:1022E00001F0AAFD10BD0000140A002010B50C4A30
:1022F0005A231370A5235370072393708223D3703E
:10230000030A13715071080E9071080CD071080AFD
:10231000107251720A21104601F08EFD10BD0000AE
:10232000140A002038B51DA000681D4C0090216AD9
:102330002013014201D0002016E0080301D51948FE
:1023400000E019488A030FD40A04920F6B469B5C85
:10235000CA058904D20DC90E921C891C80085943F4
:102360005043FDF7DDFE8000104DA860216949074C
:10237000490F022903D0880029460C310858A16969
:102380000907090F491CFDF7CBFE094928604A10CF
:102390008018FDF7C5FE686038BD00000102020428
:1023A0000002005000805101001BB7000000002017
:1023B00040420F007047000010B50D4C2046FEF75C
:1023C0004DFC002211462046FEF7C4FDA106094C33
:1023D0006422204600F0A8F82068610308432060CA
:1023E0000820FFF753FE2068A1030843206010BDBA
:1023F0000200805E0000014010B50D4C2046FEF743
:102400002DFC002211462046FEF7A4FD094C0122B6
:10241000D106204600F088F8206821060843206095
:102420000920FFF733FE206861060843206010BDD5
:102430000300C05E2000014010B50D4C2046FEF7A1
:102440000DFC002211462046FEF784FD6106094C72
:102450000A22204600F068F82068610308432060E3
:102460000A20FFF713FE2068A1030843206010BD77
:102470000400005F0000114010B50E4C2046FEF72E
:10248000EDFB002211462046FEF764FD0A4C0121B7
:102490000A22C906204600F047F8206821060843B2
:1024A00020600B20FFF7F2FD2068610608432060E2
:1024B00010BD00000500405F2000114010B588B03D
:1024C0000446202213496846FDF7C1FE124913480D
:1024D0008C4203D140694005400F10E00E49203185
:1024E0008C4203D140694004400F08E00C49406928
:1024F0008C4202D14003400F01E04002400F02280D
:1025000004D080006946085808B010BD054800682E
:10251000FAE7000080420000000001400002005085
:102520000000114000000020F7B506461746FFF7EF
:10253000C5FF044600254008B84201D2022014E03D
:102540000F498C4202D90725E4080AE00D498C4264
:1025500002D90325A40804E00B498C4201D90125C6
:10256000044639462046FDF7DBFD019929433160D9
:1025700070606D1C684301462046FDF7D1FDFEBD2D
:102580000090D0030048E8010024F40070B525480D
:102590000125856024494878002837D00C468034CE
:1025A0006069224E401C7D2212016061B04206D358
:1025B00066614879322802D31D48206100E022611B
:1025C000E068401CE0602169FDF7AAFD1648403034
:1025D000002900D10574174900234A69521C4A6139
:1025E000417C154A022904D2A169B1420FD2491C8B
:1025F000A161818A642910D0002902D089B2491EC4
:102600008182418A002901D0491E418270BDD56076
:10261000FF2191318182A361F0E7D3606321A3613F
:10262000EEE70000000001403000002070170000BD
:10263000307500003001002040420050094801225E
:1026400082600949094BC88A401C80B2C8820A28A6
:1026500006D00022142803D0152800D9CA8270475A
:102660009A62704720000140700000200042005034
:10267000F8B55C49012088605B4C64252078401CDB
:10268000C0B22070642800D3257001F0B1FB564819
:1026900020384178491CC9B241700F2901D30F215C
:1026A0004170017D1422491CC9B20175142900D35F
:1026B0000275C17B491CC9B2C1730A2901D30A2121
:1026C000C173C17C491CC9B2C174642900D3C574EB
:1026D00045490423403948791E02401CC5B20846CA
:1026E000424F80304D71322D0ED332254D71C56E63
:1026F0001D43C566036FF5003343AB4303673B6877
:10270000AD102B436D000CE0C56E9D43C566036F95
:102710000125B3436D032B4303673B686D102B43C7
:102720006D10AB433B60C36E1E265D070023002D7A
:1027300002DAA671E37109E0A5796D1CEDB2A5710D
:10274000302D03D9A371E5796D1CE571FF27CD6E9E
:102750002D37BD4210D9856EE1276D1C3F0185667E
:10276000BD4209D38366486F0125401C4867CD717F
:102770001F4DA84200D94B678879401CC0B28871B0
:102780001E2800D38E712079401CC0B220710B2806
:1027900000D323716079401CC0B26071292800D336
:1027A0006371C878401CC0B2C870142804D31148A3
:1027B000CA708370C37003710879401CC0B208717D
:1027C000142805D30A714B76087A40084000087235
:1027D000C87E401CC0B2C876322802D3CB76FFF741
:1027E0008BFCF8BD00001140700000202005002087
:1027F0009F860100F40700200548012282600548F9
:10280000017B002903D104490B684B6002737047B8
:10281000200011403000002010050020F8B5544879
:10282000C1695449C96941680091C469524DE005C4
:102830000026524F002818DA4D4A90698004810E14
:1028400000200CE07A6C642A00D17E64484A126849
:102850007B6CEA547A6C521C7A64401CC0B2884289
:10286000F0D3454801F0E4FB7E64E00618D5404A09
:1028700090698004810E00200CE07A6C642A00D1FB
:102880007E643B4A12687B6CEA547A6C521C7A6410
:10289000401CC0B28842F0D3374801F0A7FB7E64E9
:1028A00037A13C48FDF7F8FC002805D0FFF7E0FC15
:1028B000FFF7CAFC38480660009880071ED5A005BF
:1028C0001CD52E492039C8880D89A84204D102217F
:1028D000274800F05BF911E00020304BCA889C5C6F
:1028E000234B1C603346FF2A00D0531C9AB2CA8087
:1028F000AA4203D0401CC0B20828EED31D48C569C7
:102900004068274CE80518D51A4A90698004810E62
:1029100000200CE0BA6C642A00D1BE64154A12682B
:10292000BB6CE254BA6C521CBA64401CC0B2884200
:10293000F0D31B4801F0F4FABE64E80617D50D4D3C
:10294000A8698004810E00200BE0BA6C642A00D1D3
:10295000BE642A68BB6CE254BA6C521CBA64401C58
:10296000C0B28842F1D30E4801F074FABE64F8BDDB
:10297000000005400040154040020020B00000204B
:1029800041542B434950534855540D0D0A4552525A
:102990004F520000430B0020000100502F0A00207E
:1029A000A402002010B51348FFF755FC124CE1219A
:1029B0004902204600F018F9A06830210843A060C1
:1029C000C821204600F054F96068E11408436060B3
:1029D0001121204600F0DEF80221204600F0D6F852
:1029E000064800210181C180FF212D310448FDF7F7
:1029F00047FC10BD100000040000054090000020BE
:102A0000430B0020F8B54048C16941680091C66990
:102A10000027F105002915DA01683C4AC9B21546BC
:102A20004035D37B3A4CED6E00F09CF90F091F2521
:102A30003134373A3D400B46494C4F530B005A292D
:102A40000FD0D773009989070AD5B10508D52F4A49
:102A5000203251889588A94243D1022100F096F88E
:102A6000F8BD0123D3732170ECE7A529E7D1022338
:102A7000D3736170E6E7062905D00529DFD10A2363
:102A8000D3736172DEE70323D373A170DAE7E170D9
:102A900004211CE02171052119E06171062116E075
:102AA000A171072113E0E171082110E0217217499B
:102AB000D7734031802211E0A1720B2107E0E1724F
:102AC0000C2104E021730D2101E061730E21D1730B
:102AD000B8E7A1730D49D773403102221543CD6683
:102AE000B0E70C4E00215488335D03603B46FF2C59
:102AF00000D0631C9BB25380AB42B1D0491CC9B219
:102B00000829F0D3F8BD0000000015407000002037
:102B1000200A00201409002010B50F48FFF79BFB86
:102B20000E4CE1214902204600F05EF8C821204603
:102B300000F09EF860680121C9020843606001212D
:102B4000204600F027F80221204600F01FF8044834
:102B500000218180418010BD11000004000015405B
:102B60009000002010B50748FFF775FB064CE121E7
:102B70004902204600F038F80121204600F00AF80A
:102B800010BD0000120000040040154042688A4356
:102B90004260704710B542680A4342600D4988425E
:102BA00009D00D49884203D10D20FFF779FA10BDF5
:102BB0000A49884201D10C20F7E70949884201D12E
:102BC0000F20F2E70749884201D11020EDE71120DC
:102BD000EBE70000000005400000154000401540F4
:102BE0000040054000800540F0B51D4B04460D46F1
:102BF0000FCB85B06E460FC61A48416980698901BE
:102C00008E0F0005070F002020630320E060A068FE
:102C100015490840A060012E02D1FEF70DF9019080
:102C2000002D1BD0B10068464058791CFDF778FA9A
:102C30000646690840182946FDF772FA0B49801EBE
:102C4000884207D9E90070182946FDF769FA00099A
:102C5000801E02E0032109070843606205B0F0BD51
:102C600020420000000200500FFFF0FFFFFF0000B5
:102C7000026A120A12020A43026241680122D20267
:102C800011434160704718B501780022242916D1FC
:102C9000401C01782A2901D04A40F9E741786C4666
:102CA0002170837863700846FDF75EFC04011846C6
:102CB000FDF75AFC2018904201D1012018BD0020D8
:102CC00018BD000010B5054C6160510001431801AA
:102CD000014380200143216010BD000000400040FE
:102CE0000348006E322801D8012070470020704749
:102CF000B000002070B50C4C0025E38821892A46DD
:102D0000FF2900D04A1C9A42F9D0084AFF295054A2
:102D100000D04D1C064825814168890702D4022154
:102D2000FFF738FF70BD0000900000202F0A002040
:102D30000000054010B5094A074B918858540020FF
:102D4000FF2900D0481C908005484168890702D4BB
:102D50000221FFF71FFF10BD140900209000002082
:102D60000000154030B47446641E2578641CAB42E4
:102D700000D21D46635D5B00E31830BC184702E0DB
:102D800008C8121F08C1002AFAD1704770470020F6
:102D900001E001C1121F002AFBD17047F0B5FF4EC0
:102DA0008FB0307C00287ED1FD4D01462A5C044660
:102DB0002C2A01D1491CC9B2022903D0601CC0B21F
:102DC0002F28F3D32819407841286DD1002003AA79
:102DD0002919C97830391154032801D1641CE4B28F
:102DE000641C401CC0B2E4B20928F1D36A46907B4F
:102DF000EC4908904843D27BEB4909924A43811839
:102E00006A46107CE94A504309186A46507C7D2284
:102E1000D200504309186A46907C64225043091836
:102E20006A46D07C0A22504308186A46117D401831
:102E30003C21FDF78BF96A46117BDA4A0B46534376
:102E40006A46527BD84F94467A439A188018C21724
:102E50000690079208980A225043099AD44B821888
:102E60000ED00A2041436046081880001F58C01841
:102E700040683C21381A5043FDF752F9381A05E0F2
:102E80000A20414360460818800018580021089025
:102E9000099108466A46291989793039115404285C
:102EA00004D1641C01E0A2E15FE1E4B2641C401CB7
:102EB000C0B2E4B20A28EED3D078BA4948431179B7
:102EC000B94A514341186A465079B84A50430918E3
:102ED0006A4690797D22D200504309186A46D0791B
:102EE0006422504309186A46107A0A22504308188F
:102EF0006A46517A40183C21FDF728F96A46117854
:102F0000AC4AA84B51436A465278AB4C5A438B1893
:102F10006A469178A44A2546514359184718FB1729
:102F20000A93A168E0682160606018350E910D90E9
:102F3000A968E868296068600C910B909F4A00239B
:102F400009990898FDF746F9974A0023FDF712F909
:102F50003A460A9BFDF73EF9934A0023FDF70AF92A
:102F6000E160A06004460991944A002307990698FD
:102F7000FDF730F98C4A0023FDF7FCF8E960A86002
:102F8000327B0A92002A7ED08B4AB37C1569526943
:102F90000792894A06951832176952690892022BDE
:102FA00055D02B46079D099AE31AAA4104D2069BE5
:102FB0002A46099D1C1B02E0069B099AE41A774BDE
:102FC000AA41E0331C665A66089B0A46C41B9A4114
:102FD0001A4606D23B1A71488A41E0308366C266BF
:102FE00005E0C31B6D489141E0308366C1666B49C3
:102FF000E031086E496E02460B46FDF7EBF80D46D0
:103000006F490446886EC96E02460B46FDF7E2F82A
:1030100022184D416A485121456702670020891AEC
:10302000A84102D20120707402E0707C00281FD0F9
:1030300024210020891AA8411AD30A98032817D3FB
:10304000002070745C48079A0699816008E00A982D
:1030500003280DD30020B07470745748079A856018
:10306000C2605548089918308760C16001203074EB
:10307000514B0D9918339A680E98DB68FDF7AAF842
:103080004F4F054600E061E079650C4638654A49D6
:103090000B9B8868C9680C9AFDF79CF8F965B865C0
:1030A00084460A463846737B816AC06A002B0FD07B
:1030B000634617465B1BA74130D367467D1B404BD9
:1030C000A2411D6349195A6350419962D86244E094
:1030D00063462746EB1A974109D36346EB1A94419E
:1030E000374FCA187C633B636041BA6225E067468C
:1030F0007D1BA241324B04461D635A634F1B13468E
:1031000094412F4A04D3491B98419162D06224E034
:10311000691A8341D3620120916215E06346EB1A7C
:10312000274F94417C632246CC1A05463B63954168
:103130003C4604D3C91A9041A162F8620DE0591AC5
:103140008241A1620020FA62707306E01A4A099B6C
:10315000146153611832516110610A98401CC0B269
:103160003073032801D3032030730C4C307C154D91
:103170002034002828D0124F03220023F96AB86AAD
:10318000FDF728F8FF2291320023FCF7F3FFF962E4
:10319000B8620027377380B2294623E05000002030
:1031A000D003002040420F00A0860100102700003D
:1031B0007440000080969800880C002024B2010022
:1031C0003001002063070020B07C02280FD1F07C82
:1031D00064280CD300270748B7748762C762377327
:1031E00029463846FDF734FF0120207377750FB06C
:1031F000F0BD000030010020D4B0FF480090FFF780
:1032000037F8FE4800250560FEF7CEFFFC4F3D6015
:10321000FFF72EF8FEF76AFAFDF79CF83D60FFF71E
:10322000C1FBFFF779FCFFF79DFCFFF7C5F8FFF73F
:10323000E3F8FFF701F9FFF71FF9FDF7B9F80020F0
:10324000FFF726F8FEF752F9EE4C8107206402D50D
:103250000121E16300E0E5634021EA4E8843803EBE
:103260002064307CEF2108403074E7490022009848
:10327000FDF772FB0098FDF7D9F9FEF7F9FF00237F
:103280000720012219460002FFF71CFDDC4900203F
:103290000860DE4DA8682027B843A86019204001C7
:1032A000FEF7F4F8A8683843A860E16E01200143F6
:1032B000E166FEF703F900F07DFDF07BD44A81075B
:1032C0000029E16E01DA114300E09143E166410714
:1032D00004D5327A02210A43327203E0317AFD22A8
:1032E000114031720007E06E02D51021084301E061
:1032F00010218843E066A321C648FCF7C1FFC14CFA
:103300000322C5A1E069FCF7A2FFE0690F22C3A177
:10331000C01CFCF79CFFE0690722C4A16030FCF7E9
:1033200096FFE0690722C3A16730FCF790FFE069D0
:103330000722C2A16E30FCF78AFFE0690722C1A113
:103340007530FCF784FFE0690A22C0A17C30FCF7ED
:103350007EFFE0690822C0A18630FCF778FFE069B3
:103360000822BFA18E30FCF772FFE0690822BEA1DF
:103370009630FCF76CFFE0690D21A130017000264A
:103380004670A4485A21DF3001713B2444710C225D
:10339000B7A1801DFCF75BFF9E484325DD30009000
:1033A00005754D2747750B22B5A11630FCF74FFF69
:1033B00098480322B5A1FE30FCF749FF95480C223E
:1033C000FC30411C0191447186715A21C171047213
:1033D000A7A10930FCF73BFF01990B220D754F7532
:1033E000A7A1AB48FCF733FFA9480322A9A10B30E2
:1033F000FCF72DFFA6485A210A300290047146714D
:103400002230017144710C2299A1801DFCF71FFF2D
:103410009F480B222A3001900575477598A11630F8
:10342000FCF715FF9A4803229BA14B30FCF70FFFD6
:1034300097485A214A30047146713E3801714471EF
:103440000C228BA1801DFCF702FF02980B22057550
:1034500047758F488AA120300290FCF7F8FE8C480F
:1034600003222B308DA10390FCF7F1FE01980C2272
:103470000471467186487EA11230FCF7E8FE0B22EB
:103480007FA10298FCF7E3FE032285A10398FCF7D5
:10349000DEFE7F485A216930C17104720C2274A18A
:1034A0000930FCF7D4FE7A480B22693045758775E0
:1034B00073A11730FCF7CBFE7548032279A18B303E
:1034C000FCF7C5FE7248032277A18E30FCF7BFFEE1
:1034D0006F48032276A19230FCF7B9FE6C4875A1C3
:1034E000893001900473467320380988C1850C2205
:1034F0005FA13030FCF7ABFE6FA101980988818392
:1035000063480B22A7305EA14E90FCF7A0FE6048F6
:1035100003226AA1B230FCF79AFE5D480322B5305F
:1035200067A14F90FCF793FE59484AA1A93009883A
:103530008183FD385521017144710C2265A1801DE4
:10354000FCF785FE52480B22563805754775163034
:103550004BA15390FCF77BFE4D48032261A1353807
:10356000FCF775FE009853A104714671484809881C
:10357000AB3081830C223EA11E30FCF768FE44482C
:103580004DA1C930098881810E300B223CA1519098
:10359000FCF75DFE3E48042253A1E230FCF757FEE3
:1035A0003B48052252A1E630FCF751FE384829A1DC
:1035B000E930098841803FA109888180841C0C2260
:1035C0002BA1801DFCF743FE3BA0008820823048E1
:1035D0000B22FD302AA15290FCF739FE042246A1AD
:1035E0004748FCF734FE4648052241A1001DFCF780
:1035F0002EFE43491F3985E000001840004000407E
:1036000000010050B000002090D003004041005065
:1036100000010000440500205A3B000049443030BE
:103620003137303831363030333B00004F50303591
:10363000303B000057543130303B000046563036A6
:10364000303B000042563132303B000052483132AC
:10365000333435363B0000005253313233343B00B3
:103660005341464646463B005452464646463B007A
:1036700030303030303030303030303B00000000FF
:10368000303031373038313630303300424F44003B
:10369000570600204E424F004E4C490048414C0016
:1036A000494E51004C494D00303030300000000090
:1036B00030303000553B0000525000004558450066
:1036C00030303030303030303030303030303030FA
:1036D0000000000030303030303030303030313B9E
:1036E00000000000534F53004D4D4F3B00000000C1
:1036F00030303030300000004D4D433B00000000C2
:103700005F070020FDA000880885FD4DFD486E8202
:10371000C660FD482C46203C509001272771687BED
:10372000012805D1F94881683A03514081606E73E0
:10373000FEF79EFDF64801682C2291433943016053
:10374000FCF72CFFF3480660FDF706FAEC4840381A
:1037500040780028E1D0A88A00287DD1687C022822
:1037600003D2FEF75BF9687435E2E5484038C07C67
:10377000002804D0A079012864D0002858D0E0485F
:103780004038007D002804D0A079022865D00028A8
:1037900077D0DB484038407D002804D0A07903284A
:1037A0006DD000286CD0D6484038807D002804D0E9
:1037B000A07904287ED000287DD0D1484038C07D33
:1037C000002804D0A079052876D0002874D0A87AE3
:1037D000002804D0A07906286FD000286ED0C848F1
:1037E0004038807C002804D0A079072867D00028C2
:1037F00065D0E87A002804D0A07909287ED0002876
:103800007CD0287B002807D0607D002804D0A079D8
:103810000A2874D0002872D02079002807D0287C8C
:10382000002804D0A07908286AD0002869D0D2E105
:10383000B34980224031086C1043086480B24F992C
:10384000FDF754FCA771202268464E99FCF7FFFC57
:103850003022B14908A801E01DE21DE0FCF7F7FCA9
:1038600008A80FC8FEF7C6F9687404287ED1A448DA
:103870004038417F39434177C674ABE101E03BE01A
:103880002CE09F49FF224031086C0132104308644C
:1038900080B24F99FDF72AFC0220A07120226846D1
:1038A0004E99FCF7D4FC30229B4908A8FCF7CFFCCA
:1038B00008A805E050E041E06DE0B8E082E0D4E027
:1038C0000FC8FEF797F9687404284FD18C4802227C
:1038D0004038417F1143417706757BE188490122D9
:1038E0004031086C92021043052252029043086452
:1038F00080B24F99FDF7FAFB032003E0D2E0E7E046
:1039000010E10DE1A071202268464E99FCF79FFC62
:103910003022814908A8FCF79AFC08A80FC8FEF7D6
:1039200069F96874042821D1754810224038417F14
:103930001143F3221140417746754BE17049012252
:103940004031086CD20210430322520290430864B3
:1039500080B24F99FDF7CAFB0420A071202268466F
:103960004E99FCF774FC30226B4900E07CE008A81B
:10397000FCF76DFC08A80FC8FEF73CF96874042832
:1039800072D15F4808224038417F1143EB22114039
:10399000417786751EE10520A071202268464E9968
:1039A000FCF755FC30225C4908A8FCF750FC08A83D
:1039B0000FC8FEF71FF96874042855D150484038E5
:1039C000C67507E14E4801214030006C49020843AA
:1039D0000321890288434A494031086480B24F99E3
:1039E000FDF784FB4C490A222739887FC97F30388C
:1039F00050433038091848480A23C01F02785943F9
:103A00003039511842785943303952183C494031C5
:103A10008A638178C27830395943303951180A2283
:103A2000007951433039401835494039087706202C
:103A3000A071202268464E99FCF709FC30223649D5
:103A400008A8FCF704FC08A80FC8FEF7D3F86874B0
:103A5000042809D12A4904224039487F1043E7222B
:103A600010404877AE72B5E01BE00720A07110222D
:103A700068465399FCF7EBFB23492022B33104A895
:103A8000FCF7E5FB04A80FC8FEF73AFA68740428AF
:103A900001D0002805D11A48A671403886741F4805
:103AA000688298E00920A071162268465199FCF7B7
:103AB000CEFB19492622303106A8FCF7C8FB06A820
:103AC0000FC8FEF7ABF9687404286CD1EE7281E080
:103AD0000A20A071162268465299FCF7B8FB0E49DD
:103AE0002822563106A8FCF7B2FB06A80FC8FEF73D
:103AF00095F9687404286ED12E736BE03B000000CA
:103B0000700000204042005054050020404000500A
:103B10000040004000010050EE060020AC260000EE
:103B2000FDF7F6FA0820A071FFF7DAF89B49087054
:103B30004E70FCF729FD8870FEF7D6FAC8700A7837
:103B4000012A00D1A7724B78012B00D1A772897886
:103B5000012900D1A772012800D1A772002A06D13D
:103B6000002B04D1002902D1002800D1A6728B4875
:103B70009D38406D032802DAA07A012814D09322E0
:103B800068465099FCF763FBA422854925A8FCF7F9
:103B90005EFB25A80FC8FEF79DF86874687C0428B2
:103BA00017D0002815D016E0932268465099FCF7EC
:103BB0004EFBA4227A4925A8FCF749FB25A80FC88B
:103BC000FCF734FC687475489D38416D491C4165AB
:103BD000E4E72E74A671607A00285ED07148FCF785
:103BE00071FB821E6D486F499D38C0691230FCF729
:103BF0002EFB66726C480069800423D5207D142852
:103C000034D3A07B00281BD1267464482673A77385
:103C100000211D388162C16266738038006D5F4982
:103C2000401C9D39086580B26049FDF73FFA5B484A
:103C30005E499D38006D263180B2FDF737FAEF728C
:103C4000A77416E02675A673A07C012802D0002870
:103C500004D00EE0207C002804D0A674677526747A
:103C600026730FE00220A074E67402E0A07C002816
:103C700008D0E07B0A2802D2A07C022802D1E67399
:103C8000FFF78CF845489D38C0691230FEF7FBFFFE
:103C9000002801D0677100E06671FF209130FDF7C8
:103CA000F5FB434F6020796FFEF720FB786F3C4FA8
:103CB000243FF8606878082801D908206870C1B2EC
:103CC0005020FEF7FBFAA9785120FEF7F7FAA87802
:103CD000B871374881785220FEF7F0FA344880787E
:103CE000F871282801D22821E970782801D9782094
:103CF000E870E9785520FEF7E1FA2D48C16E5420AE
:103D0000FEF7DCFA2A482649C06E2439284F08837A
:103D100080376420396EFEF7D1FA2149386E243994
:103D2000C8825A20396FFEF7C9FA5B20796FFEF717
:103D3000C5FA5C20B96FFEF7C1FA5D20F96FFEF796
:103D4000BDFA3846803041686720FEF7CFFA144844
:103D50000A2134388068FCF7F9F901467820FEF72B
:103D6000ADFA1348007A800701D5396801E01048A0
:103D7000C16F7920FEF7BAFA0D4F0948F96F243860
:103D8000C161FCF725FBB8791E2800D2C5E4F8799B
:103D90000028FBD0FDF7D0FBFE71BEE44D010020F2
:103DA00044050020D00300204040005020070020A0
:103DB0003000002010B5FEF75BFAFDF797FA094ACC
:103DC000002111600849020C0B46803B8865DA73BC
:103DD000064A904205D9C86E08221043C8660520DD
:103DE000886510BD00010050B00000200F270000C2
:103DF00010B50F4C6078002819D1204640300321BF
:103E00000078FCF78DF901221E2801D36270402052
:103E100008495A230B70A5234B7003238B70802312
:103E2000CB700A7148710621024800F005F810BDF8
:103E300030000020140A002070B505460E4600240C
:103E400005E028786D1CFEF775FF641CE4B2B442EF
:103E5000F7D370BDF3B52C4C00252646203681B033
:103E60002A4F40342DE0A08BC72801D30020A08327
:103E70000198A18B405D7854A08B385C242804D035
:103E8000A08B385C0A280CD016E00020014639547B
:103E9000401CC0B2C828FAD3A183A18B2420785437
:103EA0000AE03878242810D0002001463954401CFC
:103EB000C0B2C828FAD3A183A08B401CA0836D1C7C
:103EC000EDB202988542CED3FEBD11A10F48FCF79A
:103ED000E3F900280BD0707A0028EDD10B494C2271
:103EE0000846C830FCF7B3F901207072E4E70AA174
:103EF0000648FCF7D1F90028DED100213954401CD6
:103F0000C0B2C828FAD3D6E730000020080300204A
:103F100024474E474741000024474E524D4300007E
:103F2000F3B52C4C00252646203681B02A4F40346C
:103F30002DE0A08BC72801D30020A0830198A18B7E
:103F4000405D7854A08B385C242804D0A08B385C6A
:103F50000A280CD016E0002001463954401CC0B29B
:103F6000C828FAD3A183A18B242078540AE038789A
:103F7000242810D0002001463954401CC0B2C82863
:103F8000FAD3A183A08B401CA0836D1CEDB20298D4
:103F90008542CED3FEBD11A10F48FCF77DF9002864
:103FA0000BD0707A0028EDD10B4944220846C83066
:103FB000FCF74DF901207072E4E70AA10648FCF70E
:103FC0006BF90028DED100213954401CC0B2C8284A
:103FD000FAD3D6E7300000200803002024474E52D1
:103FE0004D430000244750565447000070B50E4C16
:103FF0000546208B0E46FF212D31884205D30B4804
:10400000FCF73EF90020208360830022074907E087
:10401000A85C238BC854208B401C2083521CD2B236
:10402000B242F5D370BD000070000020430B0020A9
:1040300070B50E4C0546208B0E46FF212D3188426F
:1040400005D30B48FCF71CF9002020836083002275
:10405000074907E0A85C238BC854208B401C2083B1
:10406000521CD2B2B242F5D370BD000070000020E5
:10407000430B0020A08601009086010063860100AA
:1040800017860100AC850100238501007C840100B6
:10409000B6830100D2820100D0810100B08001000E
:1040A000727F0100167E01009D7C0100057B0100EE
:1040B000507901007E7701008E7501008173010047
:1040C00057710100116F0100AE6C01002E6A0100F2
:1040D00092670100DA64010006620100175F0100C7
:1040E0000C5C0100E6580100A65501004A5201008F
:1040F000D44E0100444B01009B470100D74301000F
:10410000FB3F0100053C0100F7370100D1330100FE
:10411000922F01003C2B0100CF2601004A22010012
:10412000AF1D0100FE18010036140100590F0100F7
:10413000670A0100610501004500010016FB00004F
:10414000D4F500007EF0000015EB00009AE50000B9
:104150000DE000006FDA0000BFD40000FFCE0000C9
:104160002FC9000050C3000061BD000063B700000C
:1041700057B100003DAB000015A50000E19E000016
:10418000A1980000FC8B00009A8500002C7F0000A5
:10419000B578000035720000AB6B000019650000B7
:1041A000805E0000DF57000037510000884A0000A1
:1041B000D44300001B3D00005D3600009A2F000034
:1041C000D42800000B2200003F1B000071140000E7
:1041D000A10D0000D106000000000000000000005A
:1041E000303132333435363738394142434445462D
:1041F0004748494A4B4C4D4E4F50515253545556D7
:104200005758595A6162636465666768696A6B6C7E
:104210006D6E6F707172737475767778797A00004D
:10422000001BB700000000000000000000805101EA
:10423000001BB700000000000000000000805101DA
:10424000001BB700000000000000000000805101CA
:1042500000000000040000000C000000240000002A
:1042600000000000040000002C000000000000001E
:1042700000000000040000002C000000000000000E
:10428000001BB7000000000000000000000000005C
:104290000000000010270000000000000080510115
:1042A0002B435245473A20302C310D0A0D0A4F4B13
:1042B0000D0A0061740D0D0A4F4B0D0A0041542B7D
:1042C000435354543D22434D4E4554220D006174D6
:1042D0002B6369706D75783D310D0041542B434956
:1042E0005053544152543D302C22544350222C22DE
:1042F0003137312E382E3232352E323436222C38A8
:104300003030330D0061742B637265673F0D0041DF
:10431000542B434349440D0041542B4349494352D4
:104320000D0041542B43494653520D0041542B4339
:104330004950534855540D0061740D0041542B43AE
:10434000495053454E443D302C003E0053454E44A9
:10435000204F4B00434F4E4E454354204F4B0000DF
:1043600080430000000000203C0200007E2D000081
:10437000BC4500003C0200207C0E00008E2D000099
:1043800080F0FA023200000080F0FA02001BB70051
:104390000000000080F0FA0210270000000000007A
:1043A000000000000000000000805101000000003B
:1043B0000000000000321E000005000000000000A8
:1043C00000000000000000000000003200000000BB
:1043D00000000000000000000000000000000000DD
:1043E00000000000000000000000000000000000CD
:1043F00000000000000000000000000000000000BD
:1044000000000000000000000000000000000000AC
:10441000000000000000000000000000000000009C
:10442000000000000000000000000000000000008C
:10443000000000000000000000000000000000007C
:104440000000000000000000000000004405002003
:104450004433221100000000000000002B0800205F
:1044600000000000F11091090000000000000000B1
:10447000000000000000000000000000000000003C
:10448000000000000000000000000000000000002C
:10449000000000000000000000000000000000001C
:1044A000000000000000000000000000000000000C
:1044B00000000000000000000000000000000000FC
:1044C00000000000000000000000000000000000EC
:1044D00000000000000000000000000000000000DC
:1044E00000000000000000000000000000000000CC
:1044F00000000000000000000000000000000000BC
:1045000000000000000000000000000000000000AB
:10451000000000000000000000000000000000009B
:10452000000000000000000080000000000000000B
:10453000000000000000000000000000000000007B
:10454000000000000000000000000000000000006B
:10455000000000000000000000000000000000005B
:104560000000000000000000384300002C43000061
:10457000CE42000005430000BD4200001843000089
:10458000224300000F430000DB4200003C430000D8
:10459000B34200005C430000B8420000A0420000AB
:1045A0005C4300005C430000BA4200005C43000032
:0C45B000544300004A4300004C4300004C
:04000005000000D522
:00000001FF
