:020000040000FA
:10000000B0100020D5000000F5000000F70000004F
:1000100000000000000000000000000000000000E0
:10002000000000000000000000000000F9000000D7
:100030000000000000000000FB000000FD000000C8
:10004000FF000000FF0000006D150000FF00000031
:1000500045160000FF000000FF000000FF00000048
:1000600041250000F1250000FD2500008527000046
:10007000A927000091290000FF000000FF000000F8
:10008000FF000000FF000000FF000000FF00000074
:10009000C9050000FF000000FF000000FF00000095
:1000A000FF000000FF000000FF000000FF00000054
:1000B000FF000000FF000000FF000000FF00000044
:1000C0000348854600F034F90048004785310000B8
:1000D000B01000200A480B4901600B4901600B4930
:1000E00001600B4A0B491160002101600A488047FA
:1000F0000A480047FEE7FEE7FEE7FEE7FEE7FEE709
:1001000000010050590000001600000088000000A7
:1001100024000050A55A0000A9230000C1000000DF
:1001200030B50B46014600202022012409E00D468F
:10013000D5409D4205D31D469540491B2546954017
:1001400040191546521E002DF1DC30BD70B500245B
:100150002546002801DA01244042002901DA012560
:100160004942FFF7DDFFAC4200D04042002C00D0F6
:10017000494270BDF0B51FB40646002082B0054666
:100180004024019100901BE0019922460F46304621
:1001900000F0BDF8049A059B801A994110D31046CF
:1001A0001946224600F0A3F8361A8F4101972246DD
:1001B00001200021009F00F09AF838184D4100906E
:1001C0002046641E0028DFDC019B00982946324649
:1001D00007B0F0BDF0B51FB486B0002000900190CC
:1001E00002900698069980B204900798090C0204C0
:1001F0000014114307900027089D099806913E4678
:100200003C4603900398A9B20204000C03900498A2
:100210002D0C154348430021224600F068F8C71909
:10022000714110340E46402CECDB3846029A00F047
:100230005EF8009A019B8018009059410298019144
:10024000103002904028CCDB00980BB0F0BD034684
:100250000B439B0703D009E008C9121F08C0042AFA
:10026000FAD203E00B78491C0370401C521EF9D2ED
:100270007047D2B201E00270401C491EFBD27047A9
:100280000022F6E710B5044608461146024620460D
:10029000FFF7EFFF204610BD30B50EE003460A46DB
:1002A00001E05B1C521C1C781578AC4201D1002C7B
:1002B000F7D12A06120E04D0401C0278002AEDD194
:1002C000002030BD0146002000E0401C0A5C002AEE
:1002D000FBD1704730B504460020034600E05B1CAC
:1002E000934203D2E05CCD5C401BF8D030BD10B52A
:1002F000202A04DB0146203A9140002010BD9140A5
:1003000020239C1A0346E3401943904010BD10B5CA
:10031000202A04DB0846203AD040002110BD0B46BD
:10032000D340D0402024A21A91400843194610BD62
:10033000064C0125064E05E02046E36807C82B431E
:1003400098471034B442F7D3FFF7BEFEEC420000EA
:100350000C4300000B484168A32212041143416082
:1003600005200007026BA3218A430263026B0A4344
:100370000263002181620448026A01210A43026289
:10038000016370470040005000000E4030B5064841
:10039000046A064D2C400C4314430462416A090A66
:1003A00009021943416230BD00000E40F3FBFFFF1C
:1003B00010B50648AA210170BB214170012181704E
:1003C000C170042103F0FEFC10BD00000C0A0020E7
:1003D000F8B5002426462546002001F065FE641C81
:1003E0008619E4B20A2CF7D3FF205527C6303F0305
:1003F00070433946FFF794FE094E0024F067012050
:1004000001F052FE641C4519E4B20A2CF7D30548EA
:1004100039466843FFF784FE0930F065F8BD0000F7
:10042000B0000020510C00000FB4F8B5444C06A8F1
:100430000090E07F2546274600262035E03700283B
:1004400016D040A14148FFF727FF002864D0FF21C4
:100450002D313E48FFF714FFEE82E6772046A6775F
:100460006030466104203E61F8BC08BC04B0184707
:10047000A07F002841D03648416A3448FFF70CFF7E
:10048000002836D002F0F2FB314D3030BF3D2870ED
:100490003020687000F076F83030A87001F01EFE51
:1004A0003030E870012000F0EDFF2AA001F092FB4F
:1004B0000098C01C01F08EFB0098123001F08AFBFE
:1004C00025A001F087FB284601F084FB681C01F0A1
:1004D00081FBA81C01F07EFBE81C01F07BFB281DC2
:1004E00001F078FB1DA001F075FB0120E0773E6173
:1004F00024E0FF21F531386911E015482838406AB9
:1005000001F068FB16A001F065FB14A001F062FB8E
:1005100001203E61A07711E07D213869C900884241
:100520000CD3FF212D3109483E61FFF7A9FEEE8271
:10053000E6712672E677A677002095E7032093E719
:100540005000002053454E44204F4B003B0B0020F1
:1005500008020020583B00003B0000000D00000096
:100560003839000001463039092901D8C8B270472E
:1005700001464139052902D83738C0B27047FF20FB
:10058000704700000348C06F252801D20120704742
:1005900000207047B000002030B5094A0948D46FE8
:1005A000084B002540300121252C02D3D26DDC2AD6
:1005B00003D99A6B002A01D0816030BD856030BDBF
:1005C000B00000200042005070B5144C2169012099
:1005D000C00381420ED16068C00603D56068102157
:1005E000884360606068000703D56068082188431D
:1005F000606070BD4A1E15461F2A07D8204600F0CD
:1006000027F9E9B2204600F0B6F870BD0448C16A87
:100610000129FAD10021C16270BD0000000018401C
:100620004001184010B50446062100F0C0F82849E2
:100630000868020A1202802002430A60142001F0B6
:100640001FFD244B01220021204600F02FFA002834
:100650003DD00122204B1146204600F027FA002809
:1006600035D01E4B01220221204600F01FFA00283F
:100670002DD01B4B01220321204600F017FA002841
:1006800025D0184B01220421204600F00FFA002843
:100690001DD0154B01220521204600F007FA002845
:1006A00015D0124B01220621204600F0FFF9002848
:1006B0000DD00F4B01220721204600F0F7F900284A
:1006C00005D00C4B01220821204600F0EFF910BDA7
:1006D00014E400E00004F00C00EFFE1800EEFE1839
:1006E00000CAFE1800E5FE1800FFFE180001FD1804
:1006F00000FFEC1800FFEB1810B50246803293693A
:100700001B0401D4002010BD43681024A3434360A0
:10071000332050605069400405D4002008605069BF
:10072000C004400D07E0012008605069C004C00803
:10073000886013691843886050698004C017401CA2
:10074000486090690007000F0873D0694873D0694A
:10075000000A8873106AC873106A000A0874506A25
:100760004874506A000A8874906AC874906A000AD3
:100770000875012010BD70B50023044680340125A2
:100780001A462D07066A360401D4002307E02668BE
:10079000360401D4012302E0521CAA42F2D36024A1
:1007A0000C22634318184262491C016270BD10B5E7
:1007B0000B46044600F014F82068F1210840990720
:1007C000C90F490008435907C90F89000843190791
:1007D000C90FC90008432060204600F031F810BD61
:1007E0000168012211430160016840221143016048
:1007F0007047000070B5C16809050C0FC168490455
:100800004D0FC16880698906890E80010143054842
:10081000491C0068FFF784FC6119C91CFFF780FCC4
:1008200070BD000000000020FF30013001221029BF
:1008300001D2006A01E0406A10398A4010407047D6
:1008400001684122914301600168C907FCD17047EA
:10085000F8B53C4C0B46214640310126002502F0FC
:1008600047FA0A6F060A0E12171B1F262A6F4E73CD
:100870006571012722E04E73657102271EE04E73F9
:10088000657103271AE04E736571E570042715E062
:100890004E736571052711E04E73657106270DE0F3
:1008A0004E7328492031CE706571072706E04E73DC
:1008B0006571082702E04E7365710927224A791E87
:1008C00000F09AF8214B0020F900C9181E4A1218AE
:1008D000527B0A54401CC0B20828F7D31B4A40324E
:1008E000082F10D15079CA282AD1257126760020E8
:1008F0001649091840314B78144950310B54401CAB
:10090000C0B20728F4D3092F1AD1207E002817D0AF
:100910000E4B25715033127A9878904200D125768B
:10092000D50000200949AA1AD3180A184032527A71
:100930001A54401CC0B20728F7D3207A30432072E3
:10094000F8BD000030000020DC080020CC070020AB
:1009500070B50446154600F063F8012D05D12168F5
:100960008022114321600421616170BD70B504468D
:100970000D461646FFF758FF00283CD0606810214E
:1009800088436060002E01D0042000E00020783011
:1009900003210843803460606D1C256020680004DA
:1009A000FCD46069400405D4002018606069C0046C
:1009B000400D06E00120186060692169C004C0088C
:1009C00008439860A0690007000F1873E069587326
:1009D000E069000A9873206AD873206A000A1874C4
:1009E000606A5874606A000A9874A06AD874A06A31
:1009F000000A1875012070BD10B50B46114602683B
:100A0000120605D54269520702D5FFF775FE10BDE3
:100A1000DCB20B4601222146FFF7A8FF10BD000003
:100A2000F8B50F460646FFF7DBFE01F075FC1E48E1
:100A30000224012539460068FFF772FB0746611959
:100A4000C91C3846FFF76CFB002911D0072C01D2D6
:100A50006D1CEDB26119C91C3846FFF761FB002916
:100A600006D00F2C02D2641CE4B2E8E70224012570
:100A700061193846C91CFFF753FB29032202401EA7
:100A800011438206920E1143F268C0231A401143AB
:100A9000F1608005000FB0613046FFF7D1FE3046AF
:100AA000FFF7A8FEF8BD000000000020FFB50024FD
:100AB000012781B00D4616463F0705E0641CBC4285
:100AC00002D3002005B0F0BD01230093F2B2E9B2D9
:100AD000049B019800F004F80028EFD00120F1E712
:100AE000FFB581B007460D4616461C4600F064FF70
:100AF000C0B2022819D06022F3215043C0194162CC
:100B00000021002E14D0A2B20263E200D20C032313
:100B10009B03D21842630522920282630A9B8022C1
:100B2000002B836B0AD0134309E0002005B0F0BD11
:100B300001636205D20C0123DB03EAE7934383637D
:100B4000C1630164416481646D1C05620120EDE7AD
:100B5000F8B53C4D3C4C687932280FD300210A4649
:100B60000020CB001B191A54401CC0B20828FAD32D
:100B7000491CC9B20A29F3D32820207632480A2218
:100B8000017BC07A090201433048A96600F021FFC9
:100B9000C0082F49A866884200D9A966294EE07C82
:100BA00040363746B07040377968142802D20122A7
:100BB000114301E0490849007960FA2801D9FA2077
:100BC000B070C1B221480A22503000F002FFC0B21A
:100BD0000521FFF7A5FA4000B0701C48217EA970DE
:100BE0000A22283000F0F5FEC0B2A870282801D9EA
:100BF000283800E00020A870F070134820300179F8
:100C00004A09C17812021143827809020A433A66FE
:100C1000C27A817A12021143427A09020A43017AA6
:100C2000120211434908E966007C8007800F012801
:100C3000287C03D0F72108402874F8BD0821084318
:100C4000FAE7000030000020CC07002090040020CC
:100C5000B80B00001FB50A4C10341ECC03946C4630
:100C60000EC4810F8A0069468A58064951184A689D
:100C7000C306DB0E0120984002434A601FBD0000FE
:100C8000DC41000000020050F0B507000C46564859
:100C900085B054490162554E016813D004221143B6
:100CA0000160102000F082F90120C0040290504839
:100CB000042503904F485049201888420DD8002041
:100CC00004901CE0012211430160104600F06EF90F
:100CD0000020022503960290ECE748484849201876
:100CE000884203D801206400049008E04548454943
:100CF00020184942884249D80320A40004900026C5
:100D0000F64300200090019021E029460398FFF768
:100D100007FA3D493D4A4118914217D2364F022207
:100D20007F1C344B014651435B1CCB18BB4209D896
:100D30000B1BA14200D8631AB34203D21E000095D8
:100D4000019203D03249521C8A42EAD96D1C212DEE
:100D5000DBD90498029980030843009901224902D3
:100D60009202891A08430199891E08431E490862A4
:100D7000042000F01BF904990098491C4143039892
:100D8000FFF7CEF90199484305B0F0BD002F0FD011
:100D9000204915480162042000F008F91EA00068EF
:100DA00000901148016A0013014203D00020EBE7D4
:100DB0001A49EEE7080300D50D4E880301D53046E9
:100DC000E2E70804800F6A46105CCA058904C90E70
:100DD000891CD20D4143921CB0085043FFF7A0F983
:100DE0008000D1E70000010000020050001BB700A6
:100DF00000805101FF1E0AFAFFE0F5057F0F05FD97
:100E00007FF0FA02C08782FEFF95E7FFBF77CC0034
:100E1000010200006FD60000010202042EC2000091
:100E200002490A6802430A6070470000000200504D
:100E300008B511A0006800901048016A0013014233
:100E400001D0002008BD080301D50D4800E00D4881
:100E50008A03F7D40A04920F6B469B5CCA05890487
:100E6000D20DC90E921C891C800859435043FFF7CC
:100E700057F9800008BD0000010202040002005082
:100E800000805101001BB700F8B51C4D0446EE6808
:100E9000102006401A48844202D84010844200D2F2
:100EA00004462868042738432860102000F07EF8A4
:100EB0002869072108432861A86900090001A86181
:100EC0002868C00705D061000020FFF7DDFE04465A
:100ED00008E001206100C004FFF7D6FEEE6804467A
:100EE000102006400121022000F00CF8002E02D153
:100EF0002868B84328606008F8BD00000002005070
:100F000080F0FA0270B5104CE56810262268354072
:100F100004231A432260E268D206FCD52269072323
:100F20001A432261A269120912010A43A2612169CE
:100F300099430143216101F0EFF9002D02D12068AE
:100F4000B043206070BD0000000200507FB5154E18
:100F500078CE03966E4638C6840A23061B0E0CD044
:100F600003039B0F104D9B005B19E5B28405E40E53
:100F7000A5401C68AC4314431C60420E520710D0BD
:100F80008200920F92006B469A58074B083BD2188A
:100F900003015B0FC001C00E8340106898430843F3
:100FA00010607FBDDC4100001802005010B50446FF
:100FB0000749084A05E00B46491E002B01DC0020CA
:100FC00010BDD36820469843F5D1012010BD000024
:100FD000804F12000002005070B50D46411E1446AD
:100FE000032901D3002070BD032809D002281AD09C
:100FF0000A212846FFF794F830312170012070BD96
:1010000064212846FFF78CF83030207008460A210A
:10101000FFF786F8303060700A212846FFF780F825
:101020003031A170EAE764212846FFF779F80846D5
:101030000A21FFF775F8303020700A212846FFF7A3
:101040006FF830316170D9E770B50C460546144928
:10105000FFF766F8303020707D260846F6003146EE
:10106000FFF75EF83030607031462846FFF758F8D9
:1010700008466421FFF754F83030A07064212846F8
:10108000FFF74EF808460A21FFF74AF83030E070C3
:101090000A212846FFF744F83031217170BD000065
:1010A0001027000070B50C467D210546C900FFF7EA
:1010B00037F83030E07108466421FFF731F83030FE
:1010C000207264212846FFF72BF808460A21FFF713
:1010D00027F8303060720A212846FFF721F83031B6
:1010E000A17270BD70B5002201263124302533462F
:1010F0009340034201D08C5400E08D54521CD2B274
:10110000102AF4D370BD000070B5464C464D2068DF
:101110000121C2B2A8699030FFF7ABF82068012125
:101120000004020EA8699130FFF7A3F8206801219E
:101130000002020EA8699230FFF79BF82068012197
:10114000020EA8699330FFF794F800F051FF218B4D
:10115000E1200001814200D92083A079642801D9CF
:101160006420A071E079782801D97820E071207A94
:10117000082801D9082020722C48E168814200D952
:10118000E060208B2A49FEF7CBFF7D260846F6005B
:101190003146FEF7C5FFAA69014688320120FFF7F4
:1011A0001BFF208B3146FEF7BBFFAA690320893263
:1011B000FFF712FFAA69A17962320320FFF70CFF43
:1011C000AA69E17969320320FFF706FFAA69217A4B
:1011D00070320320FFF700FF1449E068491CFEF756
:1011E0009FFF08463146FEF79BFFAA6981B27E3217
:1011F0000320FFF7F1FE3146E068FEF791FFAA6990
:1012000003208132FFF7E8FEE18AFF206930814246
:1012100000D9E082AA69E18A77320320FFF7DCFE79
:1012200070BD000018050020B00000203F420F00F4
:101230001027000006492222CA6048600120086188
:10124000BFF36F8F08690028FCD108687047000061
:1012500000C0005006490022CA60486001200861B1
:10126000BFF36F8F08690028FCD1886870470000C1
:1012700000C00050F0B50C4E0546002330681C46F7
:101280000121084330607F27BF02D819FFF7E2FF32
:10129000A100641C1B1D6850E4B2142BF5D3306808
:1012A000400840003060F0BD00C00050F0B50C4D6B
:1012B000002428682346012108432860F926760285
:1012C0004F029819FFF7C6FF411C03D01B1D0446AF
:1012D000BB42F6D328684008400028602046F0BD95
:1012E00000C00050F0B50C4D0024286823460121B1
:1012F000084328601F2636034F029819FFF7AAFFFC
:10130000411C03D01B1D0446BB42F6D3286840088D
:10131000400028602046F0BD00C00050F0B50C4DE4
:101320000024286823460121084328603F26F6024E
:101330004F029819FFF78EFF411C03D01B1D044676
:10134000BB42F6D328684008400028602046F0BD24
:1013500000C00050F0B50C4D002428682346012140
:1013600008432860FD2676024F029819FFF772FFA6
:10137000411C03D01B1D0446BB42F6D3286840081D
:10138000400028602046F0BD00C00050064A2123DE
:10139000D3605060916001201061BFF36F8F1069BE
:1013A0000028FCD17047000000C00050F0B50C4F81
:1013B0000646002438682546012108433860A80005
:1013C00031587F2080022018FFF7E0FF6D1C241D9C
:1013D000EDB2142CF3D33868400840003860F0BDFB
:1013E00000C00050F0B5104E0746306800230121C0
:1013F000084330604D02F92464021819FFF72AFFF0
:10140000401C02D01B1DAB42F7D3AB4203D1204698
:10141000FFF710FF002339461819FFF7B7FF3068B0
:10142000400840003060F0BD00C00050F0B5104EE4
:101430000746306800230121084330604D02FD2437
:1014400064021819FFF706FF401C02D01B1DAB42B7
:10145000F7D3AB4203D12046FFF7ECFE0023394619
:101460001819FFF793FF3068400840003060F0BD66
:1014700000C0005002490020401C8842FCD3704745
:101480007604000000B50346002202E0FFF7F2FFF9
:10149000521C9A42FAD300BD10B5044600F0E2FE99
:1014A0002046FFF7E7FE024A00211160204610BDEA
:1014B0000001005010B500F0D5FEFFF7F7FE064919
:1014C000064A00240867904203D900200C67FFF702
:1014D00089FF0348046010BD300000209F86010092
:1014E0000001005010B500F0BDFEFFF717FF024AE3
:1014F0000021116010BD00000001005010B500F087
:10150000B1FEFFF727FF024A0021116010BD000065
:101510000001005010B5044600F0A4FE2046FFF77D
:1015200045FF02490020086010BD00000001005086
:1015300010B500F097FE0448006FFFF753FF034912
:101540000020086010BD00003000002000010050A5
:1015500010B5044600F086FE2046FFF767FF0249FB
:101560000020086010BD0000000100500120054966
:10157000800308620448806B002801D10349887108
:1015800070470000404000504042005030000020B2
:101590000FB470B504AC2046FEF794FE0546E01C7F
:1015A000FEF790FE2D1820461230FEF78BFE2D1808
:1015B00020466030FEF786FE2D1820466730FEF785
:1015C00081FE2D1820466D1C6E30FEF77BFE064610
:1015D00020467530FEF776FE361820467C30FEF742
:1015E00071FE3018451920468630FEF76BFE401913
:1015F0000F30C5B27D21C9002846FEF791FD08468F
:101600006421FEF78DFD0E4C303020706421284699
:10161000FEF786FD08460A21FEF782FD3030607035
:101620000A212846FEF77CFD3031A1700D20E070C4
:1016300000202071204670BC08BC04B01847000090
:101640004401002010B5FF201749013008621748F7
:10165000006A002826D116480168491C016080688C
:10166000144988421EDA1449144B487B0022401C5E
:10167000C0B248730C2806D34A73C86F401CC867B1
:10168000984200D3CA67486F0D4C401C4867A0427F
:1016900008D34A67886F0124401C8867CC7298423F
:1016A00000D98A6710BD0000404000504042005001
:1016B00008050020B80B0000300000203F420F005A
:1016C0006C2D000010B58369140E8C402343836198
:1016D000C3691202120A8A401343C36110BD00009D
:1016E000F8B505200007406B052180088000090738
:1016F0004863486B03210843052109074863486B89
:1017000030218843052109074863486B302108438D
:10171000052109074863C86B032189038843052114
:101720000907C863C86B032189030843052109071A
:10173000C863C86BC021884305210907C863C86B0B
:10174000C021084305210907C863002201218B48F5
:1017500000F01EF900220221884800F019F9002249
:101760000421864800F014F903220821834800F080
:101770000FF9834D0024EC60032210217F4800F014
:1017800007F92C61002220217C4800F001F9032296
:1017900040217A4800F0FCF8AC61002280217748B3
:1017A00000F0F6F8FF2103220131744800F0F0F850
:1017B0002C62012100224902704800F0E9F8012260
:1017C00091026E4800F0E4F8AC6201210022C902E7
:1017D0006A4800F0DDF8012103220903674800F0A0
:1017E000D7F801262E6303227103644800F0D0F875
:1017F0006E630022B103614800F0CAF80122D103F0
:101800005E4800F0C5F8EC635C4F002240370121D0
:10181000384600F0BDF800220221384600F0B8F842
:1018200003220421384600F0B3F8554D4035AC6032
:1018300001220821384600F0ABF8EC60002240217C
:10184000384600F0A5F800228021384600F0A0F8C4
:1018500003227102384600F09BF86C6200223103CB
:10186000384600F095F8474A0C213846FFF72AFF22
:1018700043493A2080390860786931030843786128
:10188000042000F0FDFB0022B103384600F080F890
:101890000322F103384600F07BF8EC63374F032254
:1018A00080370121384600F073F8354D80352E60C1
:1018B00003220221384600F06BF86E6000220421FA
:1018C000384600F065F803220821384600F060F839
:1018D000EE6001224021384600F05AF8AC61032244
:1018E0008021384600F054F8EC610322310238467A
:1018F00000F04EF82C6203227102384600F048F8DE
:101900006C620322B102384600F042F8AC62032256
:10191000F102384600F03CF8EC620322B10338468D
:1019200000F036F8AC630322F103384600F030F8DB
:10193000EC6301222021144800F02AF81348446186
:10194000114C002240341021204600F021F80022E2
:101950002021204600F01CF80A4A05212046FFF706
:10196000B1FE6069202108436061052000F088FB1A
:1019700000223102204600F00BF8F8BD0040005074
:10198000004200500100010000410050004300509F
:10199000F0B5002301273C469C400C4208D0056866
:1019A0005C000326A640B5431646A64035430560B5
:1019B0005B1C102BEFD3F0BD016A090401D4002099
:1019C000704780300068000401D401207047022075
:1019D0007047F8B50E4604461146551E0020920089
:1019E000171905E08200BB1A403B9A6B401CDA6372
:1019F000A842F7D300200346266003E09A00A258CD
:101A000010185B1C8B42F9D3FEF78AFBF8BD00006F
:101A1000F8B5654C0026E079254620350090282849
:101A200072D2207A2746E03700280FD1FF212D31CE
:101A30005E48FEF725FCEE82009839468000B03102
:101A4000085800F0C7F8012020723E61E07958493B
:101A500003286AD0800009585448FEF71DFC00286E
:101A600007D00120FFF70EFD2672E079072810D07D
:101A700034E07D203969C000814278D3FF212D31C7
:101A80004A483E61FEF7FCFBEE820A20FFF7FAFCB3
:101A90007AE048A14548FEF7FFFB00281ED0434AE4
:101AA0000021143A837A5354491C401CC9B21429AA
:101AB000F8D3FFF723FD3C4F6037B8643F48FFF78A
:101AC000EBFCB86C002820D03849142214393B486C
:101AD000FEF700FC002826D00120E072FF212D3106
:101AE0003248FEF7CDFBEE820A20FFF7CBFCE0790F
:101AF000401CC0B2E07109284AD32B4826726030DE
:101B000046610120207130E046E00120B864FFF713
:101B10001FFD2649142214392848FEF798FB274850
:101B2000FFF7F8FCDAE7E672D8E7C9681F48FEF766
:101B3000B3FB002805D122A11C48FEF7ADFB00280D
:101B400016D00120FFF79EFCFF2126722D31174889
:101B5000FEF796FBEE82E079401CC0B2E0710928E6
:101B600018D31148603046613E610220F8BD0FE095
:101B70007D203969C00081420AD3FF212D310B48F5
:101B80003E61FEF77DFBEE82E67126720020EDE7F6
:101B90000120EBE73E61FBE7FF212D310348FEF713
:101BA0006FFBEE82E671F1E7500000203B0B002056
:101BB0000802002041542B4343494400680C002094
:101BC0002B435245473A20302C320D0A0D0A4F4B19
:101BD0000D0A000010B5044602E0641C01F050F844
:101BE00020780028F9D110BDF8B53248324C009069
:101BF0003248617F2546074600262035D83F002918
:101C000013D0816A2E48FEF747FB00283DD0FF2104
:101C10002D312B48FEF734FBEE826677204626777F
:101C20006030466104203E61F8BD217F002916D056
:101C3000416A2348FEF730FB00280CD00120FFF753
:101C400021FC0098FFF7C6FF1EA0FFF7C3FF01208D
:101C500060773E612BE0FF21F531386918E01748C5
:101C60002838406AFFF7B6FF14483021C4380170A5
:101C700034214170382181700D21C1700671FFF748
:101C8000A9FF01203E61207711E07D213869C9005C
:101C900088420CD3FF212D3109483E61FEF7F0FA4E
:101CA000EE82E6712672667726770020F8BD032063
:101CB000F8BD0000DF0500205000002008020020D1
:101CC0003B0B00200D0000000FB4F0B5494CA5B04F
:101CD000E07D2646002720362AAD002818D046A1F0
:101CE0004748FEF7D9FA00286ED0FF212D3144482D
:101CF000FEF7C6FAF782E7752046A77560304761A0
:101D000080300761042025B0F0BC08BC04B018473F
:101D1000A07D002842D03B48416A3948FEF7BCFA12
:101D2000002835D02846FFF755FFE81CFFF752FF83
:101D300028461230FFF74EFF33A0FFF74BFF28462F
:101D40006030FFF747FF28466730FFF743FF28461C
:101D50006E30FFF73FFF28467530FFF73BFF284600
:101D60007C30FFF737FF28468630FFF733FF2846E1
:101D70008E3000F031F92846963000F02DF923A07E
:101D8000FFF728FF0120E0751E48D83807612FE0D3
:101D90001C48FF22D838F53201691AE01948283862
:101DA000406AFFF717FF93222EA96846FEF74FFA05
:101DB0002AA80FC8FFF7ECFBFFF70CFF1148D83833
:101DC00007610120A07513E00E487D22D838016913
:101DD000D20091420CD3FF2107612D310848FEF754
:101DE0004FFAF782E7712772E775A77500208AE737
:101DF000032088E75000002024474E524D43000046
:101E00003B0B0020080200203B0000000D000000FA
:101E10000FB4F8B506A8334C00903348E17E254650
:101E2000074600262035D83F002916D0816A2F4862
:101E3000FEF732FA002840D0FF212D312B48FEF763
:101E40001FFAEE82E6762046A676603046610420D0
:101E50003E61F8BC08BC04B01847A17E002916D02A
:101E6000416A2248FEF718FA00280CD00120FFF73B
:101E700009FB0098FFF7AEFE1DA0FFF7ABFE0120A7
:101E8000E0763E612BE0FF21F531386918E0164815
:101E90002838406AFFF79EFE13483021C43801708D
:101EA00033214170382181700D21C1700671FFF717
:101EB00091FE01203E61A07611E07D213869C900C4
:101EC00088420CD3FF212D3108483E61FEF7D8F936
:101ED000EE82E6712672E676A6760020B9E7032048
:101EE000B7E7000050000020080200203B0B002054
:101EF0000D0000000FB4F8B506A8334C009033482D
:101F0000617E2546074600262035D83F002916D099
:101F1000816A2F48FEF7C0F9002840D0FF212D31FB
:101F20002B48FEF7ADF9EE826676204626766030C5
:101F3000466104203E61F8BC08BC04B01847217E0D
:101F4000002916D0416A2248FEF7A6F900280CD0D5
:101F50000120FFF797FA0098FFF73CFE1DA0FFF75E
:101F600039FE012060763E612BE0FF21F5313869B2
:101F700018E016482838406AFFF72CFE1348302135
:101F8000C438017033214170322181700D21C1703C
:101F90000671FFF71FFE01203E61207611E07D21D2
:101FA0003869C90088420CD3FF212D3108483E61B1
:101FB000FEF766F9EE82E6712672667626760020D6
:101FC000B9E70320B7E70000500000200802002016
:101FD0003B0B00200D00000070B50546002428785A
:101FE0006D1C00F04DFE641CE4B2072CF7D370BDED
:101FF00070B5214E0025307A3446C1078034A0697F
:10200000803000291FD01D4909882162062919D373
:10201000891E8A0862620276B17E491CCBB2B37611
:1020200093420CD8A46A99000919C91EF41DF93409
:10203000A1604C7844768C788476C978C1769342D6
:1020400000D1B57670BD0D49B57630390A79CB78B7
:102050005209120213438A781B021A43226602D0E5
:102060000122027600E005768A784276CA78827686
:102070000979C17670BD0000300000201C080020E6
:10208000C106C90E01208840014908607047000060
:1020900000E100E0C106C90E012088400149086046
:1020A0007047000000E100E070B5012633460A4C9D
:1020B00005468340002211462046FEF767F9206A54
:1020C000F10208432062206BC007FCD0A800001971
:1020D0000068266380B270BD00000E400248C07ADE
:1020E000012800D00020704750000020F0B527499B
:1020F000274B087A274EDC6EC00738D02648008868
:10210000186206282CD3801E80080A465862517E29
:102110008446491CC9B2517681421CD8986A8A000B
:102120001018C01E7060C5781B4F6D092D028C37CA
:10213000BD5087783D43184F2D028C37BD504778EE
:102140003D43154F8C37BD50C0783A46C006C00E8F
:102150002832505435600D4A614501D10020507637
:10216000306800280DD00120800304430CE0186E75
:10217000002230604A76002802D001205862F2E73F
:102180005A62012080038443DC66F0BD30000020E9
:10219000B0000020300100201C08002010B50420F1
:1021A000FEF73EFE1020FEF701FF00210846FEF775
:1021B000A9FE0120FEF734FE0120FEF7F7FE1B48C2
:1021C000FEF762FE2B246406002203212046FEF760
:1021D000BDFE2046FEF73EFD154C2046FEF73AFDBB
:1021E000002211462046FEF7B1FE641C2046FEF791
:1021F00031FD002211462046FEF7A8FE641C204651
:10220000FEF728FD002211462046FEF79FFE0948F2
:10221000FEF720FD084C2046FEF71CFD0322520469
:102220000C212046FEF792FE10BD0000006CDC027F
:10223000103D8057180000401CFE23560520000763
:10224000816801221143816070470521020E090750
:1022500051188B680122824013438B608868904339
:102260008860704710B5592116230548882202E07E
:102270000160036002600468012CF9D110BD000008
:102280000001005010B509495A220A70A5224A706F
:1022900004228A708022CA7003220A71020A4A71DB
:1022A00088710721014801F08DFD10BD0C0A002046
:1022B00010B50A4A5A231370A5235370052393704F
:1022C0008223D370030A13715071080A9071D1717F
:1022D0000821104601F076FD10BD00000C0A002018
:1022E00010B50C4A5A231370A5235370072393701B
:1022F0008223D370030A13715071080E9071080C79
:10230000D071080A107251720A21104601F05AFD6C
:1023100010BD00000C0A002038B51DA000681D4C3F
:102320000090216A2013014201D0002016E008032A
:1023300001D5194800E019488A030FD40A04920F06
:102340006B469B5CCA058904D20DC90E921C891C80
:10235000800859435043FDF7E3FE8000104DA8600C
:1023600021694907490F022903D0880029460C3109
:102370000858A1690907090F491CFDF7D1FE094951
:1023800028604A108018FDF7CBFE686038BD000059
:10239000010202040002005000805101001BB7003E
:1023A0000000002040420F007047000010B50D4CA7
:1023B0002046FEF74FFC002211462046FEF7C6FDE0
:1023C000A106094C6422204600F088F820686103C9
:1023D000084320600820FFF753FE2068A10308434C
:1023E000206010BD0200805E0000014010B50D4C61
:1023F0002046FEF72FFC002211462046FEF7A6FDE0
:102400006106094C0A22204600F068F82068610342
:10241000084320600A20FFF733FE2068A103084329
:10242000206010BD0400005F0000114010B50E4C8C
:102430002046FEF70FFC002211462046FEF786FDDF
:102440000A4C01210A22C906204600F047F82068FC
:102450002106084320600B20FFF712FE206861066A
:102460000843206010BD00000500405F20001140BF
:1024700010B588B00446202213496846FDF7E7FEF0
:10248000124913488C4203D140694005400F10E0C7
:102490000E4920318C4203D140694004400F08E0CE
:1024A0000C4940698C4202D14003400F01E04002D8
:1024B000400F022804D080006946085808B010BDBB
:1024C00005480068FAE700000C42000000000140E7
:1024D000000200500000114000000020F7B5064641
:1024E0001746FFF7C5FF044600254008B84201D251
:1024F000022014E00F498C4202D90725E4080AE0C3
:102500000D498C4202D90325A40804E00B498C42F2
:1025100001D90125044639462046FDF701FE0199FF
:102520002943316070606D1C684301462046FDF709
:10253000F7FDFEBD0090D0030048E8010024F40040
:1025400070B525480125856024494878002837D092
:102550000C4680342069224E401C7D2212012061ED
:10256000B04206D326614879322802D31D48E06084
:1025700000E0E260A068401CA060E168FDF7D0FDCB
:1025800016484030002900D10574174900230A6914
:10259000521C0A61417C154A022904D26169B14288
:1025A0000FD2491C6161818A642910D0002902D0B0
:1025B00089B2491E8182418A002901D0491E418287
:1025C00070BDD560FF21913181826361F0E7D360F6
:1025D00063216361EEE7000000000140300000204D
:1025E000701700003075000030010020404200509C
:1025F000014901208860704720000140F8B55C491E
:10260000012088605B4C64252078401CC0B220709B
:10261000642800D3257001F0B1FB5648203841787A
:10262000491CC9B241700F2901D30F214170017DAE
:102630001422491CC9B20175142900D30275C17B4B
:10264000491CC9B2C1730A2901D30A21C173C17CD3
:10265000491CC9B2C174642900D3C5744549042317
:10266000403948791E02401CC5B20846424F8030AE
:102670004D71322D0ED332254D71856E1D43856609
:10268000C36EF5003343AB43C3663B68AD102B43C9
:102690006D000CE0856E9D438566C36E0125B343D6
:1026A0006D032B43C3663B686D102B436D10AB432A
:1026B0003B60836E1E265D070023002D02DAA671A3
:1026C000E37109E0A5796D1CEDB2A571302D03D938
:1026D000A371E5796D1CE571FF278D6E2D37BD4225
:1026E00010D9456EE1276D1C3F014566BD4209D3F7
:1026F0004366086F0125401C0867CD711F4DA84235
:1027000000D90B678879401CC0B288711E2800D39D
:102710008E712079401CC0B220710B2800D3237128
:102720006079401CC0B26071292800D36371C878F9
:10273000401CC0B2C870142804D31148CA708370FA
:10274000C37003710879401CC0B20871142805D306
:102750000A714B76087A400840000872C87E401C17
:10276000C0B2C876322802D3CB76FFF7BFFCF8BDE3
:102770000000114070000020180500209F86010015
:10278000EC0700200548012282600548017B0029F2
:1027900003D104490B684B6002737047200011405D
:1027A0003000002008050020F8B55448C16954499C
:1027B000C96941680091C469524DE0050026524F35
:1027C000002818DA4D4A90698004810E00200CE040
:1027D0003A6C642A00D13E64484A12683B6CEA5461
:1027E0003A6C521C3A64401CC0B28842F0D345484F
:1027F00001F0E4FB3E64E00618D5404A906980048D
:10280000810E00200CE03A6C642A00D13E643B4A01
:1028100012683B6CEA543A6C521C3A64401CC0B2D9
:102820008842F0D3374801F0A7FB3E6437A13C480B
:10283000FDF732FD002805D0FFF714FDFFF7FEFC81
:1028400038480660009880071ED5A0051CD52E4983
:1028500020398888CD88A84204D10221274800F079
:102860005BF911E00020304B8A889C5C234B1C6094
:102870003346FF2A00D0531C9AB28A80AA4203D062
:10288000401CC0B20828EED31D48C5694068274CDB
:10289000E80518D51A4A90698004810E00200CE0E2
:1028A0007A6C642A00D17E64154A12687B6CE2540B
:1028B0007A6C521C7A64401CC0B28842F0D31B4828
:1028C00001F0F4FA7E64E80617D50D4DA86980047E
:1028D000810E00200BE07A6C642A00D17E642A68A5
:1028E0007B6CE2547A6C521C7A64401CC0B2884201
:1028F000F1D30E4801F074FA7E64F8BD0000054083
:102900000040154038020020B000002041542B4305
:102910004950534855540D0D0A4552524F5200002C
:102920003B0B002000010050270A00209C020020E1
:1029300010B51348FFF789FC124CE12149022046EB
:1029400000F018F9A06830210843A060C821204693
:1029500000F054F96068E1140843606011212046DA
:1029600000F0DEF80221204600F0D6F806480021EB
:10297000C1808180FF212D310448FDF781FC10BD0D
:102980001000000400000540900000203B0B0020D8
:10299000F8B54048C16941680091C6690027F10552
:1029A000002915DA01683C4AC9B215464035D37B87
:1029B0003A4CAD6E00F09CF90F091F253134373ABF
:1029C0003D400B46494C4F530B005A290FD0D7734B
:1029D000009989070AD5B10508D52F4A20321188F8
:1029E0005588A94243D1022100F096F8F8BD012391
:1029F000D3732170ECE7A529E7D10223D37361706B
:102A0000E6E7062905D00529DFD10A23D3736172D1
:102A1000DEE70323D373A170DAE7E17004211CE041
:102A20002171052119E06171062116E0A1710721CC
:102A300013E0E171082110E021721749D77340318A
:102A4000802211E0A1720B2107E0E1720C2104E069
:102A500021730D2101E061730E21D173B8E7A173D9
:102A60000D49D7734031022215438D66B0E70C4EF5
:102A700000211488335D03603B46FF2C00D0631CAB
:102A80009BB21380AB42B1D0491CC9B20829F0D324
:102A9000F8BD00000000154070000020180A00205A
:102AA0000C09002010B50F48FFF7CFFB0E4CE121B9
:102AB0004902204600F05EF8C821204600F09EF84A
:102AC00060680121C902084360600121204600F0CE
:102AD00027F80221204600F01FF804480021418019
:102AE000018010BD1100000400001540900000207E
:102AF00010B50748FFF7A9FB064CE1214902204623
:102B000000F038F80121204600F00AF810BD00005E
:102B1000120000040040154042688A43426070473A
:102B200010B542680A4342600D49884209D00D49F8
:102B3000884203D10D20FFF7ADFA10BD0A49884243
:102B400001D10C20F7E70949884201D10F20F2E7B3
:102B50000749884201D11020EDE71120EBE7000082
:102B600000000540000015400040154000400540B1
:102B700000800540F0B51D4B04460D460FCB85B0D7
:102B80006E460FC61A484169806989018E0F00059B
:102B9000070F002020630320E060A068154908406B
:102BA000A060012E02D1FEF743F90190002D1BD049
:102BB000B10068464058791CFDF7B2FA064669082C
:102BC00040182946FDF7ACFA0B49801E884207D908
:102BD000E90070182946FDF7A3FA0009801E02E0FB
:102BE000032109070843606205B0F0BDAC41000055
:102BF000000200500FFFF0FFFFFF0000026A120A00
:102C000012020A43026241680122D202114341606A
:102C1000704718B501780022242916D1401C01788C
:102C20002A2901D04A40F9E741786C46217083781F
:102C300063700846FDF796FC04011846FDF792FC08
:102C40002018904201D1012018BD002018BD0000BD
:102C500010B5054C6160510001431801014380200B
:102C60000143216010BD0000004000400348C06DDA
:102C7000322801D80120704700207047B0000020A2
:102C800070B50C4C0025A388E1882A46FF2900D0A6
:102C90004A1C9A42F9D0084AFF29505400D04D1CD2
:102CA0000648E5804168890702D40221FFF738FF12
:102CB00070BD000090000020270A002000000540A1
:102CC00010B5094A074B518858540020FF2900D0FD
:102CD000481C508005484168890702D40221FFF74B
:102CE0001FFF10BD0C0900209000002000001540BF
:102CF00030B47446641E2578641CAB4200D21D4675
:102D0000635D5B00E31830BC184702E008C8121F7F
:102D100008C1002AFAD170477047002001E001C1C4
:102D2000121F002AFBD17047F0B5FF4E8FB0307CE8
:102D300000287ED1FD4D01462A5C04462C2A01D193
:102D4000491CC9B2022903D0601CC0B22F28F3D39A
:102D50002819407841286DD1002003AA2919C97883
:102D600030391154032801D1641CE4B2641C401CA6
:102D7000C0B2E4B20928F1D36A46907BEC490890CE
:102D80004843D27BEB4909924A4381186A46107C3A
:102D9000E94A504309186A46507C7D22D2005043CC
:102DA00009186A46907C6422504309186A46D07C10
:102DB0000A22504308186A46117D40183C21FDF74D
:102DC000C5F96A46117BDA4A0B4653436A46527B81
:102DD000D84F94467A439A188018C21706900792E3
:102DE00008980A225043099AD44B82180ED00A2020
:102DF00041436046081880001F58C01840683C21B5
:102E0000381A5043FDF78CF9381A05E00A2041437F
:102E1000604608188000185800210890099108465B
:102E20006A462919897930391154042804D1641C5F
:102E300001E0A2E15FE1E4B2641C401CC0B2E4B274
:102E40000A28EED3D078BA4948431179B94A514398
:102E500041186A465079B84A504309186A46907931
:102E60007D22D200504309186A46D079642250432B
:102E700009186A46107A0A22504308186A46517A9D
:102E800040183C21FDF762F96A461178AC4AA84B1C
:102E900051436A465278AB4C5A438B186A46917834
:102EA000A44A2546514359184718FB170A93A168AD
:102EB000E0682160606018350E910D90A968E8689F
:102EC000296068600C910B909F4A0023099908982B
:102ED000FDF780F9974A0023FDF74CF93A460A9B23
:102EE000FDF778F9934A0023FDF744F9E160A0600B
:102EF00004460991944A002307990698FDF76AF958
:102F00008C4A0023FDF736F9E960A860327B0A920B
:102F1000002A7ED08B4AB37C156952690792894A90
:102F200006951832176952690892022B55D02B4624
:102F3000079D099AE31AAA4104D2069B2A46099DD5
:102F40001C1B02E0069B099AE41A774BAA41E03366
:102F50009C65DA65089B0A46C41B9A411A4606D24C
:102F60003B1A71488A41E0300366426605E0C31BA4
:102F70006D489141E030036641666B49E031886DF0
:102F8000C96D02460B46FDF725F90D466F4904460B
:102F9000086E496E02460B46FDF71CF922184D419A
:102FA0006A485121C56682660020891AA84102D26A
:102FB0000120707402E0707C00281FD024210020C2
:102FC000891AA8411AD30A98032817D300207074CD
:102FD0005C48079A0699816008E00A9803280DD397
:102FE0000020B07470745748079A8560C2605548D5
:102FF000089918308760C16001203074514B0D99D9
:1030000018339A680E98DB68FDF7E4F84F4F0546D1
:1030100000E061E0F9640C46B8644A490B9B88689B
:10302000C9680C9AFDF7D6F87965386584460A4672
:103030003846737B016A406A002B0FD063461746FF
:103040005B1BA74130D367467D1B404BA2419D626D
:103050004919DA6250411962586244E063462746D2
:10306000EB1A974109D36346EB1A9441374FCA18BC
:10307000FC62BB6260413A6225E067467D1BA2416B
:10308000324B04469D62DA624F1B134694412F4A2D
:1030900004D3491B98411162506224E0691A8341AC
:1030A00053620120116215E06346EB1A274F9441E9
:1030B000FC622246CC1A0546BB6295413C4604D3CD
:1030C000C91A9041216278620DE0591A8241216249
:1030D00000207A62707306E01A4A099B14615361FA
:1030E0001832516110610A98401CC0B23073032835
:1030F00001D3032030730C4C307C154D2034002854
:1031000028D0124F03220023796A386AFDF762F84B
:10311000FF2291320023FDF72DF8796238620027F3
:10312000377380B2294623E050000020C8030020F6
:1031300040420F00A0860100102700000040000060
:1031400080969800800C002024B2010030010020FD
:103150005B070020B07C02280FD1F07C64280CD3E0
:1031600000270748B7740762476237732946384615
:10317000FDF76AFF0120207377750FB0F0BD0000E6
:1031800030010020D4B0FF480090FFF76BF8FE48F4
:1031900000250560FFF702F8FC4F3D60FFF762F87D
:1031A000FEF79EFAFDF7D6F83D60FFF7C1FBFFF78B
:1031B00079FCFFF79DFCFFF7F9F8FFF717F9FFF728
:1031C00035F9FDF7F5F80020FFF75CF8FEF78AF90E
:1031D000EF4C8107E06302D50121A16300E0A56304
:1031E0004021EB4E8843803EE063307CEF21084075
:1031F0003074E84900220098FDF7AAFB0098FDF71B
:1032000011FAFFF72FF800230720012219460002C8
:10321000FFF71EFDDD4900200860DF4DA86820276C
:10322000B843A86019204001FEF72CF9A86838437C
:10323000A860A06E01210843A066FEF73BF900F0EC
:103240007FFDF07BD54A81070029A16E01DA114389
:1032500000E09143A166410704D5327A02210A4376
:10326000327203E0317AFD22114031720007A06E04
:1032700002D51021084301E010218843A066A32154
:10328000C748FCF7FDFFC24C0322C6A1A069FCF7AA
:10329000DEFFA0690F22C4A1C01CFCF7D8FFA06903
:1032A0000722C5A16030FCF7D2FFA0690722C4A1A4
:1032B0006730FCF7CCFFA0690722C3A16E30FCF792
:1032C000C6FFA0690722C2A17530FCF7C0FFA06944
:1032D0000A22C1A17C30FCF7BAFFA0690822C1A173
:1032E0008630FCF7B4FFA0690822C0A18E30FCF73D
:1032F000AEFFA0690822BFA19630FCF7A8FFA06925
:103300000D21A130017000264670A5485A21DF30FA
:1033100001713B2444710C22B8A1801DFCF797FF7A
:103320009F484325DD30009005754D2747750B22DA
:10333000B6A11630FCF78BFF99480322B6A1FE30E8
:10334000FCF785FF96480C22FC30411C019144712A
:1033500086715A21C1710472A8A10930FCF777FF68
:1033600001990B220D754F75A8A1AC48FCF76FFFB2
:10337000AA480322AAA10B30FCF769FFA7485A21EB
:103380000A300290047146712230017144710C229E
:103390009AA1801DFCF75BFFA0480B222A30019008
:1033A0000575477599A11630FCF751FF9B4803221C
:1033B0009CA14B30FCF74BFF98485A214A300471CE
:1033C00046713E38017144710C228CA1801DFCF7BE
:1033D0003EFF02980B220575477590488BA120305F
:1033E0000290FCF734FF8D4803222B308EA103900E
:1033F000FCF72DFF01980C220471467187487FA1CC
:103400001230FCF724FF0B2280A10298FCF71FFF6B
:10341000032286A10398FCF71AFF80485A216930DD
:10342000C17104720C2275A10930FCF710FF7B48B2
:103430000B2269304575877574A11730FCF707FFBB
:10344000764803227AA18B30FCF701FF73480322F0
:1034500078A18E30FCF7FBFE7048032277A19230F2
:10346000FCF7F5FE6D4876A1893001900473467330
:1034700020380988C1850C2260A13030FCF7E7FEB6
:1034800070A101980988818364480B22A7305FA14D
:103490004E90FCF7DCFE614803226BA1B230FCF7D2
:1034A000D6FE5E480322B53068A14F90FCF7CFFEF0
:1034B0005A484BA1A93009888183FD3855210171F3
:1034C00044710C2266A1801DFCF7C1FE53480B22FB
:1034D00056380575477516304CA15390FCF7B7FE6A
:1034E0004E48032262A13538FCF7B1FE009854A182
:1034F0000471467149480988AB3081830C223FA191
:103500001E30FCF7A4FE45484EA1C93009888181D0
:103510000E300B223DA15190FCF799FE3F4804224A
:1035200054A1E230FCF793FE3C48052253A1E6305B
:10353000FCF78DFE39482AA1E9300988418040A175
:1035400009888180841C0C222CA1801DFCF77FFE41
:103550003CA00088208231480B22FD302BA15290E4
:10356000FCF775FE042247A14848FCF770FE474867
:10357000052242A1001DFCF76AFE444918A01F392C
:10358000008885E000001840004000400001005025
:10359000B000002090D00300404100500001000026
:1035A0003C0500205A3B0000494430303137303868
:1035B00031363030333B00004F503035303B000067
:1035C00057543130303B000046563036303B000017
:1035D00042563132303B00005248313233343536B6
:1035E0003B0000005253313233343B0053414646D6
:1035F00046463B005452464646463B00303030304B
:10360000303030303030303B000000003030313767
:103610003038313630303300424F44004F060020FE
:103620004E424F004E4C490048414C00494E51001B
:103630004C494D0030303030000000003030300058
:10364000553B0000525000004558450030303030A6
:10365000303030303030303030303030000000002A
:1036600030303030303030303030313B000000000E
:10367000534F53004D4D4F3B000000003030303071
:10368000300000004D4D433B000000005707002074
:103690000885FC4DFC486E82C660FC482C46203CE8
:1036A000509001272771687B012805D1F84881686F
:1036B0003A03514081606E73FEF7D4FDF54801680E
:1036C0002C22914339430160FCF766FFF248066003
:1036D000FDF73EFAEB48403840780028E1D0A88A50
:1036E00000287DD1687C022803D2FEF791F9687426
:1036F00035E2E4484038C07C002804D0A079012895
:1037000064D0002858D0DF484038007D002804D01D
:10371000A079022865D0002877D0DA484038407D6B
:10372000002804D0A07903286DD000286CD0D5489B
:103730004038807D002804D0A07904287ED000285D
:103740007DD0D0484038C07D002804D0A07905281D
:1037500076D0002874D0A87A002804D0A079062852
:103760006FD000286ED0C7484038807C002804D035
:10377000A079072867D0002865D0E87A002804D00F
:10378000A07909287ED000287CD0287B002807D08B
:10379000607D002804D0A0790A2874D0002872D057
:1037A0002079002807D0287C002804D0A079082898
:1037B0006AD0002869D0D2E1B24980224031C86B7A
:1037C0001043C86380B24F99FDF78CFCA77120228B
:1037D00068464E99FCF73BFD3022B04908A801E04D
:1037E0001DE21DE0FCF733FD08A80FC8FEF7FCF949
:1037F000687404287ED1A3484038417F394341771B
:10380000C674ABE101E03BE02CE09E49FF22403171
:10381000C86B01321043C86380B24F99FDF762FC58
:103820000220A071202268464E99FCF710FD30223C
:103830009A4908A8FCF70BFD08A805E050E041E014
:103840006DE0B8E082E0D4E00FC8FEF7CDF968740F
:1038500004284FD18B4802224038417F11434177E1
:1038600006757BE1874A01214032D06B890208430B
:10387000052149028843D06380B24F99FDF732FC9D
:10388000032003E0D2E0E7E00EE10BE1A07120228B
:1038900068464E99FCF7DBFC3022804908A8FCF70B
:1038A000D6FC08A80FC8FEF79FF96874042821D138
:1038B000744810224038417F1143F3221140417770
:1038C00046754BE16F4A01214032D06BC902084373
:1038D000032149028843D06380B24F99FDF702FC6F
:1038E0000420A071202268464E99FCF7B0FC3022DB
:1038F0006A4900E07CE008A8FCF7A9FC08A80FC80A
:10390000FEF772F96874042872D15E4808224038C4
:10391000417F1143EB221140417786751EE105205E
:10392000A071202268464E99FCF791FC30225B4939
:1039300008A8FCF78CFC08A80FC8FEF755F96874B6
:10394000042855D14F484038C67507E14D4801213C
:103950004030C06B4902084303218902884349492A
:103960004031C86380B24F99FDF7BCFB4B490A2236
:103970002739887FC97F3038504330380918474885
:103980000A23C01F027859433039511842785943ED
:10399000303952183B4940314A638178C278303916
:1039A0005943303951180A220079514330394018AF
:1039B0003449403908770620A071202268464E9984
:1039C000FCF745FC3022354908A8FCF740FC08A864
:1039D0000FC8FEF709F96874042809D1294904229F
:1039E0004039487F1043E72210404877AE72B5E077
:1039F0001BE00720A071102268465399FCF727FCB2
:103A000022492022B33104A8FCF721FC04A80FC8E6
:103A1000FEF770FA6874042801D0002805D119480F
:103A2000A671403886741E48688298E00920A0710B
:103A3000162268465199FCF70AFC184926223031B3
:103A400006A8FCF704FC06A80FC8FEF7E1F96874A5
:103A500004286CD1EE7281E00A20A071162268461B
:103A60005299FCF7F4FB0D492822563106A8FCF7C1
:103A7000EEFB06A80FC8FEF7CBF9687404286ED1D8
:103A80002E736BE070000020404200504C05002077
:103A9000404000500040004000010050E606002079
:103AA000AC260000FDF730FB0820A071FFF7DEF820
:103AB0009D4B18705E70FCF765FD9870FEF70EFB6D
:103AC000D8701A78012A00D1A77259788C4601293A
:103AD00000D1A7729978012900D1A772012800D1DD
:103AE000A772002A07D16246002A04D1002902D118
:103AF000002800D1A6728C489938006D032802DA9C
:103B0000A07A012814D0932268465099FCF79FFBB5
:103B1000A422864925A8FCF79AFB25A80FC8FEF722
:103B2000D3F86874687C042817D0002815D016E0F4
:103B3000932268465099FCF78AFBA4227B4925A86A
:103B4000FCF785FB25A80FC8FCF76EFC7649687466
:103B50009939086D401C0865E4E72E74A671607AF7
:103B600000285ED07248FCF7ADFB821E6E4870499B
:103B7000993880691230FCF76AFB66726D480069FB
:103B8000800423D5207D142834D3A07B00281BD1AA
:103B9000267465482673A7730021193801624162B3
:103BA00066738038C06C6049401C9939C86480B223
:103BB0006149FDF777FA5C485F499938C06C263156
:103BC00080B2FDF76FFAEF72A77416E02675A67340
:103BD000A07C012802D0002804D00EE0207C002820
:103BE00004D0A6746775267426730FE00220A074B3
:103BF000E67402E0A07C002808D0E07B0A2802D20C
:103C0000A07C022802D1E673FFF78EF84648993867
:103C100080691230FEF7FDFF002801D0677100E0D7
:103C20006671FF209130FDF72DFC444F6020396F05
:103C3000FEF756FB3D48396F2438C1606878082884
:103C400001D908206870C1B25020FEF731FBA97875
:103C50005120FEF72DFB3548A97824388171B978B9
:103C60005220FEF725FB3149B8782439C87128283D
:103C700001D22821E970782801D97820E870E97804
:103C80005520FEF715FB2D48816E5420FEF710FBE2
:103C90002A482649806E2439284F088380376420BB
:103CA000F96DFEF705FB2149F86D2439C8825A20C9
:103CB000F96EFEF7FDFA5B20396FFEF7F9FA5C202A
:103CC000796FFEF7F5FA5D20B96FFEF7F1FA384625
:103CD000803001686720FEF703FB14480A2134385E
:103CE0008068FCF733FA01467820FEF7E1FA1348C2
:103CF000007A8007114801D5C16F00E0816F7920FB
:103D0000FEF7EEFA0D4F0948B96F2438C161FCF790
:103D10005FFBB8791E2800D2C3E4F8790028FBD0F5
:103D2000FDF706FCFE71BCE4490100203C050020C3
:103D3000C803002040400050180700203000002039
:103D400010B5FEF78FFAFDF7CDFA094A0021116090
:103D50000849020C0B46803B4865DA73064A9042DC
:103D600005D9886E0822104388660520486510BD75
:103D700000010050B00000200F27000010B50F4CCC
:103D80006078002819D12046403003210078FCF7E4
:103D9000C7F901221E2801D36270402008495A2326
:103DA0000B70A5234B7003238B708023CB700A719B
:103DB00048710621024800F005F810BD30000020CF
:103DC0000C0A002070B505460E46002405E0287850
:103DD0006D1CFEF775FF641CE4B2B442F7D370BDEE
:103DE000F3B52C4C00252646203681B02A4F4034AE
:103DF0002DE0608BC72801D3002060830198618B80
:103E0000405D7854608B385C242804D0608B385C2B
:103E10000A280CD016E0002001463954401CC0B2DC
:103E2000C828FAD36183618B242078540AE038785B
:103E3000242810D0002001463954401CC0B2C828A4
:103E4000FAD36183608B401C60836D1CEDB20298D5
:103E50008542CED3FEBD11A10F48FCF71DFA002804
:103E60000BD0707A0028EDD10B494C220846C8309F
:103E7000FCF7EDF901207072E4E70AA10648FCF7AF
:103E80000BFA0028DED100213954401CC0B2C828EA
:103E9000FAD3D6E7300000200003002024474E4725
:103EA0004741000024474E524D430000F3B52C4CCF
:103EB00000252646203681B02A4F40342DE0608B05
:103EC000C72801D3002060830198618B405D78543E
:103ED000608B385C242804D0608B385C0A280CD0B6
:103EE00016E0002001463954401CC0B2C828FAD35D
:103EF0006183618B242078540AE03878242810D01C
:103F0000002001463954401CC0B2C828FAD361834E
:103F1000608B401C60836D1CEDB202988542CED34D
:103F2000FEBD11A10F48FCF7B7F900280BD0707A3D
:103F30000028EDD10B4944220846C830FCF787F928
:103F400001207072E4E70AA10648FCF7A5F90028F1
:103F5000DED100213954401CC0B2C828FAD3D6E7BC
:103F6000300000200003002024474E524D43000043
:103F7000244750565447000070B50E4C0546E08A61
:103F80000E46FF212D31884205D30B48FCF778F906
:103F90000020E08220830022074907E0A85CE38A32
:103FA000C854E08A401CE082521CD2B2B242F5D31F
:103FB00070BD0000700000203B0B002070B50E4C5F
:103FC0000546E08A0E46FF212D31884205D30B4875
:103FD000FCF756F90020E08220830022074907E021
:103FE000A85CE38AC854E08A401CE082521CD2B22A
:103FF000B242F5D370BD0000700000203B0B0020E2
:10400000A0860100908601006386010017860100EA
:10401000AC850100238501007C840100B68301008A
:10402000D2820100D0810100B0800100727F0100C6
:10403000167E01009D7C0100057B01005079010086
:104040007E7701008E7501008173010057710100B8
:10405000116F0100AE6C01002E6A01009267010031
:10406000DA64010006620100175F01000C5C0100C8
:10407000E6580100A65501004A520100D44E010045
:10408000444B01009B470100D7430100FB3F010067
:10409000053C0100F7370100D1330100922F0100E8
:1040A0003C2B0100CF2601004A220100AF1D010078
:1040B000FE18010036140100590F0100670A0100C3
:1040C000610501004500010016FB0000D4F5000069
:1040D0007EF0000015EB00009AE500000DE0000006
:1040E0006FDA0000BFD40000FFCE00002FC900002F
:1040F00050C3000061BD000063B7000057B100006D
:104100003DAB000015A50000E19E0000A198000055
:10411000FC8B00009A8500002C7F0000B578000021
:1041200035720000AB6B000019650000805E000076
:10413000DF57000037510000884A0000D4430000D8
:104140001B3D00005D3600009A2F0000D4280000BF
:104150000B2200003F1B000071140000A10D0000A5
:10416000D1060000000000000000000030313233B2
:104170003435363738394142434445464748494A41
:104180004B4C4D4E4F505152535455565758595A07
:104190006162636465666768696A6B6C6D6E6F7097
:1041A0007172737475767778797A0000001BB700A6
:1041B000000000000000000000805101001BB7005B
:1041C000000000000000000000805101001BB7004B
:1041D000000000000000000000805101000000000D
:1041E000040000000C00000024000000000000009B
:1041F000040000002C00000000000000000000008F
:10420000040000002C00000000000000001BB700AC
:10421000000000000000000000000000000000009E
:104220001027000000000000008051012B43524580
:10423000473A20302C310D0A0D0A4F4B0D0A006110
:10424000740D0D0A4F4B0D0A0041542B4353545427
:104250003D22434D4E4554220D0061742B6369701D
:104260006D75783D310D0041542B434950535441F5
:1042700052543D302C22544350222C223137312EBF
:10428000382E3232352E323436222C383030330D3F
:104290000061742B637265673F0D0041542B4343EB
:1042A00049440D0041542B43494943520D004154A8
:1042B0002B43494653520D0041542B434950534818
:1042C00055540D0061740D0041542B434950534522
:1042D0004E443D302C003E0053454E44204F4B0091
:1042E000434F4E4E454354204F4B00000C430000BB
:1042F00000000020340200000A2D000040450000AC
:10430000340200207C0E00001A2D000080F0FA021A
:104310003200000080F0FA02001BB700000000002D
:1043200080F0FA02102700000000000000000000EA
:1043300000000000008051010000000000000000AB
:1043400000321E0000050000000000000000000018
:10435000000000000000003200000000000000002B
:10436000000000000000000000000000000000004D
:10437000000000000000000000000000000000003D
:10438000000000000000000000000000000000002D
:10439000000000000000000000000000000000001D
:1043A000000000000000000000000000000000000D
:1043B00000000000000000000000000000000000FD
:1043C00000000000000000000000000000000000ED
:1043D000000000003C0500204433221100000000D2
:1043E000000000002308002000000000F1109109E7
:1043F00000000000000000000000000000000000BD
:1044000000000000000000000000000000000000AC
:10441000000000000000000000000000000000009C
:10442000000000000000000000000000000000008C
:10443000000000000000000000000000000000007C
:10444000000000000000000000000000000000006C
:10445000000000000000000000000000000000005C
:10446000000000000000000000000000000000004C
:10447000000000000000000000000000000000003C
:10448000000000000000000000000000000000002C
:10449000000000000000000000000000000000001C
:1044A000000000000000000000000000800000008C
:1044B00000000000000000000000000000000000FC
:1044C00000000000000000000000000000000000EC
:1044D00000000000000000000000000000000000DC
:1044E000000000000000000000000000C4420000C6
:1044F000B84200005A4200009142000049420000C8
:10450000A4420000AE4200009B420000674200004F
:10451000C84200003F420000E84200004442000060
:104520002C420000E8420000E84200004642000041
:10453000E8420000E0420000D6420000D8420000FD
:04000005000000D522
:00000001FF
