:020000040000FA
:10000000B0100020D5000000F5000000F70000004F
:1000100000000000000000000000000000000000E0
:10002000000000000000000000000000F9000000D7
:100030000000000000000000FB000000FD000000C8
:10004000FF000000FF00000039150000FF00000065
:1000500011160000FF000000FF000000FF0000007C
:10006000F9240000A9250000B52500003D27000067
:100070006127000015290000FF000000FF000000BC
:10008000FF000000FF000000FF000000FF00000074
:1000900095050000FF000000FF000000FF000000C9
:1000A000FF000000FF000000FF000000FF00000054
:1000B000FF000000FF000000FF000000FF00000044
:1000C0000348854600F034F9004800470931000034
:1000D000B01000200A480B4901600B4901600B4930
:1000E00001600B4A0B491160002101600A488047FA
:1000F0000A480047FEE7FEE7FEE7FEE7FEE7FEE709
:1001000000010050590000001600000088000000A7
:1001100024000050A55A000061230000C100000027
:1001200030B50B46014600202022012409E00D468F
:10013000D5409D4205D31D469540491B2546954017
:1001400040191546521E002DF1DC30BD70B500245B
:100150002546002801DA01244042002901DA012560
:100160004942FFF7DDFFAC4200D04042002C00D0F6
:10017000494270BDF0B51FB40646002082B0054666
:100180004024019100901BE0019922460F46304621
:1001900000F0BDF8049A059B801A994110D31046CF
:1001A0001946224600F0A3F8361A8F4101972246DD
:1001B00001200021009F00F09AF838184D4100906E
:1001C0002046641E0028DFDC019B00982946324649
:1001D00007B0F0BDF0B51FB486B0002000900190CC
:1001E00002900698069980B204900798090C0204C0
:1001F0000014114307900027089D099806913E4678
:100200003C4603900398A9B20204000C03900498A2
:100210002D0C154348430021224600F068F8C71909
:10022000714110340E46402CECDB3846029A00F047
:100230005EF8009A019B8018009059410298019144
:10024000103002904028CCDB00980BB0F0BD034684
:100250000B439B0703D009E008C9121F08C0042AFA
:10026000FAD203E00B78491C0370401C521EF9D2ED
:100270007047D2B201E00270401C491EFBD27047A9
:100280000022F6E710B5044608461146024620460D
:10029000FFF7EFFF204610BD30B50EE003460A46DB
:1002A00001E05B1C521C1C781578AC4201D1002C7B
:1002B000F7D12A06120E04D0401C0278002AEDD194
:1002C000002030BD0146002000E0401C0A5C002AEE
:1002D000FBD1704730B504460020034600E05B1CAC
:1002E000934203D2E05CCD5C401BF8D030BD10B52A
:1002F000202A04DB0146203A9140002010BD9140A5
:1003000020239C1A0346E3401943904010BD10B5CA
:10031000202A04DB0846203AD040002110BD0B46BD
:10032000D340D0402024A21A91400843194610BD62
:10033000064C0125064E05E02046E36807C82B431E
:1003400098471034B442F7D3FFF7BEFEAC4100002B
:10035000CC4100000B484168A322120411434160C4
:1003600005200007026BA3218A430263026B0A4344
:100370000263002181620448026A01210A43026289
:10038000016370470040005000000E4030B5064841
:10039000046A064D2C400C4314430462416A090A66
:1003A00009021943416230BD00000E40F3FBFFFF1C
:1003B00010B50648AA210170BB214170012181704E
:1003C000C170042103F05EFC10BD00000C0A002087
:1003D000F8B5002426462546002001F04BFE641C9B
:1003E0008619E4B20A2CF7D3FF205527C6303F0305
:1003F00070433946FFF794FE094E0024B067012090
:1004000001F038FE641C4519E4B20A2CF7D3054804
:1004100039466843FFF784FE0930B065F8BD000037
:10042000B0000020510C00000FB4F8B5454C06A8F0
:100430000090E07F2546274600262035E03700283B
:1004400017D041A14248FFF727FF002865D0FF21C0
:100450002D313F48FFF714FFEE82E6772046A6775E
:1004600060304661FE60A6720420F8BC08BC04B08F
:100470001847A07F002841D03648416A3448FFF72A
:100480000BFF002836D002F0B3FB324D3030C33DB5
:1004900028703020687000F077F83030A87001F0D4
:1004A00003FE3030E870012000F0D2FF2AA001F0F6
:1004B00077FB0098C01C01F073FB0098123001F02C
:1004C0006FFB26A001F06CFB284601F069FB681C5D
:1004D00001F066FBA81C01F063FBE81C01F060FB67
:1004E000281D01F05DFB1EA001F05AFB0120E07702
:1004F000FE6024E0FF21F531F86811E01548283846
:10050000406A01F04DFB17A001F04AFB14A001F076
:1005100047FB0120FE60A07711E07D21F868C9004B
:1005200088420CD3FF212D310948FE60FFF7A8FE59
:10053000EE82E6712672E677A677002095E7032023
:1005400093E700005000002053454E44204F4B00DD
:100550003B0B002008020020583B00003B0000003D
:100560000D0000003839000001463039092901D852
:10057000C8B2704701464139052902D83738C0B2A0
:100580007047FF20704700000148806F00207047CF
:10059000B000002070B5144C21690120C0038142D5
:1005A0000ED16068C00603D5606810218843606082
:1005B0006068000703D5606808218843606070BDEB
:1005C0004A1E15461F2A07D8204600F027F9E9B22F
:1005D000204600F0B6F870BD0448C16A0129FAD17E
:1005E0000021C16270BD00000000184040011840A9
:1005F00010B50446062100F0C0F828490868020A30
:100600001202802002430A60142001F01FFD244BD7
:1006100001220021204600F02FFA00283DD00122BF
:10062000204B1146204600F027FA002835D01E4BFB
:1006300001220221204600F01FFA00282DD01B4B7A
:1006400001220321204600F017FA002825D0184B7C
:1006500001220421204600F00FFA00281DD0154B7E
:1006600001220521204600F007FA002815D0124B80
:1006700001220621204600F0FFF900280DD00F4B83
:1006800001220721204600F0F7F9002805D00C4B85
:1006900001220821204600F0EFF910BD14E400E02B
:1006A0000004F00C00EFFE1800EEFE1800CAFE1861
:1006B00000E5FE1800FFFE180001FD1800FFEC1811
:1006C00000FFEB1810B50246803293691B0401D479
:1006D000002010BD43681024A343436033205060C2
:1006E0005069400405D4002008605069C004400DE2
:1006F00007E0012008605069C004C00888601369E1
:100700001843886050698004C017401C4860906995
:100710000007000F0873D0694873D069000A887316
:10072000106AC873106A000A0874506A4874506AE4
:10073000000A8874906AC874906A000A08750120DB
:1007400010BD70B500230446803401251A462D07DC
:10075000066A360401D4002307E02668360401D473
:10076000012302E0521CAA42F2D360240C2263430C
:1007700018184262491C016270BD10B50B46044650
:1007800000F014F82068F12108409907C90F4900CA
:1007900008435907C90F890008431907C90FC90041
:1007A00008432060204600F031F810BD01680122A6
:1007B000114301600168402211430160704700004D
:1007C00070B5C16809050C0FC16849044D0FC168B7
:1007D00080698906890E800101430548491C00682B
:1007E000FFF79EFC6119C91CFFF79AFC70BD000061
:1007F00000000020FF3001300122102901D2006AE0
:1008000001E0406A10398A40104070470168412277
:10081000914301600168C907FCD17047F8B53C4CB1
:100820000B46214640310126002502F023FA0A6FCB
:10083000060A0E12171B1F262A6F4E7365710127B9
:1008400022E04E73657102271EE04E736571032727
:100850001AE04E736571E570042715E04E736571FB
:10086000052711E04E73657106270DE04E73284988
:100870002031CE706571072706E04E736571082739
:1008800002E04E7365710927224A791E00F09AF83A
:10089000214B0020F900C9181E4A1218527B0A5435
:1008A000401CC0B20828F7D31B4A4032082F10D191
:1008B0005079CA282AD125712676002016490918B0
:1008C00040314B78144950310B54401CC0B20728BA
:1008D000F4D3092F1AD1207E002817D00E4B257192
:1008E0005033127A9878904200D12576D5000020B6
:1008F0000949AA1AD3180A184032527A1A54401CCD
:10090000C0B20728F7D3207A30432072F8BD000028
:1009100030000020DC080020CC07002070B5044621
:10092000154600F063F8012D05D12168802211439E
:1009300021600421616170BD70B504460D46164604
:10094000FFF758FF00283CD06068102188436060A2
:10095000002E01D0042000E000207830032108435D
:10096000803460606D1C256020680004FCD46069E0
:10097000400405D4002018606069C004400D06E002
:100980000120186060692169C004C00808439860AC
:10099000A0690007000F1873E0695873E069000A46
:1009A0009873206AD873206A000A1874606A5874B1
:1009B000606A000A9874A06AD874A06A000A187560
:1009C000012070BD10B50B4611460268120605D510
:1009D0004269520702D5FFF775FE10BDDCB20B4627
:1009E00001222146FFF7A8FF10BD0000F8B50F4611
:1009F0000646FFF7DBFE01F06BFC1E4802240125D2
:100A000039460068FFF78CFB07466119C91C384658
:100A1000FFF786FB002911D0072C01D26D1CEDB227
:100A20006119C91C3846FFF77BFB002906D00F2C43
:100A300002D2641CE4B2E8E70224012561193846B9
:100A4000C91CFFF76DFB29032202401E11438206D9
:100A5000920E1143F268C0231A401143F1608005E1
:100A6000000FB0613046FFF7D1FE3046FFF7A8FE19
:100A7000F8BD000000000020FFB50024012781B070
:100A80000D4616463F0705E0641CBC4202D3002019
:100A900005B0F0BD01230093F2B2E9B2049B0198C6
:100AA00000F004F80028EFD00120F1E7FFB581B095
:100AB00007460D4616461C4600F064FFC0B20228E9
:100AC00019D06022F3215043C01941620021002E49
:100AD00014D0A2B20263E200D20C03239B03D2180B
:100AE00042630522920282630A9B8022002B836B61
:100AF0000AD0134309E0002005B0F0BD0163620590
:100B0000D20C0123DB03EAE793438363C1630164EF
:100B1000416481646D1C05620120EDE7F8B53C4D30
:100B20003C4C687932280FD300210A460020CB00C4
:100B30001B191A54401CC0B20828FAD3491CC9B268
:100B40000A29F3D32820207632480A22017BC07A72
:100B5000090201433048A96600F021FFC0082F496F
:100B6000A866884200D9A966294EE07C40363746FF
:100B7000B07040377968142802D20122114301E095
:100B8000490849007960FA2801D9FA20B070C1B249
:100B900021480A22503000F002FFC0B20521FFF7C1
:100BA000BFFA4000B0701C48217EA9700A2228308C
:100BB00000F0F5FEC0B2A870282801D9283800E05E
:100BC0000020A870F0701348203001794A09C178DC
:100BD00012021143827809020A43FA65C27A817AC5
:100BE00012021143427A09020A43017A12021143A6
:100BF0004908E966007C8007800F0128287C03D023
:100C0000F72108402874F8BD08210843FAE70000DE
:100C100030000020CC07002090040020B80B00001A
:100C20001FB50A4C10341ECC03946C460EC4810FC1
:100C30008A0069468A58064951184A68C306DB0E7D
:100C40000120984002434A601FBD00009C40000004
:100C500000020050F0B507000C46564885B05449D4
:100C60000162554E016813D0042211430160102027
:100C700000F082F90120C00402905048042503903E
:100C80004F485049201888420DD8002004901CE09D
:100C9000012211430160104600F06EF90020022588
:100CA00003960290ECE7484848492018884203D848
:100CB00001206400049008E0454845492018494255
:100CC000884249D80320A40004900026F64300205F
:100CD0000090019021E029460398FFF721FA3D4951
:100CE0003D4A4118914217D2364F02227F1C344BA5
:100CF000014651435B1CCB18BB4209D80B1BA142D8
:100D000000D8631AB34203D21E000095019203D0AB
:100D10003249521C8A42EAD96D1C212DDBD9049834
:100D20000299800308430099012249029202891A1C
:100D300008430199891E08431E490862042000F0F7
:100D40001BF904990098491C41430398FFF7E8F9FF
:100D50000199484305B0F0BD002F0FD02049154838
:100D60000162042000F008F91EA0006800901148FC
:100D7000016A0013014203D00020EBE71A49EEE7B5
:100D8000080300D50D4E880301D53046E2E708047C
:100D9000800F6A46105CCA058904C90E891CD20DF1
:100DA0004143921CB0085043FFF7BAF98000D1E7E5
:100DB0000000010000020050001BB700008051013C
:100DC000FF1E0AFAFFE0F5057F0F05FD7FF0FA022E
:100DD000C08782FEFF95E7FFBF77CC0001020000CD
:100DE0006FD60000010202042EC2000002490A6808
:100DF00002430A60704700000002005008B511A0CD
:100E0000006800901048016A0013014201D00020E0
:100E100008BD080301D50D4800E00D488A03F7D44A
:100E20000A04920F6B469B5CCA058904D20DC90E59
:100E3000921C891C800859435043FFF771F98000C8
:100E400008BD0000010202040002005000805101B0
:100E5000001BB700F8B51C4D0446EE681020064094
:100E60001A48844202D84010844200D204462868BE
:100E7000042738432860102000F07EF828690721F5
:100E800008432861A86900090001A8612868C00713
:100E900005D061000020FFF7DDFE044608E00120D8
:100EA0006100C004FFF7D6FEEE680446102006403D
:100EB0000121022000F00CF8002E02D12868B8436E
:100EC00028606008F8BD00000002005080F0FA02BF
:100ED00070B5104CE56810262268354004231A438B
:100EE0002260E268D206FCD5226907231A432261F8
:100EF000A269120912010A43A261216999430143BF
:100F0000216101F0E5F9002D02D12068B043206095
:100F100070BD0000000200507FB5154E78CE0396DC
:100F20006E4638C6840A23061B0E0CD003039B0FA3
:100F3000104D9B005B19E5B28405E40EA5401C68CA
:100F4000AC4314431C60420E520710D08200920F33
:100F500092006B469A58074B083BD21803015B0F6F
:100F6000C001C00E834010689843084310607FBDE5
:100F70009C4000001802005010B504460749084A7A
:100F800005E00B46491E002B01DC002010BDD36894
:100F900020469843F5D1012010BD0000804F12007B
:100FA0000002005070B50D46411E1446032901D3BE
:100FB000002070BD032809D002281AD00A21284633
:100FC000FFF7AEF830312170012070BD6421284652
:100FD000FFF7A6F83030207008460A21FFF7A0F886
:100FE000303060700A212846FFF79AF83031A1703E
:100FF000EAE764212846FFF793F808460A21FFF73D
:101000008FF8303020700A212846FFF789F83031F8
:101010006170D9E770B50C4605461449FFF780F8B2
:10102000303020707D260846F6003146FFF778F80C
:101030003030607031462846FFF772F80846642168
:10104000FFF76EF83030A07064212846FFF768F88B
:1010500008460A21FFF764F83030E0700A2128467C
:10106000FFF75EF83031217170BD000010270000DD
:1010700070B50C467D210546C900FFF751F83030A8
:10108000E07108466421FFF74BF83030207264218C
:101090002846FFF745F808460A21FFF741F83030A7
:1010A00060720A212846FFF73BF83031A17270BD0B
:1010B00070B5002201263124302533469340034287
:1010C00001D08C5400E08D54521CD2B2102AF4D3BB
:1010D00070BD000070B5464C464D20680121C2B27B
:1010E000A8699030FFF7C5F8206801210004020EBE
:1010F000A8699130FFF7BDF8206801210002020EB7
:10110000A8699230FFF7B5F820680121020EA8699E
:101110009330FFF7AEF800F051FF218BE120000182
:10112000814200D92083A079642801D96420A0716C
:10113000E079782801D97820E071207A082801D94F
:10114000082020722C48E168814200D9E060208BA1
:101150002A49FEF7E5FF7D260846F6003146FEF7F0
:10116000DFFFAA69014688320120FFF71BFF208BB1
:101170003146FEF7D5FFAA6903208932FFF712FF37
:10118000AA69A17962320320FFF70CFFAA69E1790D
:1011900069320320FFF706FFAA69217A7032032023
:1011A000FFF700FF1449E068491CFEF7B9FF084645
:1011B0003146FEF7B5FFAA6981B27E320320FFF700
:1011C000F1FE3146E068FEF7ABFFAA6903208132E9
:1011D000FFF7E8FEE18AFF206930814200D9E08212
:1011E000AA69E18A77320320FFF7DCFE70BD0000B8
:1011F00018050020B00000203F420F00102700001B
:1012000006492222CA60486001200861BFF36F8F3F
:1012100008690028FCD108687047000000C0005031
:1012200006490022CA60486001200861BFF36F8F41
:1012300008690028FCD188687047000000C0005091
:10124000F0B50C4E0546002330681C4601210843CA
:1012500030607F27BF02D819FFF7E2FFA100641CAE
:101260001B1D6850E4B2142BF5D3306840084000D1
:101270003060F0BD00C00050F0B50C4D002428686F
:101280002346012108432860F92676024F02981967
:10129000FFF7C6FF411C03D01B1D0446BB42F6D31B
:1012A00028684008400028602046F0BD00C000507B
:1012B000F0B50C4D0024286823460121084328601E
:1012C0001F2636034F029819FFF7AAFF411C03D0CF
:1012D0001B1D0446BB42F6D3286840084000286026
:1012E0002046F0BD00C00050F0B50C4D0024286829
:1012F00023460121084328603F26F6024F02981931
:10130000FFF78EFF411C03D01B1D0446BB42F6D3E2
:1013100028684008400028602046F0BD00C000500A
:10132000F0B50C4D002428682346012108432860AD
:10133000FD2676024F029819FFF772FF411C03D079
:101340001B1D0446BB42F6D32868400840002860B5
:101350002046F0BD00C00050064A2123D3605060F3
:10136000916001201061BFF36F8F10690028FCD1DC
:101370007047000000C00050F0B50C4F0646002436
:1013800038682546012108433860A80031587F207D
:1013900080022018FFF7E0FF6D1C241DEDB2142C15
:1013A000F3D33868400840003860F0BD00C00050FA
:1013B000F0B5104E07463068002301210843306025
:1013C0004D02F92464021819FFF72AFF401C02D0CD
:1013D0001B1DAB42F7D3AB4203D12046FFF710FFF2
:1013E000002339461819FFF7B7FF3068400840005E
:1013F0003060F0BD00C00050F0B5104E07463068B8
:1014000000230121084330604D02FD2464021819B5
:10141000FFF706FF401C02D01B1DAB42F7D3AB42C7
:1014200003D12046FFF7ECFE002339461819FFF7D9
:1014300093FF3068400840003060F0BD00C00050AD
:1014400002490020401C8842FCD37047760400000B
:1014500000B50346002202E0FFF7F2FF521C9A4259
:10146000FAD300BD10B5044600F0D8FE2046FFF7C1
:10147000E7FE024A00211160204610BD0001005025
:1014800010B500F0CBFEFFF7F7FE0649064A002430
:101490000867904203D900200C67FFF789FF0348D3
:1014A000046010BD300000209F8601000001005044
:1014B00010B500F0B3FEFFF717FF024A00211160DC
:1014C00010BD00000001005010B500F0A7FEFFF7AE
:1014D00027FF024A0021116010BD000000010050EA
:1014E00010B5044600F09AFE2046FFF745FF02497A
:1014F0000020086010BD00000001005010B500F091
:101500008DFE0448006FFFF753FF03490020086079
:1015100010BD0000300000200001005010B504464E
:1015200000F07CFE2046FFF767FF024900200860BC
:1015300010BD000000010050012005498003086231
:101540000448806B002801D103498871704700006E
:101550004040005040420050300000200FB470B5B1
:1015600004AC2046FEF7AEFE0546E01CFEF7AAFEE0
:101570002D1820461230FEF7A5FE2D1820466030AB
:10158000FEF7A0FE2D1820466730FEF79BFE2D18B3
:1015900020466D1C6E30FEF795FE064620467530DF
:1015A000FEF790FE361820467C30FEF78BFE301892
:1015B000451920468630FEF785FE40190F30C5B22A
:1015C0007D21C9002846FEF7ABFD08466421FEF7E1
:1015D000A7FD0E4C3030207064212846FEF7A0FD98
:1015E00008460A21FEF79CFD303060700A2128462B
:1015F000FEF796FD3031A1700D20E07000202071C3
:10160000204670BC08BC04B0184700004001002010
:1016100010B5FF201749013008621748006A0028FA
:1016200026D116480168491C016080681449884227
:101630001EDA1449144B487B0022401CC0B2487388
:101640000C2806D34A73C86F401CC867984200D361
:10165000CA67486F0D4C401C4867A04208D34A67D0
:10166000886F0124401C8867CC72984200D98A6731
:1016700010BD0000404000504042005008050020CE
:10168000B80B0000300000203F420F006C2D00001E
:1016900010B58369140E8C4023438361C369120221
:1016A000120A8A401343C36110BD0000F8B505203B
:1016B0000007406B05218008800009074863486BDC
:1016C00003210843052109074863486B30218843FB
:1016D000052109074863486B3021084305210907A4
:1016E0004863C86B03218903884305210907C86340
:1016F000C86B03218903084305210907C863C86B28
:10170000C021884305210907C863C86BC02108436D
:1017100005210907C863002201218B4800F01EF94A
:1017200000220221884800F019F90022042186488D
:1017300000F014F903220821834800F00FF9834DCB
:101740000024EC60032210217F4800F007F92C618F
:10175000002220217C4800F001F9032240217A4830
:1017600000F0FCF8AC6100228021774800F0F6F828
:10177000FF2103220131744800F0F0F82C620121AE
:1017800000224902704800F0E9F8012291026E48F7
:1017900000F0E4F8AC6201210022C9026A4800F0BE
:1017A000DDF8012103220903674800F0D7F801267C
:1017B0002E6303227103644800F0D0F86E630022A8
:1017C000B103614800F0CAF80122D1035E4800F07D
:1017D000C5F8EC635C4F002240370121384600F029
:1017E000BDF800220221384600F0B8F80322042197
:1017F000384600F0B3F8554D4035AC600122082161
:10180000384600F0ABF8EC6000224021384600F08A
:10181000A5F800228021384600F0A0F803227102CA
:10182000384600F09BF86C6200223103384600F025
:1018300095F8474A0C213846FFF72AFF43493A20DA
:10184000803908607869310308437861042000F02A
:10185000FDFB0022B103384600F080F80322F103BB
:10186000384600F07BF8EC63374F032280370121C4
:10187000384600F073F8354D80352E600322022182
:10188000384600F06BF86E6000220421384600F004
:1018900065F803220821384600F060F8EE60012266
:1018A0004021384600F05AF8AC61032280213846C6
:1018B00000F054F8EC6103223102384600F04EF893
:1018C0002C6203227102384600F048F86C62032251
:1018D000B102384600F042F8AC620322F102384609
:1018E00000F03CF8EC620322B103384600F036F811
:1018F000AC630322F103384600F030F8EC630222B7
:101900002021144800F02AF813484661114C0022A7
:1019100040341021204600F021F8002220212046EA
:1019200000F01CF80A4A05212046FFF7B1FE606965
:10193000202108436061052000F088FB002231026D
:10194000204600F00BF8F8BD004000500042005067
:10195000010001000041005000430050F0B5002399
:1019600001273C469C400C4208D005685C000326D9
:10197000A640B5431646A640354305605B1C102BB8
:10198000EFD3F0BD016A090401D400207047803014
:101990000068000401D40120704702207047F8B5A8
:1019A0000E4604461146551E00209200171905E008
:1019B0008200BB1A403B9A6B401CDA63A842F7D303
:1019C00000200346266003E09A00A25810185B1C12
:1019D0008B42F9D3FEF7A4FBF8BD0000F8B5654CC7
:1019E0000026E079254620350090282872D2207AFA
:1019F0002746E03700280FD1FF212D315E48FEF742
:101A00003FFCEE82009839468000B031085800F063
:101A1000C7F801202072FE60E079584903286AD097
:101A2000800009585448FEF737FC002807D00120F1
:101A3000FFF70EFD2672E079072810D034E07D20F4
:101A4000F968C000814278D3FF212D314A48FE60F9
:101A5000FEF716FCEE820A20FFF7FAFC7AE048A1B6
:101A60004548FEF719FC00281ED0434A0021143ACD
:101A7000837A5354491C401CC9B21429F8D3FFF788
:101A800023FD3C4F6037B8643F48FFF7EBFCB86C70
:101A9000002820D03849142214393B48FEF71AFC9C
:101AA000002826D00120E072FF212D313248FEF7B8
:101AB000E7FBEE820A20FFF7CBFCE079401CC0B2C6
:101AC000E07109284AD32B48267260304661012014
:101AD000207130E046E00120B864FFF71FFD264981
:101AE000142214392848FEF7B2FB2748FFF7F8FC08
:101AF000DAE7E672D8E7C9681F48FEF7CDFB002891
:101B000005D122A11C48FEF7C7FB002816D00120F2
:101B1000FFF79EFCFF2126722D311748FEF7B0FB20
:101B2000EE82E079401CC0B2E071092818D3114858
:101B300060304661FE600220F8BD0FE07D20F9684C
:101B4000C00081420AD3FF212D310B48FE60FEF711
:101B500097FBEE82E67126720020EDE70120EBE7AD
:101B6000FE60FBE7FF212D310348FEF789FBEE8283
:101B7000E671F1E7500000203B0B00200802002036
:101B800041542B4343494400680C00202B435245E9
:101B9000473A20302C320D0A0D0A4F4B0D0A000037
:101BA00010B5044602E0641C01F02CF820780028EF
:101BB000F9D110BDF8B53248324C00903248617FFF
:101BC0002546074600262035D83F002913D0816AD4
:101BD0002E48FEF761FB00283DD0FF212D312B4818
:101BE000FEF74EFBEE826677204626776030466130
:101BF0000420FE60F8BD217F002916D0416A2348E9
:101C0000FEF74AFB00280CD00120FFF721FC0098CA
:101C1000FFF7C6FF1EA0FFF7C3FF01206077FE603D
:101C20002BE0FF21F531F86818E017482838406AA2
:101C3000FFF7B6FF14483021C838017034214170D5
:101C4000382181700D21C1700671FFF7A9FF0120B5
:101C5000FE60207711E07D21F868C90088420CD32E
:101C6000FF212D310948FE60FEF70AFBEE82E67186
:101C70002672667726770020F8BD0320F8BD0000A5
:101C8000DF05002050000020080200203B0B002050
:101C90000D0000000FB4F0B5494CA5B0E07D26461C
:101CA000002720362AAD002818D046A14748FEF765
:101CB000F3FA00286ED0FF212D314448FEF7E0FAF8
:101CC000F782E7752046A775603047618030C760AE
:101CD000042025B0F0BC08BC04B01847A07D002843
:101CE00042D03B48416A3948FEF7D6FA002835D041
:101CF0002846FFF755FFE81CFFF752FF2846123031
:101D0000FFF74EFF33A0FFF74BFF28466030FFF789
:101D100047FF28466730FFF743FF28466E30FFF73E
:101D20003FFF28467530FFF73BFF28467C30FFF722
:101D300037FF28468630FFF733FF28468E3000F005
:101D400031F92846963000F02DF923A0FFF728FF3F
:101D50000120E0751E48D838C7602FE01C48FF22DC
:101D6000D838F532C1681AE019482838406AFFF7B8
:101D700017FF93222EA96846FEF769FA2AA80FC812
:101D8000FFF7ECFBFFF70CFF1148D838C7600120C4
:101D9000A07513E00E487D22D838C168D200914268
:101DA0000CD3FF21C7602D310848FEF769FAF7828E
:101DB000E7712772E775A77500208AE7032088E797
:101DC0005000002024474E524D4300003B0B0020A2
:101DD000080200203B0000000D0000000FB4F8B521
:101DE00006A8334C00903348E17E2546074600267E
:101DF0002035D83F002916D0816A2F48FEF74CFACB
:101E0000002840D0FF212D312B48FEF739FAEE8211
:101E1000E6762046A676603046610420FE60F8BC77
:101E200008BC04B01847A17E002916D0416A224898
:101E3000FEF732FA00280CD00120FFF709FB0098CA
:101E4000FFF7AEFE1DA0FFF7ABFE0120E076FE60BF
:101E50002BE0FF21F531F86818E016482838406A71
:101E6000FFF79EFE13483021C838017033214170BE
:101E7000382181700D21C1700671FFF791FE01209C
:101E8000FE60A07611E07D21F868C90088420CD37D
:101E9000FF212D310848FE60FEF7F2F9EE82E6716F
:101EA0002672E676A6760020B9E70320B7E70000A1
:101EB00050000020080200203B0B00200D00000015
:101EC0000FB4F8B506A8334C00903348617E254620
:101ED000074600262035D83F002916D0816A2F48B2
:101EE000FEF7DAF9002840D0FF212D312B48FEF70C
:101EF000C7F9EE8266762046267660304661042079
:101F0000FE60F8BC08BC04B01847217E002916D03A
:101F1000416A2248FEF7C0F900280CD00120FFF7E3
:101F200097FA0098FFF73CFE1DA0FFF739FE01204D
:101F30006076FE602BE0FF21F531F86818E0164866
:101F40002838406AFFF72CFE13483021C83801704A
:101F500033214170322181700D21C1700671FFF76C
:101F60001FFE0120FE60207611E07D21F868C90087
:101F700088420CD3FF212D310848FE60FEF780F91E
:101F8000EE82E6712672667626760020B9E7032097
:101F9000B7E7000050000020080200203B0B0020A3
:101FA0000D00000070B50546002428786D1C00F077
:101FB00029FE641CE4B2072CF7D370BD70B5214E26
:101FC0000025307A3446C1078034A069803000296A
:101FD0001FD01D4909882162062919D3891E8A0844
:101FE00062620276B17E491CCBB2B37693420CD8C2
:101FF000A46A99000919C91EF41DF93461604C786E
:1020000044768C788476C978C176934200D1B576CF
:1020100070BD0D49B57630390A79CB785209120274
:1020200013438A781B021A43E26502D0012202762A
:1020300000E005768A784276CA7882760979C17698
:1020400070BD0000300000201C080020C106C90E31
:1020500001208840014908607047000000E100E06D
:10206000C106C90E01208840014908607047000080
:1020700000E100E070B5012633460A4C0546834076
:10208000002211462046FEF781F9206AF10208433A
:102090002062206BC007FCD0A800001900682663EE
:1020A00080B270BD00000E400248C07A012800D006
:1020B0000020704750000020F0B52649264B087AD2
:1020C0009C6EC00736D025480088186206282AD39F
:1020D000801E80080A465862517E8446491CC9B257
:1020E000517681421AD8986A8A001018C01E1D467F
:1020F00080352860C578194E6D098C362D02B55093
:1021000087783D432D02B55047783D43B550C078A0
:102110003246C006C00E28325054DD670D4A614574
:1021200001D100205076D86F00280DD00120800307
:1021300004430CE0D86D0022D8674A76002802D00C
:1021400001205862F2E75A620120800384439C66B2
:10215000F0BD000030000020B00000201C0800206E
:1021600010B50420FEF742FE1020FEF705FF002107
:102170000846FEF7ADFE0120FEF738FE0120FEF70F
:10218000FBFE1B48FEF766FE2B246406002203219B
:102190002046FEF7C1FE2046FEF742FD154C2046C4
:1021A000FEF73EFD002211462046FEF7B5FE641CF8
:1021B0002046FEF735FD002211462046FEF7ACFE14
:1021C000641C2046FEF72CFD002211462046FEF737
:1021D000A3FE0948FEF724FD084C2046FEF720FD2B
:1021E000032252040C212046FEF796FE10BD00008B
:1021F000006CDC02103D8057180000401CFE235686
:102200000521020E090751188B68012282401343F1
:102210008B608868904388607047000010B5592132
:1022200016230548882202E001600360026004680A
:10223000012CF9D110BD00000001005010B5094972
:102240005A220A70A5224A7004228A708022CA701B
:1022500003220A71020A4A7188710721014801F0BC
:1022600011FD10BD0C0A002010B50A4A5A23137044
:10227000A5235370052393708223D370030A13712F
:102280005071080A9071D1710821104601F0FAFCD2
:1022900010BD00000C0A002010B50C4A5A23137020
:1022A000A5235370072393708223D370030A1371FD
:1022B0005071080E9071080CD071080A107251729A
:1022C0000A21104601F0DEFC10BD00000C0A0020BF
:1022D00038B51DA000681D4C0090216A20130142F2
:1022E00001D0002016E0080301D5194800E0194884
:1022F0008A030FD40A04920F6B469B5CCA058904BB
:10230000D20DC90E921C891C800859435043FDF719
:1023100007FF8000104DA86021694907490F022975
:1023200003D0880029460C310858A1690907090F14
:10233000491CFDF7F5FE094928604A108018FDF791
:10234000EFFE686038BD0000010202040002005088
:1023500000805101001BB7000000002040420F0028
:102360007047000010B50D4C2046FEF759FC0022C6
:1023700011462046FEF7D0FDA106094C64222046F6
:1023800000F088F820686103084320600820FFF708
:102390005DFE2068A1030843206010BD0200805E3E
:1023A0000000014010B50D4C2046FEF739FC00221C
:1023B00011462046FEF7B0FD6106094C0A22204670
:1023C00000F068F820686103084320600A20FFF7E6
:1023D0003DFE2068A1030843206010BD0400005F9B
:1023E0000000114010B50E4C2046FEF719FC0022EB
:1023F00011462046FEF790FD0A4C01210A22C9062B
:10240000204600F047F820682106084320600B2092
:10241000FFF71CFE206861060843206010BD000025
:102420000500405F2000114010B588B0044620220E
:1024300013496846FDF70BFF124913488C4203D13C
:1024400040694005400F10E00E4920318C4203D115
:1024500040694004400F08E00C4940698C4202D1B9
:102460004003400F01E04002400F022804D08000EA
:102470006946085808B010BD05480068FAE7000032
:10248000CC4000000000014000020050000011405C
:1024900000000020F7B506461746FFF7C5FF0446C3
:1024A00000254008B84201D2022014E00F498C42B6
:1024B00002D90725E4080AE00D498C4202D9032518
:1024C000A40804E00B498C4201D901250446394691
:1024D0002046FDF725FE01992943316070606D1C8F
:1024E000684301462046FDF71BFEFEBD0090D00369
:1024F0000048E8010024F40070B5254801258560F6
:1025000024494878002837D00C4680342069224E70
:10251000401C7D2212012061B04206D32661487919
:10252000322802D31D48E06000E0E260A068401C51
:10253000A060E168FDF7F4FD16484030002900D1A5
:10254000057417490023CA68521CCA60417C154AA9
:10255000022904D26169B1420FD2491C6161818AAA
:10256000642910D0002902D089B2491E8182418A93
:10257000002901D0491E418270BD9562FF21913131
:1025800081826361F0E7936263216361EEE700009B
:10259000000001403000002070170000307500007E
:1025A00030010020804200500149012088607047BE
:1025B00020000140F8B55C49012088605B4C64252F
:1025C0002078401CC0B22070642800D3257001F030
:1025D00035FB564820384178491CC9B241700F2953
:1025E00001D30F214170017D1422491CC9B201752C
:1025F000142900D30275C17B491CC9B2C1730A29D1
:1026000001D30A21C173C17C491CC9B2C1746429B8
:1026100000D3C57445490423403948791E02401C43
:10262000C5B20846424F80304D71322D0ED332254F
:102630004D71456E1D434566836EF5003343AB43D4
:1026400083663B68AD102B436D000CE0456E9D43E7
:102650004566836E0125B3436D032B4383663B6858
:102660006D102B436D10AB433B60436E1E265D0720
:102670000023002D02DAA671E37109E0A5796D1C33
:10268000EDB2A571302D03D9A371E5796D1CE5710B
:10269000FF278D6E2D37BD4210D9056EE1276D1CC9
:1026A0003F010566BD4209D30366086F0125401C42
:1026B0000867CD711F4DA84200D90B678879401C6F
:1026C000C0B288711E2800D38E712079401CC0B220
:1026D00020710B2800D323716079401CC0B2607157
:1026E000292800D36371C878401CC0B2C870142870
:1026F00004D31148CA708370C37003710879401CF9
:10270000C0B20871142805D30A714B76087A4008C4
:1027100040000872C87E401CC0B2C876322802D37E
:10272000CB76FFF7C9FCF8BD000011407000002017
:10273000180500209F860100EC07002005480122B3
:1027400082600548017B002903D104490B684B6076
:10275000027370472000114030000020080500205F
:10276000F8B54E48C1694E49C96941680091C469CC
:102770004C4DE00500264C4F002818DA474A906976
:102780008004810E00200CE03A6C642A00D13E6483
:10279000424A12683B6CEA543A6C521C3A64401C40
:1027A000C0B28842F0D33F4801F068FB3E64E006C7
:1027B00018D53A4A90698004810E00200CE03A6CEA
:1027C000642A00D13E64354A12683B6CEA543A6C84
:1027D000521C3A64401CC0B28842F0D3314801F028
:1027E0002BFB3E64009880071ED5A0051CD52E4902
:1027F00020398888CD88A84204D10221274800F0DA
:102800004DF911E00020294B8A889C5C234B1C6009
:102810003346FF2A00D0531C9AB28A80AA4203D0C2
:10282000401CC0B20828EED31D48C5694068204C42
:10283000E80518D51A4A90698004810E00200CE042
:102840007A6C642A00D17E64154A12687B6CE2546B
:102850007A6C521C7A64401CC0B28842F0D314488F
:1028600001F084FA7E64E80617D50D4DA86980044E
:10287000810E00200BE07A6C642A00D17E642A6805
:102880007B6CE2547A6C521C7A64401CC0B2884261
:10289000F1D3074801F004FA7E64F8BD000005405A
:1028A0000040154038020020B0000020270A002018
:1028B0009C02002010B51348FFF7A2FC124CE12146
:1028C0004902204600F018F9A06830210843A060B2
:1028D000C821204600F054F96068E11408436060A4
:1028E0001121204600F0DEF80221204600F0D6F843
:1028F00006480021C1808180FF212D310448FDF769
:10290000BFFC10BD10000004000005409000002036
:102910003B0B0020F8B54048C16941680091C66989
:102920000027F105002915DA01683C4AC9B21546AD
:102930004035D37B3A4C6D6E00F09CF90F091F2592
:102940003134373A3D400B46494C4F530B005A291E
:102950000FD0D773009989070AD5B10508D52F4A3A
:10296000203211885588A94243D1022100F096F8FF
:10297000F8BD0123D3732170ECE7A529E7D1022329
:10298000D3736170E6E7062905D00529DFD10A2354
:10299000D3736172DEE70323D373A170DAE7E170CA
:1029A00004211CE02171052119E06171062116E066
:1029B000A171072113E0E171082110E0217217498C
:1029C000D7734031802211E0A1720B2107E0E17240
:1029D0000C2104E021730D2101E061730E21D173FC
:1029E000B8E7A1730D49D7734031022215434D66F4
:1029F000B0E70C4E00211488335D03603B46FF2C8A
:102A000000D0631C9BB21380AB42B1D0491CC9B249
:102A10000829F0D3F8BD0000000015407000002028
:102A2000180A00200C09002010B50F48FFF7E8FB3A
:102A30000E4CE1214902204600F05EF8C8212046F4
:102A400000F09EF860680121C9020843606001211E
:102A5000204600F027F80221204600F01FF8044825
:102A600000214180018010BD1100000400001540CC
:102A70009000002010B50748FFF7C2FB064CE1218B
:102A80004902204600F038F80121204600F00AF8FB
:102A900010BD0000120000040040154042688A4347
:102AA0004260704710B542680A4342600D4988424F
:102AB00009D00D49884203D10D20FFF7D1FA10BD8E
:102AC0000A49884201D10C20F7E70949884201D11F
:102AD0000F20F2E70749884201D11020EDE71120CD
:102AE000EBE70000000005400000154000401540E5
:102AF0000040054000800540F0B51D4B04460D46E2
:102B00000FCB85B06E460FC61A48416980698901AE
:102B10008E0F0005070F002020630320E060A068EF
:102B200015490840A060012E02D1FEF767F9019017
:102B3000002D1BD0B10068464058791CFDF7F0FA13
:102B40000646690840182946FDF7EAFA0B49801E37
:102B5000884207D9E90070182946FDF7E1FA000913
:102B6000801E02E0032109070843606205B0F0BD42
:102B70006C400000000200500FFFF0FFFFFF00005C
:102B8000026A120A12020A43026241680122D20258
:102B900011434160704718B501780022242916D1ED
:102BA000401C01782A2901D04A40F9E741786C4657
:102BB0002170837863700846FDF7D6FC040118463F
:102BC000FDF7D2FC2018904201D1012018BD002051
:102BD00018BD000010B5054C61605100014318019B
:102BE000014380200143216010BD000000400040EF
:102BF0000348806D322801D80120704700207047BB
:102C0000B000002070B50C4C0025A388E1882A464E
:102C1000FF2900D04A1C9A42F9D0084AFF29505493
:102C200000D04D1C0648E5804168890702D4022186
:102C3000FFF738FF70BD000090000020270A002039
:102C40000000054010B5094A074B51885854002030
:102C5000FF2900D0481C508005484168890702D4EC
:102C60000221FFF71FFF10BD0C090020900000207B
:102C70000000154030B47446641E2578641CAB42D5
:102C800000D21D46635D5B00E31830BC184702E0CC
:102C900008C8121F08C1002AFAD1704770470020E7
:102CA00001E001C1121F002AFBD17047F0B5FF4EB1
:102CB0008FB0307C00287ED1FD4D01462A5C044651
:102CC0002C2A01D1491CC9B2022903D0601CC0B210
:102CD0002F28F3D32819407841286DD1002003AA6A
:102CE0002919C97830391154032801D1641CE4B280
:102CF000641C401CC0B2E4B20928F1D36A46907B40
:102D0000EC4908904843D27BEB4909924A43811829
:102D10006A46107CE94A504309186A46507C7D2275
:102D2000D200504309186A46907C64225043091827
:102D30006A46D07C0A22504308186A46117D401822
:102D40003C21FDF703FA6A46117BDA4A0B465343EE
:102D50006A46527BD84F94467A439A188018C21715
:102D60000690079208980A225043099AD44B821879
:102D70000ED00A2041436046081880001F58C01832
:102D800040683C21381A5043FDF7CAF9381A05E06B
:102D90000A20414360460818800018580021089016
:102DA000099108466A46291989793039115404284D
:102DB00004D1641C01E0A2E15FE1E4B2641C401CA8
:102DC000C0B2E4B20A28EED3D078BA4948431179A8
:102DD000B94A514341186A465079B84A50430918D4
:102DE0006A4690797D22D200504309186A46D0790C
:102DF0006422504309186A46107A0A225043081880
:102E00006A46517A40183C21FDF7A0F96A461178CC
:102E1000AC4AA84B51436A465278AB4C5A438B1884
:102E20006A469178A44A2546514359184718FB171A
:102E30000A93A168E0682160606018350E910D90DA
:102E4000A968E868296068600C910B909F4A00238C
:102E500009990898FDF7BEF9974A0023FDF78AF90A
:102E60003A460A9BFDF7B6F9934A0023FDF782F92B
:102E7000E160A06004460991944A002307990698EE
:102E8000FDF7A8F98C4A0023FDF774F9E960A86002
:102E9000327B0A92002A7ED08B4AB37C1569526934
:102EA0000792894A06951832176952690892022BCF
:102EB00055D02B46079D099AE31AAA4104D2069BD6
:102EC0002A46099D1C1B02E0069B099AE41A774BCF
:102ED000AA41E0339C65DA65089B0A46C41B9A4107
:102EE0001A4606D23B1A71488A41E03003664266B0
:102EF00005E0C31B6D489141E030036641666B49B4
:102F0000E031886DC96D02460B46FDF763F90D4649
:102F10006F490446086E496E02460B46FDF75AF9A2
:102F200022184D416A485121C56682660020891ADF
:102F3000A84102D20120707402E0707C00281FD0EA
:102F400024210020891AA8411AD30A98032817D3EC
:102F5000002070745C48079A0699816008E00A981E
:102F600003280DD30020B07470745748079A856009
:102F7000C2605548089918308760C16001203074DC
:102F8000514B0D9918339A680E98DB68FDF722F9BA
:102F90004F4F054600E061E0F9640C46B8644A49C9
:102FA0000B9B8868C9680C9AFDF714F97965386538
:102FB00084460A463846737B016A406A002B0FD06C
:102FC000634617465B1BA74130D367467D1B404BCA
:102FD000A2419D624919DA6250411962586244E087
:102FE00063462746EB1A974109D36346EB1A94418F
:102FF000374FCA18FC62BB6260413A6225E06746FF
:103000007D1BA241324B04469D62DA624F1B134680
:1030100094412F4A04D3491B98411162506224E025
:10302000691A834153620120116215E06346EB1A6D
:10303000274F9441FC622246CC1A0546BB6295415B
:103040003C4604D3C91A9041216278620DE0591AB6
:103050008241216200207A62707306E01A4A099B5D
:10306000146153611832516110610A98401CC0B25A
:103070003073032801D3032030730C4C307C154D82
:103080002034002828D0124F03220023796A386A9E
:10309000FDF7A0F8FF2291320023FDF76BF879626B
:1030A00038620027377380B2294623E050000020A1
:1030B000C803002040420F00A08601001027000036
:1030C000C03E000080969800800C002024B20100D1
:1030D000300100205B070020B07C02280FD1F07C7B
:1030E00064280CD300270748B77407624762377318
:1030F00029463846FDF78EFF0120207377750FB003
:10310000F0BD000030010020D4B0FF480090FFF770
:1031100085F8FE4800260660FFF722F8FC4D2E6079
:10312000FEF7C4FAFDF716F9FFF7C4FBFFF77CFCC6
:10313000FFF7A0FCFFF716F9FFF734F9FFF752F994
:10314000FDF736F90020FFF779F8FEF7B1F9F14CF9
:103150008107E06302D50121A16300E0A66340215D
:10316000EC4F8843803FE063387CEF21084038749F
:10317000E94900220098FDF7D1FB0098FDF738FAE5
:10318000FFF74CF800230720012219460002FFF741
:1031900021FDDF480660E14DA86820218843A86032
:1031A00019204001FEF754F9A96820200143A960C5
:1031B000616E012001436166FEF762F900F020FDB7
:1031C000F87BD74A81070029616E01DA114300E0DC
:1031D00091436166410704D53A7A02210A433A7263
:1031E00003E0397AFD22114039720007606E02D582
:1031F0001021084301E0102188436066A321C948DB
:10320000FDF73EF8C34C0322C7A1A069FDF71FF8E4
:10321000A0690F22C5A1C01CFDF719F8A0690722FB
:10322000C6A16030FDF713F8A0690722C5A1673079
:10323000FDF70DF8A0690722C4A16E30FDF707F86D
:10324000A0690722C3A17530FDF701F8A0690A2221
:10325000C2A17C30FCF7FBFFA0690822C2A1863026
:10326000FCF7F5FFA0690822C1A18E30FCF7EFFF43
:10327000A0690822C0A19630FCF7E9FFA0690D21E2
:10328000A13001704670A7485A21DF3001713B24FC
:1032900044710C22BAA1801DFCF7D9FFA148432537
:1032A000DD30009005754D2747750B22B8A116300B
:1032B000FCF7CDFF9B480322B8A1FE30FCF7C7FF07
:1032C00098480C22FC30411C0191447186715A21AE
:1032D000C1710472AAA10930FCF7B9FF01990B2250
:1032E0000D754F75AAA1AE48FCF7B1FFAC4803229B
:1032F000ACA10B30FCF7ABFFA9485A210A30029071
:10330000047146712230017144710C229CA1801D10
:10331000FCF79DFFA2480B222A30019005754775E6
:103320009BA11630FCF793FF9D4803229EA14B30D2
:10333000FCF78DFF9A485A214A30047146713E3895
:10334000017144710C228EA1801DFCF780FF029850
:103350000B220575477592488DA120300290FCF72D
:1033600076FF8F4803222B3090A10390FCF76FFF6C
:1033700001980C2204714671894881A11230FCF732
:1033800066FF0B2282A10298FCF761FF032288A14D
:103390000398FCF75CFF82485A216930C1710472BE
:1033A0000C2277A10930FCF752FF7D480B226930CF
:1033B0004575877576A11730FCF749FF78480322D9
:1033C0007CA18B30FCF743FF754803227AA18E3035
:1033D000FCF73DFF7248032279A19230FCF737FFDA
:1033E0006F4878A1893001900473467320380988AA
:1033F000C1850C2262A13030FCF729FF72A101982F
:103400000988818366480B22A73061A14E90FCF7A2
:103410001EFF634803226DA1B230FCF718FF60481D
:103420000322B5306AA14F90FCF711FF5C484DA113
:10343000A93009888183FD385521017144710C221E
:1034400068A1801DFCF703FF55480B22563805750F
:10345000477516304EA15390FCF7F9FE50480322F1
:1034600064A13538FCF7F3FE009856A1047146714B
:103470004B480988AB3081830C2241A11E30FCF7F8
:10348000E6FE474850A1C930098881810E300B22E1
:103490003FA15190FCF7DBFE4148042256A1E230E7
:1034A000FCF7D5FE3E48052255A1E630FCF7CFFEDD
:1034B0003B482CA1E9300988418042A109888180DC
:1034C000841C0C222EA1801DFCF7C1FE3EA00088AA
:1034D000208233480B22FD302DA15290FCF7B7FE1D
:1034E000042249A14A48FCF7B2FE4948052244A1FA
:1034F000001DFCF7ACFE46481AA11F38054D09888F
:103500000185403D6E8285E000001840004000408B
:1035100000010050B000002090D003004041005056
:10352000000100003C0500205A3B000049443636AB
:103530003136303832323631363B00004F5030357C
:10354000303B000057543130303B00004656303697
:10355000303B000042563132303B0000524831329D
:10356000333435363B0000005253313233343B00A4
:103570005341464646463B005452464646463B006B
:1035800030303030303030303030303B00000000F0
:10359000303031363038323230313800424F44002A
:1035A0004F0600204E424F004E4C490048414C000F
:1035B000494E51004C494D00303030300000000081
:1035C00030303000553B0000525000004558450057
:1035D00030303030303030303030303030303030EB
:1035E0000000000030303030303030303030313B8F
:1035F00000000000534F53004D4D4F3B00000000B2
:1036000030303030300000004D4D433B00000000B2
:1036100057070020FF488662FF482C46203C509008
:1036200001272771687B012805D1FC4881683A038E
:10363000514081606E73FEF7F1FDF94A10682C214C
:10364000884338431060F7480660FDF767FAF6488C
:1036500040780028E4D0A88A00287ED1687C02281F
:1036600003D2FEF7BBF9687410E2EF48C07C002873
:1036700004D0A07901285FD0002853D0EA48007D0B
:10368000002804D0A07902287DD0002870D0E64818
:10369000407D002804D0A07903287ED000287DD06A
:1036A000E148807D002804D0A079042877D0002844
:1036B00076D0DD48C07D002804D0A079052870D0E0
:1036C00000286ED0A87A002804D0A079062869D0F6
:1036D000002868D0D448807C002804D0A07907282E
:1036E00073D0002871D0E87A002804D0A079092886
:1036F0006CD000286AD0287B002807D0607D002885
:1037000004D0A0790A287ED000287CD02079002817
:1037100007D0287C002804D0A079082874D000287D
:1037200073D0B3E1C04980228031C86B1043C863B5
:1037300080B24F99FDF7BCFCA771202268464E99D4
:10374000FCF785FD3022B94908A8FCF780FD08A8E0
:103750000FC8FEF72FFA687402E0F3E113E007E008
:1037600004287ED1B048417F39434177C6748CE14B
:10377000AD4AFF218032D06B01310843D06380B263
:103780004F99FDF795FC0220A071202268464E99C2
:10379000FCF75DFD3022A54906E026E017E052E087
:1037A00043E06EE0B7E082E008A8FCF750FD08A80F
:1037B0000FC8FEF7FFF96874042852D19A48022214
:1037C000417F1143417706755FE1C0E0DDE0964A35
:1037D00001218032D06B89020843052149028843C8
:1037E000D06380B24F99FDF763FC0320A0712022C3
:1037F00068464E99FCF72BFD30228C4908A8FCF74F
:1038000026FD08A802E0D6E0EDE0EAE00FC8FEF7EA
:10381000D1F96874042824D183481022417F1143D0
:10382000F3221140417746752FE17F4A0121803212
:10383000D06BC9020843032149028843D06380B298
:103840004F99FDF735FC0420A071202268464E995F
:10385000FCF7FDFC3022754908A8FCF7F8FC08A825
:1038600000E084E00FC8FEF7A5F9687404287ED153
:103870006D480822417F1143EB2211404177867544
:1038800003E10520A071202268464E99FCF7DFFC79
:103890003022664908A8FCF7DAFC08A80FC8FEF732
:1038A00089F96874042862D15F48C675EDE05E4806
:1038B00001218030C06B49020843032189028843FB
:1038C00059498031C86380B24F99FDF7F1FB5749E0
:1038D0000A222739887FC97F303850433038091889
:1038E00052480A23C01F0278594330395118427890
:1038F0005943303952184C4980314A638178C27833
:1039000030395943303951180A220079514330393E
:103910004018454908770620A071202268464E9934
:10392000FCF795FC3022414908A8FCF790FC08A858
:103930000FC8FEF73FF96874042818D13A490422E9
:10394000487F1043E72210404877AE729DE0072081
:10395000A071102268465399FCF779FC2E49202269
:10396000B33104A8FCF773FC04A80FC800E00BE017
:10397000FEF7A6FA6874042801D0002804D12A486A
:10398000A67186742A48688280E00920A0711622F8
:1039900068465199FCF75BFC24492622303106A881
:1039A000FCF755FC06A80FC8FEF718FA687404283F
:1039B0006CD1EE7269E00A20A07116226846529915
:1039C000FCF745FC19492822563106A8FCF73FFCB4
:1039D00006A80FC8FEF702FA6874042856D12E73A1
:1039E00053E0FDF777FB0820A071FFF701F91149BB
:1039F00008704E70FCF7C8FD8870FEF755FBC87064
:103A00000A78012A30D04A78012A2DD089780129F4
:103A10002AD011E0804200504C0500204040005068
:103A2000004000400001005030000020E606002069
:103A3000AC26000045010020012815D0A672932273
:103A400068465099FCF703FCA422684925A8FCF7B6
:103A5000FEFB25A80FC8FEF71DF96874687C0428D2
:103A600012D0002810D011E0A77293226846509916
:103A7000FCF7EDFBA4225D4925A8FCF7E8FB25A88F
:103A80000FC8FCF7D1FCE9E72E74A671607A002814
:103A90005AD05748FCF716FC821E56485449806994
:103AA0001230FCF7D4FB667253480069800421D5BC
:103AB000207D142832D3A07B002819D126744D48CC
:103AC0002673A773002180300162416266738038DB
:103AD000C06C4849401CC86480B24849FDF7C8FA28
:103AE00044484649C06C263180B2FDF7C1FAEF72F6
:103AF000A77416E02675A673A07C012802D00028C2
:103B000004D00EE0207C002804D0A67467752674CB
:103B100026730FE00220A074E67402E0A07C002867
:103B200008D0E07B0A2802D2A07C022802D1E673EA
:103B3000FFF7BCF82F4880691230FFF72CF80028F7
:103B400001D0677100E06671FF209130FDF780FCC5
:103B5000284F6020803F396FFEF79EFB2348396F66
:103B60002438C1606878082801D908206870C1B27B
:103B70005020FEF779FBA9785120FEF775FB1B4812
:103B8000A97824388171B9785220FEF76DFB174966
:103B9000B8782439C871282801D22821E9707828FA
:103BA00001D97820E870E9785520FEF75DFB5420B4
:103BB000B96EFEF759FB0D49B86E243908830D48DC
:103BC000816D6420FEF750FB0A480849806D243956
:103BD000C882FCF7FDFBB8791E2800D220E5F879F1
:103BE0000028FBD0FDF78AFCFE7119E53C0500209A
:103BF000C8030020B00000204040005018070020FB
:103C000010B5FEF70BFBFDF753FB094A00211160CD
:103C10000849020C0B46803B0865DA73064A90425D
:103C200005D9486E0822104348660520086510BD76
:103C300000010050B00000200F27000010B50F4C0D
:103C40006078002819D12046403003210078FCF725
:103C500067FA01221E2801D36270402008495A23C6
:103C60000B70A5234B7003238B708023CB700A71DC
:103C700048710621024800F005F810BD3000002010
:103C80000C0A002070B505460E46002405E0287891
:103C90006D1CFEF7D7FF641CE4B2B442F7D370BDCD
:103CA000F3B52C4C00252646203681B02A4F4034EF
:103CB0002DE0608BC72801D3002060830198618BC1
:103CC000405D7854608B385C242804D0608B385C6D
:103CD0000A280CD016E0002001463954401CC0B21E
:103CE000C828FAD36183618B242078540AE038789D
:103CF000242810D0002001463954401CC0B2C828E6
:103D0000FAD36183608B401C60836D1CEDB2029816
:103D10008542CED3FEBD11A10F48FCF7BDFA0028A5
:103D20000BD0707A0028EDD10B494C220846C830E0
:103D3000FCF78DFA01207072E4E70AA10648FCF74F
:103D4000ABFA0028DED100213954401CC0B2C8288B
:103D5000FAD3D6E7300000200003002024474E4766
:103D60004741000024474E524D430000F3B52C4C10
:103D700000252646203681B02A4F40342DE0608B46
:103D8000C72801D3002060830198618B405D78547F
:103D9000608B385C242804D0608B385C0A280CD0F7
:103DA00016E0002001463954401CC0B2C828FAD39E
:103DB0006183618B242078540AE03878242810D05D
:103DC000002001463954401CC0B2C828FAD3618390
:103DD000608B401C60836D1CEDB202988542CED38F
:103DE000FEBD11A10F48FCF757FA00280BD0707ADE
:103DF0000028EDD10B4944220846C830FCF727FAC9
:103E000001207072E4E70AA10648FCF745FA002891
:103E1000DED100213954401CC0B2C828FAD3D6E7FD
:103E2000300000200003002024474E524D43000084
:103E3000244750565447000070B50E4C0546E08AA2
:103E40000E46FF212D31884205D30B48FCF718FAA6
:103E50000020E08220830022074907E0A85CE38A73
:103E6000C854E08A401CE082521CD2B2B242F5D360
:103E700070BD0000700000203B0B002070B50E4CA0
:103E80000546E08A0E46FF212D31884205D30B48B6
:103E9000FCF7F6F90020E08220830022074907E0C2
:103EA000A85CE38AC854E08A401CE082521CD2B26B
:103EB000B242F5D370BD0000700000203B0B002023
:103EC000A08601009086010063860100178601002C
:103ED000AC850100238501007C840100B6830100CC
:103EE000D2820100D0810100B0800100727F010008
:103EF000167E01009D7C0100057B010050790100C8
:103F00007E7701008E7501008173010057710100F9
:103F1000116F0100AE6C01002E6A01009267010072
:103F2000DA64010006620100175F01000C5C010009
:103F3000E6580100A65501004A520100D44E010086
:103F4000444B01009B470100D7430100FB3F0100A8
:103F5000053C0100F7370100D1330100922F010029
:103F60003C2B0100CF2601004A220100AF1D0100B9
:103F7000FE18010036140100590F0100670A010004
:103F8000610501004500010016FB0000D4F50000AA
:103F90007EF0000015EB00009AE500000DE0000047
:103FA0006FDA0000BFD40000FFCE00002FC9000070
:103FB00050C3000061BD000063B7000057B10000AE
:103FC0003DAB000015A50000E19E0000A198000097
:103FD000FC8B00009A8500002C7F0000B578000063
:103FE00035720000AB6B000019650000805E0000B8
:103FF000DF57000037510000884A0000D44300001A
:104000001B3D00005D3600009A2F0000D428000000
:104010000B2200003F1B000071140000A10D0000E6
:10402000D1060000000000000000000030313233F3
:104030003435363738394142434445464748494A82
:104040004B4C4D4E4F505152535455565758595A48
:104050006162636465666768696A6B6C6D6E6F70D8
:104060007172737475767778797A0000001BB700E7
:10407000000000000000000000805101001BB7009C
:10408000000000000000000000805101001BB7008C
:10409000000000000000000000805101000000004E
:1040A000040000000C0000002400000000000000DC
:1040B000040000002C0000000000000000000000D0
:1040C000040000002C00000000000000001BB700EE
:1040D00000000000000000000000000000000000E0
:1040E0001027000000000000008051012B435245C2
:1040F000473A20302C310D0A0D0A4F4B0D0A006152
:10410000740D0D0A4F4B0D0A0041542B4353545468
:104110003D22434D4E4554220D0061742B6369705E
:104120006D75783D310D0041542B43495053544136
:1041300052543D302C22544350222C223137312E00
:10414000382E3232352E323436222C383030330D80
:104150000061742B637265673F0D0041542B43432C
:1041600049440D0041542B43494943520D004154E9
:104170002B43494653520D0041542B434950534859
:1041800055540D0061740D0041542B434950534563
:104190004E443D302C003E0053454E44204F4B00D2
:1041A000434F4E4E454354204F4B0000CC4100003E
:1041B00000000020340200008E2C000000440000AB
:1041C000340200207C0E00009E2C000080F0FA02D9
:1041D0003200000080F0FA02001BB700000000006F
:1041E00080F0FA021027000000000000000000002C
:1041F00000000000008051010000000000000000ED
:1042000000321E0000050000000000000000000059
:10421000000000000000003200000000000000006C
:10422000000000000000010000000000000000008D
:10423000000000000000000000000000000000007E
:10424000000000000000000000000000000000006E
:10425000000000000000000000000000000000005E
:10426000000000000000000000000000000000004E
:10427000000000000000000000000000000000003E
:10428000000000000000000000000000000000002E
:10429000000000003C050020443322110000000013
:1042A000000000002308002000000000F110910928
:1042B00000000000000000000000000000000000FE
:1042C00000000000000000000000000000000000EE
:1042D00000000000000000000000000000000000DE
:1042E00000000000000000000000000000000000CE
:1042F00000000000000000000000000000000000BE
:1043000000000000000000000000000000000000AD
:10431000000000000000000000000000000000009D
:10432000000000000000000000000000000000008D
:10433000000000000000000000000000000000007D
:10434000000000000000000000000000000000006D
:10435000000000000000000000000000000000005D
:1043600000000000000000000000000080000000CD
:10437000000000000000000000000000000000003D
:10438000000000000000000000000000000000002D
:10439000000000000000000000000000000000001D
:1043A0000000000000000000000000008441000048
:1043B000784100001A41000051410000094100000D
:1043C000644100006E4100005B4100002741000095
:1043D00088410000FF400000A841000004410000A7
:1043E000EC400000A8410000A84100000641000088
:1043F000A8410000A0410000964100009841000043
:04000005000000D522
:00000001FF
