:020000040000FA
:10000000980D0020D5010000FB01000081010000D7
:1000100000000000000000000000000000000000E0
:10002000000000000000000000000000FF010000D0
:1000300000000000000000000102000003020000B8
:100040000502000005020000050200000502000094
:100050000502000005020000050200000502000084
:10006000050200000D0F000005020000050200005F
:10007000510F00000502000005020000050200000B
:100080000502000005020000050200000502000054
:100090000502000005020000050200000502000044
:1000A0000502000005020000050200000502000034
:1000B0000502000005020000050200000502000024
:1000C00000F002F800F04DF80CA030C808382418F1
:1000D0002D18A246671EAB4654465D46AC4201D180
:1000E00000F03FF87E460F3E0FCCB6460126334265
:1000F00000D0FB1AA246AB4633431847DC1400007D
:10010000FC140000103A02D378C878C1FAD852071C
:1001100001D330C830C101D504680C6070470000BD
:100120000023002400250026103A01D378C1FBD813
:10013000520700D330C100D50B60704710B5642959
:1001400002D100F08FF810BD782902D100F0C0F87C
:1001500010BD002010BD1FB5C046C0461FBD10B564
:1001600010BD00F0B3FA1146FFF7F5FF01F03CF9BE
:1001700000F0CBFA03B4FFF7F2FF03BC00F0D0FAB3
:1001800004207146084202D0EFF3098001E0EFF34A
:1001900008807146004A1047150C000070B50546EE
:1001A0000C46164602E00FCC0FC5103E102EFAD2B8
:1001B000082E02D303CC03C5083E042E07D301CC7E
:1001C00001C5361F03E021782970641C6D1C761E62
:1001D000F9D270BD0F481049016010490160104903
:1001E0000160104A10491160104A11491160002144
:1001F00001601048804710480047FEE7FEE7FEE731
:10020000FEE7FEE7FEE700000C480D490B4A0D4BE8
:100210007047000000010050590000001600000067
:100220008800000024000050A55A00008003005000
:100230001F000000B90D0000C10000009809002057
:10024000980D0020980900200FB4054910B503AAA5
:10025000029800F0FBF910BC08BC04B0184700007D
:100260000C000020F7B5002675291068009914A528
:1002700011D0C046C046002802DA404211A508E06D
:10028000009909688A0701D50FA502E0490704D53E
:100290000EA5012601E0C046C046009F0024243779
:1002A00004E000F0E7F930313955641C0028F8D13A
:1002B00033462A462146009800F072F9FEBD000040
:1002C000000000002D0000002B00000020000000B6
:1002D00070B504460D4621461068C046C0462168E8
:1002E000090502D50F4A7A4402E00E4A7A440E32DA
:1002F00023460021243305E00607360F965D5E5441
:10030000491C00090028F7D120680023000705D503
:10031000702D03D0002901D011320223204600F0B5
:100320003FF970BDC6120000F3B50446002081B04D
:1003300082E0E1682046884700287FD0252802D047
:100340006268A16875E0E168204600268847054696
:100350000020E0610746A0612A2D0BD0294601222A
:1003600030390A292BD2002A29D0B8000019009070
:10037000816119E00298BA00121902C891610290D5
:100380002046E1688847012F05461AD1E069002818
:1003900022DA202086431FE000980A218069484322
:1003A00000994019303888612046E1688847054641
:1003B0000120294630390A2901D20028ECD1012F29
:1003C0000AD02E2D08D12046E16888470546202016
:1003D00006437F1C022FBFDBA069002803DA4042DE
:1003E000A06101200643F00701D010208643002DB4
:1003F00024D028464138192803D80120C0020643DA
:100400002035204626602946029A1646FFF796FEBA
:1004100000280BD0012806D0F61DF008C0000830D7
:10042000029086E70AE0361D029682E76268284657
:10043000A1689047206A401C20627AE7206AFEBDCE
:10044000002203098B422CD3030A8B4211D30023D1
:100450009C464EE003460B433CD4002243088B42AB
:1004600031D303098B421CD3030A8B4201D3944638
:100470003FE0C3098B4201D3CB01C01A524183092B
:100480008B4201D38B01C01A524143098B4201D3E5
:100490004B01C01A524103098B4201D30B01C01A10
:1004A0005241C3088B4201D3CB00C01A524183088A
:1004B0008B4201D38B00C01A524143088B4201D3B7
:1004C0004B00C01A5241411A00D201465241104617
:1004D00070475DE0CA0F00D04942031000D340428C
:1004E000534000229C4603098B422DD3030A8B42C2
:1004F00012D3FC22890112BA030A8B420CD3890160
:1005000092118B4208D3890192118B4204D3890145
:100510003AD0921100E08909C3098B4201D3CB0183
:10052000C01A524183098B4201D38B01C01A524138
:1005300043098B4201D34B01C01A524103098B423C
:1005400001D30B01C01A5241C3088B4201D3CB0027
:10055000C01A524183088B4201D38B00C01A52410A
:10056000D9D243088B4201D34B00C01A5241411AE1
:1005700000D20146634652415B10104601D340420F
:10058000002B00D54942704763465B1000D34042C0
:1005900001B50020C046C04602BD70477047704795
:1005A000FFB504460D4681B02430009021688806CE
:1005B00004D51022E0699143216000E0012000276A
:1005C000A84200DD471B0498A1697A191018081A7F
:1005D000A0612068C00602D42046C046C04600265E
:1005E00008E003986268A168805D9047206A401C1B
:1005F000761C206204988642F3DB2068C0060AD588
:100600002046C046C04606E06268A1683020904798
:10061000206A401C206238467F1E0028F4DC07E078
:1006200000986268A168405D9047206A401C206283
:1006300028466D1E0028F3DC2046C046C0462168CF
:100640000220090600D4012005B0F0BD084B70B5AA
:100650000C467B4400F027F80546204600F0B8FE23
:10066000002802D00020C04370BD284670BD0000A5
:10067000830D000001468008081A02091018020ABA
:100680001018020C1018C008820012185200891AA3
:1006900001E00A39401C0A29FBD2704701694A1C53
:1006A00002610878704700B58FB002910021059172
:1006B0000549019379440391114604906846FFF778
:1006C00033FE0FB000BD0000E5FFFFFF754600F0F0
:1006D00023F8AE46050069465346C008C00085466B
:1006E00018B020B5FFF790FD60BC00274908B6465A
:1006F0000026C0C5C0C5C0C5C0C5C0C5C0C5C0C531
:10070000C0C5403D49008D4670470446C046C046BE
:100710002046FFF72FFD00000048704734090020F5
:1007200001491820ABBEFEE726000200704700001A
:100730000649820F92008958C306DB0E01229A40B7
:100740001143024A830F9B00D150704704020050AE
:10075000F3B589B00C46012000045349086209989A
:1007600000280ED108460068012108434E49086060
:10077000012000F01FFA002006904C480890022546
:100780000EE04948006804210843474908601020EA
:1007900000F010FA0120C004069045480890042596
:1007A0004448844204D84010844201D9002712E012
:1007B0004148844205D84010844202D90127640090
:1007C00009E03E48844205D84010844202D3032702
:1007D000A40000E057E00020C043039000200190F7
:1007E000029034E029460898FFF72AFE0590344924
:1007F000059888422AD933490598884226D2022092
:1008000007901EE0059E07994E432B48864215D35C
:100810004000864212D8A64201D9301B00E0A01B3E
:10082000049003990498884208D204980390019593
:10083000079802900398002800D106E00798401C12
:100840000790214907988842DCD900BF6D1C212DF3
:10085000C8D9B803069908430199891E490208437B
:100860000299891E084310490862042000F0A2F989
:10087000781C019A504301460898FFF7E1FD029960
:1008800048430BB0F0BD0998002803D10F48064932
:10089000086202E00E4804490862042000F08AF968
:1008A00000F09CF8EDE7000000020050001BB700CC
:1008B0000080510100C2EB0B00E1F50580F0FA0267
:1008C000006A1800C0E1E400010200002EC200002E
:1008D0006FD60000024909680143014A1160704760
:1008E00000020050FEB50020029019A000680090A0
:1008F0001848046A0013044201D00020FEBD012004
:10090000C004044201D0144D00E0144D0120400405
:10091000044201D02846F1E7032080032040800BE9
:1009200069460A5C0192E005C00D871C1F20400249
:100930002040400A861C019A72431146AA087A4355
:100940001046FFF77DFD800002900298D6E7000078
:10095000010202040002005000805101001BB70098
:10096000FEB50020029019A0006800901848046AA3
:100970000013044201D00020FEBD0120C004044247
:1009800001D0144D00E0144D01204004044201D078
:100990002846F1E7032080032040800B69460A5C6B
:1009A0000192E005C00D871C1F2040022040400A34
:1009B000861C019A72431146AA087A431046FFF733
:1009C0003FFD800002900298D6E700000102020479
:1009D0000002005000805101001BB700FEB500204E
:1009E000029019A0006800901848046A001304429D
:1009F00001D00020FEBD0120C004044201D0144DEE
:100A000000E0144D01204004044201D02846F1E7E3
:100A1000032080032040800B69460A5C0192E005B8
:100A2000C00D871C1F2040022040400A861C019AEE
:100A300072431146AA087A431046FFF701FD800071
:100A400002900298D6E70000010202040002005062
:100A500000805101001BB70070B504462248C068F1
:100A60001021084005462148844201D9044603E08C
:100A70001F48844200D204461B48006804210843F2
:100A800019490860102000F095F8174800690721FF
:100A9000084315490861084680690009000188611A
:100AA00008460068C007C00F05D021460020FFF7A8
:100AB0004FFE04460AE021460120C004FFF748FE2D
:100AC00004460948C068102108400546002102205C
:100AD00000F010F8002D05D1034800680421884378
:100AE00001490860204670BD0002005080F0FA0203
:100AF00040787D0170B504460D461548C068102148
:100B00000840064612480068084311490860102052
:100B100000F050F80E480069C008C000C01D0C4924
:100B20000861084680690009000128438861084679
:100B30000069C008C0002043086100F00BF9002ED6
:100B400005D103480068102188430149086070BD41
:100B500000020050F0B50B460021002400250601DC
:100B6000760F0FD0124E8700BF0FBF00F419216817
:100B70000601770FC601F60EB7400E46BE431E4370
:100B8000314621608603360E10D0094E0836070321
:100B9000BF0FBF00F51929688603360EF643870597
:100BA000FF0EBE400E40164331462960F0BD0000E6
:100BB000100200500146074A05E01046521E002868
:100BC00001DC002070470448C06808408842F4D126
:100BD0000120F7E7804F12000002005070B5034675
:100BE00000200EE0012484400C4209D01C6846001D
:100BF0000325B540AC4346001546B5402C431C6068
:100C0000401C0828EED370BD10B50446204600F005
:100C10008BFC10BD044604A0FFF716FB204600F035
:100C20002FFC00BFFEE70000496E2048617264207F
:100C30004661756C742048616E646C65720A0000D0
:100C4000C206D20E01219140014A11607047000096
:100C500080E100E0C206D20E01219140014A1160FC
:100C60007047000000E100E0C206D20E0121914071
:100C7000014A11607047000000E100E010B5042057
:100C8000FFF728FE1020FFF795FF00210720FFF750
:100C900031FF0120FFF71EFE0120FFF78BFF1048F8
:100CA000FFF7DAFE0F48FFF743FD002211460D481B
:100CB000FFF750FF05200007C06B0B4908400521D6
:100CC0000907C8630846C06B0321084305210907CB
:100CD000C863012204210548FFF780FF10BD000012
:100CE00080F0FA02103D8057FCFCFFFF00410050ED
:100CF0000849020E8958012282400A430549030E21
:100D0000CA50020E8958012282409143014A030EC3
:100D1000D15070470800005000B50346184600F057
:100D200001F800BD00BF0A4989690122D2051142BC
:100D3000F9D1074908600A2809D100BF0449896927
:100D40000122D2051142F9D10D21014A11607047EB
:100D50000000054070B51248006945076D0FFFF7A8
:100D6000C1FD10490860022D03D0A8000E490C589F
:100D700001E00C4804680A4880690007000F461C1F
:100D800031462046FFF75CFB0849086008490748E0
:100D900000684A108018FFF753FB0649086070BDD1
:100DA0000002005008000020401500000000002054
:100DB00040420F00040000207047000010B51248A8
:100DC000FFF7B6FC002211460F48FFF7C3FE0A22C8
:100DD0000121C9060D4800F05DF800BF0B4800680E
:100DE0000121490708430949086000BF0920FFF7AE
:100DF0003BFF00BF054800680121890708430349FC
:100E0000086000BF10BD00000300C05E200001406C
:100E100030B589B005462022194901A8FFF7BEF96F
:100E20001848854206D11848406907210902084040
:100E3000040A1AE013482030854206D1124840695E
:100E4000072109030840040B0FE01048854206D132
:100E50000D484069072109040840040C05E00A48D0
:100E60004069072109050840040D022C03D10848F8
:100E7000006809B030BDA00001A90858F9E70000DA
:100E80006015000000000140000200500000114009
:100E900000000020FEB505460F4616462846FFF71F
:100EA000B7FF04460020019000906008B04202D2D3
:100EB000022001901BE001208006844203D307201A
:100EC0000090E4080EE001204006844203D3032092
:100ED0000090A40806E001200006844202D301200D
:100EE0000090640831462046FFF7AAFA0190009866
:100EF0003843286001986860009A521C019850435A
:100F000001462046FFF79CFAFEBD000000BF01200D
:100F10000C49886000BF0C480068401C0A49086002
:100F2000084600680A2803D101200849886008E0C3
:100F300005480068142804D100200449886002494B
:100F400008607047200001402400002080420050CB
:100F500010B500F083F910BD10B50748FFF7C8FEC3
:100F60004B21C901054800F01DF900200449088003
:100F70000449088010BD0000100000040000054076
:100F80002E0400202C04002070B504460D46606835
:100F9000A84360600548844203D10C20FFF750FE4F
:100FA00002E00D20FFF74CFE70BD00000000054080
:100FB00070B504460D466068284360600548844269
:100FC00003D10C20FFF746FE02E00D20FFF742FEA2
:100FD00070BD00000000054010B518A0FFF734F9FF
:100FE00026A0FFF731F915A0FFF72EF933A0FFF780
:100FF0002BF942A0FFF728F950A0FFF725F90FA021
:10100000FFF722F95D484068132108435B494860B7
:101010000C20FFF729FE05E05948FFF7F5FD59A020
:10102000FFF7F2FD584800680028F5D10120564925
:10103000086056A0FFF708F910BD00002B2D2D2DDC
:101040002D2D2D2D2D2D2D2D2D2D2D2D2D2D2D2DD0
:101050002D2D2D2D2D2D2D2D2D2D2D2D2D2D2D2DC0
:101060002D2D2D2D2D2D2D2D2D2D2D2D2D2D2D2DB0
:101070002D2D2D2D2D2D2D2D2B0A00007C202055C2
:101080004152542046756E6374696F6E20546573C7
:1010900074202020202020202020202020202020FC
:1010A0002020202020202020202020202020202040
:1010B00020202020202020207C0A00007C202044AA
:1010C00065736372697074696F6E203A2020202006
:1010D0002020202020202020202020202020202010
:1010E0002020202020202020202020202020202000
:1010F00020202020202020207C0A00007C2020208E
:10110000205468652073616D706C6520636F646541
:101110002077696C6C207072696E7420696E7075CE
:10112000742063686172206F6E207465726D696EE1
:10113000616C2020202020207C0A00007C202020C0
:1011400020506C6561736520656E74657220616EF8
:101150007920746F207374617274202020202028FD
:1011600050726573732027302720746F206578696B
:1011700074292020202020207C0A00000000054047
:101180002C0000200D0A0000200000200A554152CA
:10119000542053616D706C652044656D6F20456E01
:1011A000642E0A00F0B587B004460D462748014674
:1011B0000EC9C06803AE0EC60690002002902448F7
:1011C0004069032109060840060E214880690F2165
:1011D00009020840070A002020630320E060A0689D
:1011E0001C490840A060012E04D1FFF7B9FBB100F3
:1011F00003AA5050002D26D0B10003AA5058791CE4
:10120000FFF71EF96908401829460190FFF718F901
:10121000801E02901049029888420FD9B10003AA9B
:101220005058791CFFF70CF9E90040182946019045
:10123000FFF706F90009801E606204E00321090738
:1012400002980843606207B0F0BD000080150000FE
:10125000000200500FFFF0FFFFFF000070B5FF24F9
:101260003348C569801505422BD022E0304800681C
:10127000C4B2302C02D100202E4908602E480068EC
:1012800001218902884214D22C482D49096844540E
:101290002B4800682B49884201D1002002E02848F1
:1012A0000068401C2649086023480068401C224909
:1012B00008601F48C069C007C00FD7D122A0FEF741
:1012C000C3FF01204002054231D024480088244950
:1012D0000988884204D102211548FFF755FE26E00F
:1012E0000020204908701DE01F481C490988405C07
:1012F0000F49086019480088C11FF83901D1002042
:1013000002E016480088401C1449088008460088FE
:1013100013490988884200D108E012480078401C2F
:10132000104908700F4800780828DDDB00BF70BD49
:10133000000005402000002014000020340400209C
:101340001C000020FF0300000A5472616E736D6977
:101350007373696F6E20546573743A002C04002017
:101360002E040020300400203408002010B504466C
:1013700000BF13480088C11FF83901D1002002E0E6
:101380000F480088401C0F4909888842F1D00E4858
:101390000B49098844540A480088C11FF83901D113
:1013A000002002E006480088401C054908800748E4
:1013B00040680221084202D10448FFF7F9FD10BD40
:1013C0002E0400202C0400203408002000000540DA
:1013D00001460020C043704730B504460D46204604
:1013E000FFF79AFC204630BD00BF06E059201249A5
:1013F000086016200860882008600F4800680128EF
:10140000F4D100BFFFF73AFC00BF00200A49086092
:1014100000BFFFF7D3FCFFF79FFD0848016808A055
:10142000FEF712FF0AA0FEF70FFFFFF7D5FD02E05F
:101430000DA0FEF709FFFBE70001005000000020AF
:101440000A0A4350552040202564487A0A000000CB
:101450000A0A554152542053616D706C65205072D8
:101460006F6772616D0A00000A0A77757368656EAE
:10147000676A756E20777562696E6768616E0A00CB
:1014800010B5044610A02168FEF7DEFE11A06168C9
:10149000FEF7DAFE12A0A168FEF7D6FE13A0E168FF
:1014A000FEF7D2FE14A02169FEF7CEFE15A06169F9
:1014B000FEF7CAFE16A0A169FEF7C6FE17A0E169F5
:1014C000FEF7C2FE10BD0000723020203D203078B3
:1014D00025780A00723120203D20307825780A00D6
:1014E000723220203D20307825780A007233202087
:1014F0003D20307825780A00723132203D20307846
:1015000025780A006C7220203D20307825780A006A
:10151000706320203D20307825780A007073722097
:101520003D20307825780A0010B5044603E0207885
:10153000641CFFF71BFF20780028F8D110BD0000C5
:10154000001BB7000000000080F0FA021027000026
:1015500000000000000000000000000000805101B9
:10156000001BB700000000000000000000000000A9
:101570000000000010270000000000000080510162
:10158000001BB700000000000000000000805101B7
:10159000001BB700000000000000000000805101A7
:1015A000001BB70000000000000000000080510197
:1015B0003031323334353637383941424344454689
:1015C0004030580030313233343536373839616283
:1015D0006364656640307800F81500000000002064
:1015E00034040000040100002C1A00003404002020
:1015F000640900002001000080F0FA0232000000BF
:1016000080F0FA020000000000000000000000006E
:1016100000000000000000000100000000000000C9
:1016200000000000323334350000000000000000EC
:1016300000000000000000000000000000000000AA
:10164000000000000000000000000000000000009A
:10165000000000000000000000000000000000008A
:10166000000000000000000000000000000000007A
:04000005000001D521
:00000001FF
