:020000040000FA
:10000000A80E0020D5010000FB01000081010000C6
:1000100000000000000000000000000000000000E0
:10002000000000000000000000000000FF010000D0
:1000300000000000000000000102000003020000B8
:10004000050200007D13000005020000050200000B
:100050000502000005020000050200000502000084
:1000600005020000F5100000050200000502000076
:100070005511000005020000050200000502000005
:100080000502000005020000050200000502000054
:100090000502000005020000050200000502000044
:1000A0000502000005020000050200000502000034
:1000B00005020000CD070000050200000502000057
:1000C00000F002F800F04DF80CA030C808382418F1
:1000D0002D18A246671EAB4654465D46AC4201D180
:1000E00000F03FF87E460F3E0FCCB6460126334265
:1000F00000D0FB1AA246AB4633431847E014000079
:1001000000150000103A02D378C878C1FAD8520717
:1001100001D330C830C101D504680C6070470000BD
:100120000023002400250026103A01D378C1FBD813
:10013000520700D330C100D50B60704710B5642959
:1001400002D100F08FF810BD782902D100F0C0F87C
:1001500010BD002010BD1FB5C046C0461FBD10B564
:1001600010BD00F0B3FA1146FFF7F5FF01F040F9BA
:1001700000F0CBFA03B4FFF7F2FF03BC00F0D0FAB3
:1001800004207146084202D0EFF3098001E0EFF34A
:1001900008807146004A10479D0D000070B5054665
:1001A0000C46164602E00FCC0FC5103E102EFAD2B8
:1001B000082E02D303CC03C5083E042E07D301CC7E
:1001C00001C5361F03E021782970641C6D1C761E62
:1001D000F9D270BD0F481049016010490160104903
:1001E0000160104A10491160104A11491160002144
:1001F00001601048804710480047FEE7FEE7FEE731
:10020000FEE7FEE7FEE700000C480D490B4A0D4BE8
:100210007047000000010050590000001600000067
:100220008800000024000050A55A00008003005000
:100230001F000000A10F0000C1000000A80A00205C
:10024000A80E0020A80A00200FB4054910B503AA83
:10025000029800F0FBF910BC08BC04B0184700007D
:100260000C000020F7B5002675291068009914A528
:1002700011D0C046C046002802DA404211A508E06D
:10028000009909688A0701D50FA502E0490704D53E
:100290000EA5012601E0C046C046009F0024243779
:1002A00004E000F0E7F930313955641C0028F8D13A
:1002B00033462A462146009800F072F9FEBD000040
:1002C000000000002D0000002B00000020000000B6
:1002D00070B504460D4621461068C046C0462168E8
:1002E000090502D50F4A7A4402E00E4A7A440E32DA
:1002F00023460021243305E00607360F965D5E5441
:10030000491C00090028F7D120680023000705D503
:10031000702D03D0002901D011320223204600F0B5
:100320003FF970BDCA120000F3B50446002081B049
:1003300082E0E1682046884700287FD0252802D047
:100340006268A16875E0E168204600268847054696
:100350000020E0610746A0612A2D0BD0294601222A
:1003600030390A292BD2002A29D0B8000019009070
:10037000816119E00298BA00121902C891610290D5
:100380002046E1688847012F05461AD1E069002818
:1003900022DA202086431FE000980A218069484322
:1003A00000994019303888612046E1688847054641
:1003B0000120294630390A2901D20028ECD1012F29
:1003C0000AD02E2D08D12046E16888470546202016
:1003D00006437F1C022FBFDBA069002803DA4042DE
:1003E000A06101200643F00701D010208643002DB4
:1003F00024D028464138192803D80120C0020643DA
:100400002035204626602946029A1646FFF796FEBA
:1004100000280BD0012806D0F61DF008C0000830D7
:10042000029086E70AE0361D029682E76268284657
:10043000A1689047206A401C20627AE7206AFEBDCE
:10044000002203098B422CD3030A8B4211D30023D1
:100450009C464EE003460B433CD4002243088B42AB
:1004600031D303098B421CD3030A8B4201D3944638
:100470003FE0C3098B4201D3CB01C01A524183092B
:100480008B4201D38B01C01A524143098B4201D3E5
:100490004B01C01A524103098B4201D30B01C01A10
:1004A0005241C3088B4201D3CB00C01A524183088A
:1004B0008B4201D38B00C01A524143088B4201D3B7
:1004C0004B00C01A5241411A00D201465241104617
:1004D00070475DE0CA0F00D04942031000D340428C
:1004E000534000229C4603098B422DD3030A8B42C2
:1004F00012D3FC22890112BA030A8B420CD3890160
:1005000092118B4208D3890192118B4204D3890145
:100510003AD0921100E08909C3098B4201D3CB0183
:10052000C01A524183098B4201D38B01C01A524138
:1005300043098B4201D34B01C01A524103098B423C
:1005400001D30B01C01A5241C3088B4201D3CB0027
:10055000C01A524183088B4201D38B00C01A52410A
:10056000D9D243088B4201D34B00C01A5241411AE1
:1005700000D20146634652415B10104601D340420F
:10058000002B00D54942704763465B1000D34042C0
:1005900001B50020C046C04602BD70477047704795
:1005A000FFB504460D4681B02430009021688806CE
:1005B00004D51022E0699143216000E0012000276A
:1005C000A84200DD471B0498A1697A191018081A7F
:1005D000A0612068C00602D42046C046C04600265E
:1005E00008E003986268A168805D9047206A401C1B
:1005F000761C206204988642F3DB2068C0060AD588
:100600002046C046C04606E06268A1683020904798
:10061000206A401C206238467F1E0028F4DC07E078
:1006200000986268A168405D9047206A401C206283
:1006300028466D1E0028F3DC2046C046C0462168CF
:100640000220090600D4012005B0F0BD084B70B5AA
:100650000C467B4400F027F80546204600F0BCFE1F
:10066000002802D00020C04370BD284670BD0000A5
:100670008B0D000001468008081A02091018020AB2
:100680001018020C1018C008820012185200891AA3
:1006900001E00A39401C0A29FBD2704701694A1C53
:1006A00002610878704700B58FB002910021059172
:1006B0000549019379440391114604906846FFF778
:1006C00033FE0FB000BD0000E5FFFFFF754600F0F0
:1006D00023F8AE46050069465346C008C00085466B
:1006E00018B020B5FFF790FD60BC00274908B6465A
:1006F0000026C0C5C0C5C0C5C0C5C0C5C0C5C0C531
:10070000C0C5403D49008D4670470446C046C046BE
:100710002046FFF72FFD000000487047440A0020E4
:1007200001491820ABBEFEE72600020070470521F4
:100730000907C96801221207114305221207D16077
:100740001146C96801221207914305221207D160A0
:1007500070470000CA07D20F05D00C4A126A022364
:100760009A430A4B1A620222114205D0074A926A42
:1007700002239A43054B9A620422114205D0034A90
:10078000D26A02239A43014BDA62704700000E409E
:10079000CA07D20F05D00C4A126A02231A430A4B29
:1007A0001A620222114205D0074A926A02231A43B2
:1007B000054B9A620422114205D0034AD26A0223F1
:1007C0001A43014BDA62704700000E4001200249D3
:1007D00008600249086370474004002000000E4092
:1007E00030B504460748006A074D284008431043C7
:1007F000044D28622846406A000A000218436862D5
:1008000030BD000000000E40F3FBFFFF0649820FE1
:1008100092008958C306DB0E01229A409143024A96
:10082000830F9B00D1507047040200500649820F8D
:1008300092008958C306DB0E01229A401143024AF6
:10084000830F9B00D150704704020050F3B589B06C
:100850000C460120000453490862099800280ED173
:1008600008460068012108434E490860012000F055
:100870001FFA002006904C48089002250EE04948D7
:1008800000680421084347490860102000F010FA6E
:100890000120C0040690454808900425444884423D
:1008A00004D84010844201D9002712E04148844214
:1008B00005D84010844202D90127640009E03E486F
:1008C000844205D84010844202D30327A40000E0EC
:1008D00057E00020C043039000200190029034E0D4
:1008E00029460898FFF7ACFD0590344905988842E1
:1008F0002AD933490598884226D2022007901EE063
:10090000059E07994E432B48864215D340008642E8
:1009100012D8A64201D9301B00E0A01B0490039915
:100920000498884208D20498039001950798029091
:100930000398002800D106E00798401C0790214941
:1009400007988842DCD900BF6D1C212DC8D9B80397
:10095000069908430199891E490208430299891E94
:10096000084310490862042000F0A2F9781C019A9B
:10097000504301460898FFF763FD029948430BB0C6
:10098000F0BD0998002803D10F480649086202E02B
:100990000E4804490862042000F08AF900F09CF82F
:1009A000EDE7000000020050001BB700008051017D
:1009B00000C2EB0B00E1F50580F0FA02006A1800B6
:1009C000C0E1E400010200002EC200006FD600006A
:1009D000024909680143014A116070470002005052
:1009E000FEB50020029019A0006800901848046A23
:1009F0000013044201D00020FEBD0120C0040442C7
:100A000001D0144D00E0144D01204004044201D0F7
:100A10002846F1E7032080032040800B69460A5CEA
:100A20000192E005C00D871C1F2040022040400AB3
:100A3000861C019A72431146AA087A431046FFF7B2
:100A4000FFFC800002900298D6E700000102020439
:100A50000002005000805101001BB700FEB50020CD
:100A6000029019A0006800901848046A001304421C
:100A700001D00020FEBD0120C004044201D0144D6D
:100A800000E0144D01204004044201D02846F1E763
:100A9000032080032040800B69460A5C0192E00538
:100AA000C00D871C1F2040022040400A861C019A6E
:100AB00072431146AA087A431046FFF7C1FC800032
:100AC00002900298D6E700000102020400020050E2
:100AD00000805101001BB700FEB50020029019A054
:100AE000006800901848046A0013044201D00020F6
:100AF000FEBD0120C004044201D0144D00E0144D9D
:100B000001204004044201D02846F1E7032080037D
:100B10002040800B69460A5C0192E005C00D871CED
:100B20001F2040022040400A861C019A7243114651
:100B3000AA087A431046FFF783FC800002900298CF
:100B4000D6E70000010202040002005000805101BB
:100B5000001BB70070B504462248C0681021084049
:100B600005462148844201D9044603E01F488442D7
:100B700000D204461B480068042108431949086054
:100B8000102000F095F8174800690721084315491F
:100B9000086108468069000900018861084600680C
:100BA000C007C00F05D021460020FFF74FFE0446C6
:100BB0000AE021460120C004FFF748FE0446094828
:100BC000C0681021084005460021022000F010F8FE
:100BD000002D05D1034800680421884301490860BD
:100BE000204670BD0002005080F0FA0240787D017E
:100BF00070B504460D461548C068102108400646E9
:100C000012480068084311490860102000F050F8AD
:100C10000E480069C008C000C01D0C4908610846A4
:100C20008069000900012843886108460069C008FE
:100C3000C0002043086100F081F9002E05D103486F
:100C40000068102188430149086070BD000200500F
:100C5000F0B50B460021002400250601760F0FD0C9
:100C6000124E8700BF0FBF00F41921680601770FED
:100C7000C601F60EB7400E46BE431E433146216004
:100C80008603360E10D0094E08360703BF0FBF008B
:100C9000F51929688603360EF6438705FF0EBE4018
:100CA0000E40164331462960F0BD0000100200508E
:100CB0000146074A05E01046521E002801DC0020CC
:100CC00070470448C06808408842F4D10120F7E723
:100CD000804F12000002005010B51023002299012D
:100CE0001648FFF77DFD1548006A012108431349A6
:100CF00008620120086301211048FFF749FD1D200B
:100D000000F06CF800200E4908600C48006A0121D0
:100D1000C90208430949086200BF09480068002861
:100D2000FBD001210548FFF715FD0448006984B296
:100D30002246214603A0FFF787FA10BD00000E40AF
:100D400040040020436F6E76657273696F6E207287
:100D50006573756C74206F66206368616E6E656C78
:100D600020323A203078255820282564290A0A00A4
:100D700070B5034600200EE0012484400C4209D0E7
:100D80001C6846000325B540AC4346001546B540F7
:100D90002C431C60401C0828EED370BD044604A000
:100DA000FFF752FA204600F079FB00BFFEE7000093
:100DB000496E2048617264204661756C74204861F8
:100DC0006E646C65720A0000C206D20E0121914069
:100DD000014A11607047000080E100E0C206D20EB7
:100DE00001219140014A11607047000000E100E0DC
:100DF00010B50420FFF7ECFD1020FFF759FF00218C
:100E00000720FFF7F5FE0120FFF7E2FD0120FFF7C5
:100E10004FFF2848FFF79EFE27482849886028484A
:100E2000486100F08BF82748FFF700FD03225204C9
:100E30000C212448FFF70CFF2348FFF7F7FC0022A2
:100E400011462148FFF704FF05200007C06B1F492A
:100E5000084005210907C8630846C06B0321084301
:100E600005210907C863012204211948FFF780FF03
:100E70001748C03840680F21090408431449C03995
:100E80004860084640680121090508431049C039F7
:100E9000486005200007406B0E49084005210907FE
:100EA00048630846406B1F21084305210907486332
:100EB00010BD000080F0FA020100010000020050A5
:100EC000030000011CFE2356103D8057FCFCFFFF71
:100ED00000410050E0E0FFFF0849020E895801225E
:100EE00082400A430549030ECA50020E8958012266
:100EF00082409143014A030ED150704708000050D0
:100F000000B50346184600F001F800BD00BF0A49CD
:100F100089690122D2051142F9D1074908600A28DE
:100F200009D100BF044989690122D2051142F9D1D2
:100F30000D21014A116070470000054070B512484C
:100F4000006945076D0FFFF74BFD10490860022D42
:100F500003D0A8000E490C5801E00C4804680A4868
:100F600080690007000F461C31462046FFF768FAEB
:100F7000084908600849074800684A108018FFF7C8
:100F80005FFA0649086070BD0002005008000020AA
:100F9000441500000000002040420F000400002023
:100FA0007047000010B51248FFF740FC00221146C0
:100FB0000F48FFF74DFE0A220121C9060D4800F037
:100FC0005DF800BF0B480068012149070843094943
:100FD000086000BF0920FFF701FF00BF0548006857
:100FE0000121890708430349086000BF10BD0000C4
:100FF0000300C05E2000014030B589B005462022C4
:10100000194901A8FFF7CAF81848854206D11848BF
:101010004069072109020840040A1AE013482030F9
:10102000854206D112484069072109030840040B94
:101030000FE01048854206D10D4840690721090498
:101040000840040C05E00A484069072109050840EA
:10105000040D022C03D10848006809B030BDA0007F
:1010600001A90858F9E700006415000000000140DC
:10107000000200500000114000000020FEB50546AF
:101080000F4616462846FFF7B7FF0446002001909A
:1010900000906008B04202D2022001901BE00120C3
:1010A0008006844203D307200090E4080EE001206C
:1010B0004006844203D303200090A40806E00120E8
:1010C0000006844202D30120009064083146204685
:1010D000FFF7B6F9019000983843286001986860DE
:1010E000009A521C0198504301462046FFF7A8F988
:1010F000FEBD000000BF01201249886000BF1248F9
:101100000068401C10490860084600680A2803D19E
:1011100001200E49886008E00B480068142804D1BB
:1011200000200A4988600849086009480068401C96
:101130000749086008460068642801D1002008605B
:10114000704700002000014028000020804200502D
:101150002C00002010B500F089F810BD10B507482C
:10116000FFF7BAFE4B21C901054800F023F8002023
:10117000044908800449088010BD000010000004E4
:1011800000000540360400203404002070B50446F9
:101190000D466068A84360600548844203D10C2076
:1011A000FFF712FE02E00D20FFF70EFE70BD0000FB
:1011B00000000540F0B587B004460D4627480146BB
:1011C0000EC9C06803AE0EC60690002002902448E7
:1011D0004069032109060840060E214880690F2155
:1011E00009020840070A002020630320E060A0688D
:1011F0001C490840A060012E04D1FFF72FFCB1006C
:1012000003AA5050002D26D0B10003AA5058791CD3
:10121000FFF716F96908401829460190FFF710F901
:10122000801E02901049029888420FD9B10003AA8B
:101230005058791CFFF704F9E9004018294601903D
:10124000FFF7FEF80009801E606204E00321090731
:1012500002980843606207B0F0BD000084150000EA
:10126000000200500FFFF0FFFFFF000070B5FF24E9
:101270003348C569801505422BD022E0304800680C
:10128000C4B2302C02D100202E4908602E480068DC
:1012900001218902884214D22C482D4909684454FE
:1012A0002B4800682B49884201D1002002E02848E1
:1012B0000068401C2649086023480068401C2249F9
:1012C00008601F48C069C007C00FD7D122A0FEF731
:1012D000BBFF01204002054231D024480088244948
:1012E0000988884204D102211548FFF74FFF26E004
:1012F0000020204908701DE01F481C490988405CF7
:101300000F49086019480088C11FF83901D1002031
:1013100002E016480088401C1449088008460088EE
:1013200013490988884200D108E012480078401C1F
:10133000104908700F4800780828DDDB00BF70BD39
:10134000000005402000002014000020440400207C
:101350001C000020FF0300000A5472616E736D6967
:101360007373696F6E20546573743A0034040020FF
:10137000360400203E0400204409002010B50B482C
:10138000006808210840C00801280DD107480068FE
:1013900024218843082108430449086001200449A6
:1013A000087004A0FEF750FF10BD00000040004090
:1013B000240000205744542074696D652D6F7574A6
:1013C00020696E74657272757074206F63637572D4
:1013D0007265642E0A00000001460020C043704779
:1013E00030B504460D462046FFF78AFD204630BD45
:1013F00000BF06E0592017490860162008608820C1
:101400000860144800680128F4D100BFFFF7F0FC21
:1014100000BF00200F49086000BFFFF7C3FDFFF7C2
:101420009DFE0D4801680DA0FEF70EFFFFF754FC6E
:101430001148FFF77CF91148FFF7E8F900BF1D20BC
:10144000012181400E48016000BF0EA0FEF7FCFEA6
:1014500000BFFEE700010050000000200A5379732E
:1014600074656D20636C6F636B20726174653A20E4
:10147000256420487A00000000000E401CFE235620
:1014800080E100E00A45786974204144432073619B
:101490006D706C6520636F64650A000010B50446CA
:1014A00010A02168FEF7D0FE11A06168FEF7CCFE07
:1014B00012A0A168FEF7C8FE13A0E168FEF7C4FE03
:1014C00014A02169FEF7C0FE15A06169FEF7BCFEFD
:1014D00016A0A169FEF7B8FE17A0E169FEF7B4FEF9
:1014E00010BD0000723020203D20307825780A00A1
:1014F000723120203D20307825780A007232202079
:101500003D20307825780A00723320203D20307845
:1015100025780A00723132203D20307825780A0083
:101520006C7220203D20307825780A0070632020DE
:101530003D20307825780A00707372203D20307885
:1015400025780A00001BB7000000000080F0FA02B6
:101550001027000000000000000000000000000054
:1015600000805101001BB7000000000000000000D7
:101570000000000000000000102700000000000034
:1015800000805101001BB7000000000000000000B7
:1015900000805101001BB7000000000000000000A7
:1015A00000805101001BB700000000000000000097
:1015B00000805101303132333435363738394142C9
:1015C00043444546403058003031323334353637A5
:1015D000383961626364656640307800FC1500004C
:1015E000000000204404000004010000401A000034
:1015F00044040020640A00002001000080F0FA0288
:101600003200000080F0FA0200000000000000003C
:1016100000000000000000000000000001000000C9
:1016200000000000000000000000000000000000BA
:1016300032333435000000000000000000000000DC
:10164000000000000000000000000000000000009A
:10165000000000000000000000000000000000008A
:10166000000000000000000000000000000000007A
:10167000000000000000000000000000000000006A
:04000005000001D521
:00000001FF
