:020000040000FA
:10000000980F002011020000370200008501000057
:1000100000000000000000000000000000000000E0
:100020000000000000000000000000003B02000093
:1000300000000000000000003D0200003F02000040
:1000400041020000AD170000410200004102000023
:100050004102000041020000410200004102000094
:10006000410200002513000041020000410200008F
:10007000851300004102000041020000410200001F
:100080004102000041020000410200004102000064
:100090004102000041020000410200004102000054
:1000A0004102000041020000410200004102000044
:1000B000410200002508000041020000410200004A
:1000C00000F002F800F04FF80CA030C808382418EF
:1000D0002D18A246671EAB4654465D46AC4201D180
:1000E00000F041F87E460F3E0FCCB6460126334263
:1000F00000D0FB1AA246AB46334318476C190000E8
:100100008C190000103A02D378C878C1FAD8520787
:1001100001D330C830C101D504680C6070470000BD
:100120000023002400250026103A01D378C1FBD813
:10013000520700D330C100D50B60704710B5642959
:1001400002D100F0ADF810BD782902D100F0DEF840
:1001500010BD002010BD1FB5C046C04600F0A5F977
:100160001FBD10B510BD00F0EFFA1146FFF7F3FF09
:1001700001F080FB00F007FB03B4FFF7F2FF03BCC4
:1001800000F00CFB04207146084202D0EFF3098016
:1001900001E0EFF308807146004A1047F90E0000B5
:1001A00030B40C490C684A6823681068C0181060A5
:1001B000241D121D8C4207D28A4208D20C604A606C
:1001C00030BC4000400870470C00DC3CF6E70A00F9
:1001D000DC3AF3E72C0B002070B505460C461646BA
:1001E00002E00FCC0FC5103E102EFAD2082E02D31B
:1001F00003CC03C5083E042E07D301CC01C5361F2E
:1002000003E021782970641C6D1C761EF9D270BD44
:100210000F48104901601049016010490160104AFF
:1002200010491160104A1149116000210160104805
:10023000804710480047FEE7FEE7FEE7FEE7FEE7DF
:10024000FEE700000C480D490B4A0D4B70470000BB
:100250000001005059000000160000008800000056
:1002600024000050A55A0000800300501F00000029
:10027000D1110000C1000000980B0020980F002051
:10028000980B00200FB4054910B503AA029800F09E
:100290001BFA10BC08BC04B0184700000C0000207A
:1002A000F7B5002675291068009914A511D0C0462D
:1002B000C046002802DA404211A508E0009909680A
:1002C0008A0701D50FA502E0490704D50EA501262E
:1002D00001E0C046C046009F0024243704E000F03F
:1002E00007FA30313955641C0028F8D133462A46C4
:1002F0002146009800F092F9FEBD000000000000C9
:100300002D0000002B0000002000000070B5044606
:100310000D4621461068C046C0462168090502D531
:100320000F4A7A4402E00E4A7A440E3223460021F4
:10033000243305E00607360F965D5E54491C00091C
:100340000028F7D120680023000705D5702D03D0C1
:10035000002901D011320223204600F05FF970BD60
:100360001A170000F3B50446002081B082E0E1686E
:100370002046884700287FD0252802D06268A168DF
:1003800075E0E16820460026884705460020E061C8
:100390000746A0612A2D0BD02946012230390A29AF
:1003A0002BD2002A29D0B80000190090816119E0F1
:1003B0000298BA00121902C8916102902046E168C1
:1003C0008847012F05461AD1E069002822DA20204B
:1003D00086431FE000980A2180694843009940192C
:1003E000303888612046E168884705460120294663
:1003F00030390A2901D20028ECD1012F0AD02E2D44
:1004000008D12046E16888470546202006437F1C26
:10041000022FBFDBA069002803DA4042A06101205F
:100420000643F00701D010208643002D24D0284633
:100430004138192803D80120C00206432035204640
:1004400026602946029A1646FFF778FE00280BD050
:10045000012806D0F61DF008C0000830029086E79B
:100460000AE0361D029682E762682846A168904736
:10047000206A401C20627AE7206AFEBD0C4A30B533
:1004800011460C4C44310B46C03B0B62CA6137210C
:1004900006E0020C8D0012185A51074A5043001909
:1004A0000A46491E002AF4DC30BD0120E6E70000C0
:1004B000CC0A0020E119D666CD0D01000022030907
:1004C0008B422CD3030A8B4211D300239C464EE06F
:1004D00003460B433CD4002243088B4231D303092B
:1004E0008B421CD3030A8B4201D394463FE0C309DD
:1004F0008B4201D3CB01C01A524183098B4201D3F5
:100500008B01C01A524143098B4201D34B01C01ADF
:10051000524103098B4201D30B01C01A5241C30857
:100520008B4201D3CB00C01A524183088B4201D3C6
:100530008B00C01A524143088B4201D34B00C01AB2
:100540005241411A00D201465241104670475DE0C7
:10055000CA0F00D04942031000D34042534000224A
:100560009C4603098B422DD3030A8B4212D3FC22F3
:10057000890112BA030A8B420CD3890192118B4272
:1005800008D3890192118B4204D389013AD0921188
:1005900000E08909C3098B4201D3CB01C01A524143
:1005A00083098B4201D38B01C01A524143098B420C
:1005B00001D34B01C01A524103098B4201D30B01F5
:1005C000C01A5241C3088B4201D3CB00C01A52411A
:1005D00083088B4201D38B00C01A5241D9D2430801
:1005E0008B4201D34B00C01A5241411A00D201463E
:1005F000634652415B10104601D34042002B00D5A8
:100600004942704763465B1000D3404201B5002069
:10061000C046C04602BD704770477047FFB50446EC
:100620000D4681B0243000902168880604D5102240
:10063000E0699143216000E001200027A84200DD2D
:10064000471B0498A1697A191018081AA06120683C
:10065000C00602D42046C046C046002608E00398E3
:100660006268A168805D9047206A401C761C206209
:1006700004988642F3DB2068C0060AD52046C046AF
:10068000C04606E06268A16830209047206A401C9E
:10069000206238467F1E0028F4DC07E0009862687C
:1006A000A168405D9047206A401C206228466D1E6C
:1006B0000028F3DC2046C046C04621680220090617
:1006C00000D4012005B0F0BD084B70B50C467B444A
:1006D00000F027F80546204601F0C0F8002802D0B7
:1006E0000020C04370BD284670BD0000931100007B
:1006F00001468008081A02091018020A1018020C94
:100700001018C008820012185200891A01E00A3934
:10071000401C0A29FBD2704701694A1C0261087813
:10072000704700B58FB002910021059105490193F2
:1007300079440391114604906846FFF713FE0FB009
:1007400000BD0000E5FFFFFF754600F023F8AE4650
:10075000050069465346C008C000854618B020B55C
:10076000FFF770FD60BC00274908B6460026C0C5EB
:10077000C0C5C0C5C0C5C0C5C0C5C0C5C0C5403D59
:1007800049008D4670470446C046C0462046FFF7E4
:10079000F3FC000000487047340B0020014918208A
:1007A000ABBEFEE72600020070470000CA07D20F6A
:1007B00005D00C4A126A02239A430A4B1A6202229B
:1007C000114205D0074A926A02239A43054B9A6266
:1007D0000422114205D0034AD26A02239A43014BF4
:1007E000DA62704700000E40CA07D20F05D00C4AEB
:1007F000126A02231A430A4B1A620222114205D0DE
:10080000074A926A02231A43054B9A620422114254
:1008100005D0034AD26A02231A43014BDA627047B9
:1008200000000E4001200249086002490863704739
:100830004C04002000000E4030B504460748006A12
:10084000074D284008431043044D28622846406A5B
:10085000000A00021843686230BD000000000E402C
:10086000F3FBFFFF0649820F92008958C306DB0E97
:1008700001229A401143024A830F9B00D1507047D6
:1008800004020050F3B589B00C460120000453491E
:100890000862099800280ED1084600680121084323
:1008A0004E490860012000F01FFA002006904C48D5
:1008B000089002250EE04948006804210843474992
:1008C0000860102000F010FA0120C004069045488E
:1008D000089004254448844204D84010844201D939
:1008E000002712E04148844205D84010844202D9D2
:1008F0000127640009E03E48844205D84010844244
:1009000002D30327A40000E057E00020C043039077
:1009100000200190029034E029460898FFF7CEFDB0
:1009200005903449059888422AD933490598884268
:1009300026D2022007901EE0059E07994E432B48C1
:10094000864215D34000864212D8A64201D9301BF8
:1009500000E0A01B049003990498884208D20498F0
:1009600003900195079802900398002800D106E0B3
:100970000798401C0790214907988842DCD900BF9E
:100980006D1C212DC8D9B803069908430199891E09
:10099000490208430299891E08431049086204204D
:1009A00000F0A2F9781C019A504301460898FFF71D
:1009B00085FD029948430BB0F0BD0998002803D18A
:1009C0000F480649086202E00E4804490862042004
:1009D00000F08AF900F09CF8EDE7000000020050FA
:1009E000001BB7000080510100C2EB0B00E1F505D0
:1009F00080F0FA02006A1800C0E1E4000102000081
:100A00002EC200006FD60000024909680143014A66
:100A10001160704700020050FEB50020029019A03E
:100A2000006800901848046A0013044201D00020B6
:100A3000FEBD0120C004044201D0144D00E0144D5D
:100A400001204004044201D02846F1E7032080033E
:100A50002040800B69460A5C0192E005C00D871CAE
:100A60001F2040022040400A861C019A7243114612
:100A7000AA087A431046FFF721FD800002900298F1
:100A8000D6E700000102020400020050008051017C
:100A9000001BB700FEB50020029019A0006800906E
:100AA0001848046A0013044201D00020FEBD012052
:100AB000C004044201D0144D00E0144D0120400454
:100AC000044201D02846F1E7032080032040800B38
:100AD00069460A5C0192E005C00D871C1F20400298
:100AE0002040400A861C019A72431146AA087A43A4
:100AF0001046FFF7E3FC800002900298D6E7000062
:100B0000010202040002005000805101001BB700E6
:100B1000FEB50020029019A0006800901848046AF1
:100B20000013044201D00020FEBD0120C004044295
:100B300001D0144D00E0144D01204004044201D0C6
:100B40002846F1E7032080032040800B69460A5CB9
:100B50000192E005C00D871C1F2040022040400A82
:100B6000861C019A72431146AA087A431046FFF781
:100B7000A5FC800002900298D6E700000102020462
:100B80000002005000805101001BB70070B5044600
:100B90002248C0681021084005462148844201D9F6
:100BA000044603E01F48844200D204461B48006804
:100BB0000421084319490860102000F095F81748EF
:100BC0000069072108431549086108468069000942
:100BD0000001886108460068C007C00F05D02146A3
:100BE0000020FFF74FFE04460AE021460120C00422
:100BF000FFF748FE04460948C06810210840054632
:100C00000021022000F010F8002D05D103480068F3
:100C10000421884301490860204670BD000200504D
:100C200080F0FA0240787D0170B504460D46154803
:100C3000C068102108400646124800680843114960
:100C40000860102000F050F80E480069C008C0008D
:100C5000C01D0C490861084680690009000128434D
:100C6000886108460069C008C0002043086100F0A0
:100C70007DFA002E05D10348006810218843014900
:100C8000086070BD00020050F0B50B460021002442
:100C900000250601760F0FD0124E8700BF0FBF0050
:100CA000F41921680601770FC601F60EB7400E460B
:100CB000BE431E43314621608603360E10D0094ED6
:100CC00008360703BF0FBF00F51929688603360EE3
:100CD000F6438705FF0EBE400E401643314629609D
:100CE000F0BD0000100200500146074A05E0104622
:100CF000521E002801DC002070470448C0680840EC
:100D00008842F4D10120F7E7804F12000002005022
:100D100010B51023002299014A48FFF78DFD49487C
:100D2000006A012108434749086201200863012144
:100D30004448FFF759FD1D2000F008F90020424902
:100D400008604048006A0121C90208433D49086221
:100D500000BF3D4800680028FBD001213948FFF75B
:100D600025FD3848006984B28F2C05DDA22C03DAFA
:100D70001220364908705AE0FF205F30844207DDB8
:100D8000FF207330844203DA1120304908704EE0AE
:100D90002F48844207DD2E481230844203DA1020A7
:100DA0002A49087043E02A48CE30844207DD2848AB
:100DB000E330844203DA0F202449087037E02548E5
:100DC000844207DDFF208000844203DA0E201F49A1
:100DD00008702CE01F48BF30844207DD1D48D43026
:100DE000844203DA0D201949087020E01A48844231
:100DF00007DD19481330844203DA0C2013490870C8
:100E000015E01548DD30844207DD1348E93084429F
:100E100003DA0B200D49087009E0372040018442B5
:100E200005DD0E48844202DA0A20084908700748A6
:100E3000007802460A3A0548017809A0FFF722FA2D
:100E400010BD000000000E404C04002048040020AB
:100E500043020000E70300007C050000F1060000EB
:100E6000436F6E76657273696F6E20726573756C11
:100E700074206F66206368616E6E656C20323A2064
:100E80003078255820282564290A0A0070B50346C1
:100E900000200EE0012484400C4209D01C6846006A
:100EA0000325B540AC4346001546B5402C431C60B5
:100EB000401C0828EED370BD70B504460D46204690
:100EC000FFF7DCFA00200B4908700EE0FFF768F925
:100ED0000646C821FFF7FCFAC8B2064909786854EB
:100EE00004480078401C0349087002480078A0427A
:100EF000ECD370BD49040020044604A0FFF7C2F9FA
:100F0000204600F005FD00BFFEE70000496E2048C6
:100F1000617264204661756C742048616E646C6512
:100F2000720A0000C206D20E01219140014A1160EE
:100F30007047000080E100E0C206D20E012191401E
:100F4000014A11607047000000E100E0C206D20EC5
:100F500001219140014A11607047000000E100E06A
:100F600010B5174880781649C9784840144909795E
:100F70004840134949794840114989794840104906
:100F8000C97948400E49097A48400D49497A484094
:100F90000B49897A88420AD10948807A002806D00C
:100FA00008A0FFF76FF900201049086007E010481B
:100FB000006824218843082108430D49086010BDBA
:100FC000500400200A2A2A2A205265636569766542
:100FD0002020522E2E2E205245434549564520446E
:100FE000417441202A2A2A0A00000000240000201F
:100FF0000040004010B50420FFF706FD1020FFF769
:1010000073FE00210720FFF70FFE0120FFF7FCFC15
:101010000120FFF769FE2848FFF7B8FD2748284957
:1010200088602848486100F0A1F82748FFF71AFCBB
:10103000032252040C212448FFF726FE2348FFF721
:1010400011FC002211462148FFF71EFE0520000773
:10105000C06B1F49084005210907C8630846C06BDB
:101060000321084305210907C86301220421194807
:10107000FFF70CFF1748C03840680F2109040843E8
:101080001449C039486008464068012109050843F1
:101090001049C039486005200007406B0E490840E0
:1010A0000521090748630846406B1F2108430521B5
:1010B0000907486310BD000080F0FA02010001003A
:1010C00000020050030000011CFE2356103D805713
:1010D000FCFCFFFF00410050E0E0FFFF0849020E6A
:1010E0008958012282400A430549030ECA50020E64
:1010F0008958012282409143014A030ED150704722
:101100000800005006E059200549086016200860D4
:1011100088200860024800680128F4D17047000068
:101120000001005000B50346184600F001F800BD6C
:1011300000BF0A4989690122D2051142F9D1074944
:1011400008600A2809D100BF044989690122D20533
:101150001142F9D10D21014A11607047000005408C
:1011600010B50446204600F027FC10BD70B51248AB
:10117000006945076D0FFFF74FFC10490860022D0D
:1011800003D0A8000E490C5801E00C4804680A4836
:1011900080690007000F461C31462046FFF78EF994
:1011A000084908600849074800684A108018FFF796
:1011B00085F90649086070BD000200500800002053
:1011C000D01900000000002040420F000400002061
:1011D0007047000010B51248FFF744FB002211468B
:1011E0000F48FFF751FD0A220121C9060D4800F002
:1011F0005DF800BF0B480068012149070843094911
:10120000086000BF0920FFF7A1FE00BF0548006885
:101210000121890708430349086000BF10BD000091
:101220000300C05E2000014030B589B00546202291
:10123000194901A8FEF7D0FF1848854206D1184881
:101240004069072109020840040A1AE013482030C7
:10125000854206D112484069072109030840040B62
:101260000FE01048854206D10D4840690721090466
:101270000840040C05E00A484069072109050840B8
:10128000040D022C03D10848006809B030BDA0004D
:1012900001A90858F9E70000F0190000000001401A
:1012A000000200500000114000000020FEB505467D
:1012B0000F4616462846FFF7B7FF04460020019068
:1012C00000906008B04202D2022001901BE0012091
:1012D0008006844203D307200090E4080EE001203A
:1012E0004006844203D303200090A40806E00120B6
:1012F0000006844202D30120009064083146204653
:10130000FFF7DCF801900098384328600198686086
:10131000009A521C0198504301462046FFF7CEF830
:10132000FEBD000000BF01201249886000BF1248C6
:101330000068401C10490860084600680A2803D16C
:1013400001200E49886008E00B480068142804D189
:1013500000200A4988600849086009480068401C64
:101360000749086008460068642801D10020086029
:1013700070470000200001402C00002080420050F7
:101380003000002010B500F09BF910BD10B50748E3
:10139000FFF7A4FE4B21C901054800F037F80020F3
:1013A000044908800449088010BD000010000004B2
:1013B000000005403C0400203A04002070B50446BB
:1013C0000D466068A84360600548844203D10C2044
:1013D000FFF7A8FD02E00D20FFF7A4FD70BD00009F
:1013E0000000054070B504460D4660682843606003
:1013F0000548844203D10C20FFF79EFD02E00D203A
:10140000FFF79AFD70BD000000000540F0B587B001
:1014100004460D46274801460EC9C06803AE0EC6F5
:1014200006900020029024484069032109060840E4
:10143000060E214880690F2109020840070A002092
:1014400020630320E060A0681C490840A060012ED2
:1014500004D1FFF71FFBB10003AA5050002D26D086
:10146000B10003AA5058791CFFF728F86908401802
:1014700029460190FFF722F8801E02901049029839
:1014800088420FD9B10003AA5058791CFFF716F80B
:10149000E900401829460190FFF710F80009801E66
:1014A000606204E00321090702980843606207B004
:1014B000F0BD0000101A0000000200500FFFF0FF06
:1014C000FFFF000010B5FE2027490870FD2048707E
:1014D00010208870254800880012C87023480088B2
:1014E00008712348008848712148008800128871DB
:1014F0002048007820490860084600680D301F49E0
:1015000048432C381C490860084600680002000A5D
:101510000860084600680002000E1349C8711648AA
:1015200000680004000E08721348006848720846FC
:101530008078C97848400C49097948400A49497976
:1015400048400949897948400749C97948400649CE
:10155000097A48400449497A484003498872084654
:10156000FFF7FEFD10BD00005008002044040020DD
:101570004604002048040020140000204C4D0100C7
:1015800010B520484068132108431E4948600C20CC
:10159000FFF7DCFC2AE01C490420FFF78DFC1A4809
:1015A00000780002194908801748407809880843E4
:1015B00016490880144880780002154908801248AE
:1015C000C0780988084312490880FFF7A1FB00F0A2
:1015D00029F800BF0F4800686428FBD00E48006857
:1015E0002C218843012108430B4908600B480068FF
:1015F000002803D00A4800780028CCD001200749F1
:10160000086010BD000005403E0400204404002096
:10161000460400203000002000400040240000204C
:101620002800002010B5FE2022490870FD204870D7
:101630009020887020480088FF21483148430004EA
:10164000000E1C49C8701C480088472148431949AE
:1016500008711A480088B021484316494871174854
:101660000088B02148430004000E12498871DF2031
:10167000C871262008723D20487208468078C978D3
:1016800048400C49097948400A4949794840094984
:10169000897948400749C97948400649097A48404C
:1016A0000449497A4840034988720846FFF758FDC3
:1016B00010BD000050080020440400204604002013
:1016C00070B5FF253048C4698015044223D01DE061
:1016D0002D480068C5B22D48006801218902884262
:1016E00014D22B482B49096845542A4800682A49D6
:1016F000884201D1002002E026480068401C2549AC
:10170000086022480068401C204908601E48C069E3
:10171000C007C00FDCD101204002044231D01F4875
:1017200000881F490988884204D102211648FFF722
:1017300045FE26E000201B4908701DE01A481749A5
:101740000988405C1049086014480088C11FF839B6
:1017500001D1002002E011480088401C0F49088098
:10176000084600880E490988884200D108E00D48E3
:101770000078401C0B4908700A4800780828DDDB17
:1017800000BFFFF7EDFB70BD000005401800002012
:101790005004002020000020FF0300003A04002035
:1017A0003C0400204904002050090020094800683A
:1017B00008210840C00801280AD1064800682421F1
:1017C0008843082108430349086001200249087042
:1017D00070470000004000402800002030B5054C54
:1017E00061608024044355002C431D012C43014DAE
:1017F0002C6030BD0040004010B5044600BF1348C7
:101800000088C11FF83901D1002002E00F4800888C
:10181000401C0F4909888842F1D00E480B490988BD
:1018200044540A480088C11FF83901D1002002E061
:1018300006480088401C0549088007484068022186
:10184000084202D10448FFF7CDFD10BD3C04002042
:101850003A04002050090020000005400146002005
:10186000C043704730B504460D462046FFF75AFC8A
:10187000204630BD10B5FFF745FCFFF7BBFB00BFAE
:1018800000202049086000BFFFF7A4FCFFF77EFDA1
:101890001D480068042108408008012807D11A4823
:1018A0000068282188430421084317490860FFF78E
:1018B00029FC002015490870002301221946052043
:1018C0000002FFF78BFF00BF0F480068402108436C
:1018D0000D49086000BF0120FFF738FBFFF750FEFD
:1018E00009E0FFF7EFFD084800682C21884301213B
:1018F000084305490860054800780028F1D0002019
:1019000010BD0000000100500040004028000020F1
:1019100010B5044610A02168FEF7B4FC11A0616860
:10192000FEF7B0FC12A0A168FEF7ACFC13A0E168C2
:10193000FEF7A8FC14A02169FEF7A4FC15A06169BC
:10194000FEF7A0FC16A0A169FEF79CFC17A0E169B8
:10195000FEF798FC10BD0000723020203D2030784A
:1019600025780A00723120203D20307825780A0041
:10197000723220203D20307825780A0072332020F2
:101980003D20307825780A00723132203D203078B1
:1019900025780A006C7220203D20307825780A00D6
:1019A000706320203D20307825780A007073722003
:1019B0003D20307825780A0010B5044603E02078F1
:1019C000641CFFF719FF20780028F8D110BD000033
:1019D000001BB7000000000080F0FA021027000092
:1019E0000000000000000000000000000080510125
:1019F000001BB70000000000000000000000000015
:101A000000000000102700000000000000805101CD
:101A1000001BB70000000000000000000080510122
:101A2000001BB70000000000000000000080510112
:101A3000001BB70000000000000000000080510102
:101A400030313233343536373839414243444546F4
:101A500040305800303132333435363738396162EE
:101A60006364656640307800881A0000000000203A
:101A70005004000004010000D81E000050040020A3
:101A8000480B00002001000080F0FA023200000044
:101A900080F0FA02000000000000000000000000DA
:101AA0000000000000000000000000000100000035
:101AB0000000000000000000000000000000000026
:101AC0003233343500000000000000000000000048
:101AD0000000000000000000000000000000000006
:101AE00000000000000000000000000000000000F6
:101AF00000000000000000000000000000000000E6
:101B000000000000000000000000000000000000D5
:0400000500000211E4
:00000001FF
