:020000040000FA
:10000000900F00201102000037020000850100005F
:1000100000000000000000000000000000000000E0
:100020000000000000000000000000003B02000093
:1000300000000000000000003D0200003F02000040
:1000400041020000A9150000410200004102000029
:100050004102000041020000410200004102000094
:1000600041020000D51100004102000041020000E1
:100070003512000041020000410200004102000070
:100080004102000041020000410200004102000064
:100090004102000041020000410200004102000054
:1000A0004102000041020000410200004102000044
:1000B000410200002508000041020000410200004A
:1000C00000F002F800F04FF80CA030C808382418EF
:1000D0002D18A246671EAB4654465D46AC4201D180
:1000E00000F041F87E460F3E0FCCB6460126334263
:1000F00000D0FB1AA246AB4633431847181800003D
:1001000038180000103A02D378C878C1FAD85207DC
:1001100001D330C830C101D504680C6070470000BD
:100120000023002400250026103A01D378C1FBD813
:10013000520700D330C100D50B60704710B5642959
:1001400002D100F0ADF810BD782902D100F0DEF840
:1001500010BD002010BD1FB5C046C04600F0A5F977
:100160001FBD10B510BD00F0EFFA1146FFF7F3FF09
:1001700001F094FA00F007FB03B4FFF7F2FF03BCB1
:1001800000F00CFB04207146084202D0EFF3098016
:1001900001E0EFF308807146004A10473D0E000071
:1001A00030B40C490C684A6823681068C0181060A5
:1001B000241D121D8C4207D28A4208D20C604A606C
:1001C00030BC4000400870470C00DC3CF6E70A00F9
:1001D000DC3AF3E7240B002070B505460C461646C2
:1001E00002E00FCC0FC5103E102EFAD2082E02D31B
:1001F00003CC03C5083E042E07D301CC01C5361F2E
:1002000003E021782970641C6D1C761EF9D270BD44
:100210000F48104901601049016010490160104AFF
:1002200010491160104A1149116000210160104805
:10023000804710480047FEE7FEE7FEE7FEE7FEE7DF
:10024000FEE700000C480D490B4A0D4B70470000BB
:100250000001005059000000160000008800000056
:1002600024000050A55A0000800300501F00000029
:1002700081100000C1000000900B0020900F0020B2
:10028000900B00200FB4054910B503AA029800F0A6
:100290001BFA10BC08BC04B0184700000C0000207A
:1002A000F7B5002675291068009914A511D0C0462D
:1002B000C046002802DA404211A508E0009909680A
:1002C0008A0701D50FA502E0490704D50EA501262E
:1002D00001E0C046C046009F0024243704E000F03F
:1002E00007FA30313955641C0028F8D133462A46C4
:1002F0002146009800F092F9FEBD000000000000C9
:100300002D0000002B0000002000000070B5044606
:100310000D4621461068C046C0462168090502D531
:100320000F4A7A4402E00E4A7A440E3223460021F4
:10033000243305E00607360F965D5E54491C00091C
:100340000028F7D120680023000705D5702D03D0C1
:10035000002901D011320223204600F05FF970BD60
:10036000C6150000F3B50446002081B082E0E168C4
:100370002046884700287FD0252802D06268A168DF
:1003800075E0E16820460026884705460020E061C8
:100390000746A0612A2D0BD02946012230390A29AF
:1003A0002BD2002A29D0B80000190090816119E0F1
:1003B0000298BA00121902C8916102902046E168C1
:1003C0008847012F05461AD1E069002822DA20204B
:1003D00086431FE000980A2180694843009940192C
:1003E000303888612046E168884705460120294663
:1003F00030390A2901D20028ECD1012F0AD02E2D44
:1004000008D12046E16888470546202006437F1C26
:10041000022FBFDBA069002803DA4042A06101205F
:100420000643F00701D010208643002D24D0284633
:100430004138192803D80120C00206432035204640
:1004400026602946029A1646FFF778FE00280BD050
:10045000012806D0F61DF008C0000830029086E79B
:100460000AE0361D029682E762682846A168904736
:10047000206A401C20627AE7206AFEBD0C4A30B533
:1004800011460C4C44310B46C03B0B62CA6137210C
:1004900006E0020C8D0012185A51074A5043001909
:1004A0000A46491E002AF4DC30BD0120E6E70000C0
:1004B000C40A0020E119D666CD0D0100002203090F
:1004C0008B422CD3030A8B4211D300239C464EE06F
:1004D00003460B433CD4002243088B4231D303092B
:1004E0008B421CD3030A8B4201D394463FE0C309DD
:1004F0008B4201D3CB01C01A524183098B4201D3F5
:100500008B01C01A524143098B4201D34B01C01ADF
:10051000524103098B4201D30B01C01A5241C30857
:100520008B4201D3CB00C01A524183088B4201D3C6
:100530008B00C01A524143088B4201D34B00C01AB2
:100540005241411A00D201465241104670475DE0C7
:10055000CA0F00D04942031000D34042534000224A
:100560009C4603098B422DD3030A8B4212D3FC22F3
:10057000890112BA030A8B420CD3890192118B4272
:1005800008D3890192118B4204D389013AD0921188
:1005900000E08909C3098B4201D3CB01C01A524143
:1005A00083098B4201D38B01C01A524143098B420C
:1005B00001D34B01C01A524103098B4201D30B01F5
:1005C000C01A5241C3088B4201D3CB00C01A52411A
:1005D00083088B4201D38B00C01A5241D9D2430801
:1005E0008B4201D34B00C01A5241411A00D201463E
:1005F000634652415B10104601D34042002B00D5A8
:100600004942704763465B1000D3404201B5002069
:10061000C046C04602BD704770477047FFB50446EC
:100620000D4681B0243000902168880604D5102240
:10063000E0699143216000E001200027A84200DD2D
:10064000471B0498A1697A191018081AA06120683C
:10065000C00602D42046C046C046002608E00398E3
:100660006268A168805D9047206A401C761C206209
:1006700004988642F3DB2068C0060AD52046C046AF
:10068000C04606E06268A16830209047206A401C9E
:10069000206238467F1E0028F4DC07E0009862687C
:1006A000A168405D9047206A401C206228466D1E6C
:1006B0000028F3DC2046C046C04621680220090617
:1006C00000D4012005B0F0BD084B70B50C467B444A
:1006D00000F027F80546204600F0D4FF002802D09D
:1006E0000020C04370BD284670BD0000BB0F000055
:1006F00001468008081A02091018020A1018020C94
:100700001018C008820012185200891A01E00A3934
:10071000401C0A29FBD2704701694A1C0261087813
:10072000704700B58FB002910021059105490193F2
:1007300079440391114604906846FFF713FE0FB009
:1007400000BD0000E5FFFFFF754600F023F8AE4650
:10075000050069465346C008C000854618B020B55C
:10076000FFF770FD60BC00274908B6460026C0C5EB
:10077000C0C5C0C5C0C5C0C5C0C5C0C5C0C5403D59
:1007800049008D4670470446C046C0462046FFF7E4
:10079000F3FC0000004870472C0B00200149182092
:1007A000ABBEFEE72600020070470000CA07D20F6A
:1007B00005D00C4A126A02239A430A4B1A6202229B
:1007C000114205D0074A926A02239A43054B9A6266
:1007D0000422114205D0034AD26A02239A43014BF4
:1007E000DA62704700000E40CA07D20F05D00C4AEB
:1007F000126A02231A430A4B1A620222114205D0DE
:10080000074A926A02231A43054B9A620422114254
:1008100005D0034AD26A02231A43014BDA627047B9
:1008200000000E4001200249086002490863704739
:100830004404002000000E4030B504460748006A1A
:10084000074D284008431043044D28622846406A5B
:10085000000A00021843686230BD000000000E402C
:10086000F3FBFFFF0649820F92008958C306DB0E97
:1008700001229A401143024A830F9B00D1507047D6
:1008800004020050F3B589B00C460120000453491E
:100890000862099800280ED1084600680121084323
:1008A0004E490860012000F01FFA002006904C48D5
:1008B000089002250EE04948006804210843474992
:1008C0000860102000F010FA0120C004069045488E
:1008D000089004254448844204D84010844201D939
:1008E000002712E04148844205D84010844202D9D2
:1008F0000127640009E03E48844205D84010844244
:1009000002D30327A40000E057E00020C043039077
:1009100000200190029034E029460898FFF7CEFDB0
:1009200005903449059888422AD933490598884268
:1009300026D2022007901EE0059E07994E432B48C1
:10094000864215D34000864212D8A64201D9301BF8
:1009500000E0A01B049003990498884208D20498F0
:1009600003900195079802900398002800D106E0B3
:100970000798401C0790214907988842DCD900BF9E
:100980006D1C212DC8D9B803069908430199891E09
:10099000490208430299891E08431049086204204D
:1009A00000F0A2F9781C019A504301460898FFF71D
:1009B00085FD029948430BB0F0BD0998002803D18A
:1009C0000F480649086202E00E4804490862042004
:1009D00000F08AF900F09CF8EDE7000000020050FA
:1009E000001BB7000080510100C2EB0B00E1F505D0
:1009F00080F0FA02006A1800C0E1E4000102000081
:100A00002EC200006FD60000024909680143014A66
:100A10001160704700020050FEB50020029019A03E
:100A2000006800901848046A0013044201D00020B6
:100A3000FEBD0120C004044201D0144D00E0144D5D
:100A400001204004044201D02846F1E7032080033E
:100A50002040800B69460A5C0192E005C00D871CAE
:100A60001F2040022040400A861C019A7243114612
:100A7000AA087A431046FFF721FD800002900298F1
:100A8000D6E700000102020400020050008051017C
:100A9000001BB700FEB50020029019A0006800906E
:100AA0001848046A0013044201D00020FEBD012052
:100AB000C004044201D0144D00E0144D0120400454
:100AC000044201D02846F1E7032080032040800B38
:100AD00069460A5C0192E005C00D871C1F20400298
:100AE0002040400A861C019A72431146AA087A43A4
:100AF0001046FFF7E3FC800002900298D6E7000062
:100B0000010202040002005000805101001BB700E6
:100B1000FEB50020029019A0006800901848046AF1
:100B20000013044201D00020FEBD0120C004044295
:100B300001D0144D00E0144D01204004044201D0C6
:100B40002846F1E7032080032040800B69460A5CB9
:100B50000192E005C00D871C1F2040022040400A82
:100B6000861C019A72431146AA087A431046FFF781
:100B7000A5FC800002900298D6E700000102020462
:100B80000002005000805101001BB70070B5044600
:100B90002248C0681021084005462148844201D9F6
:100BA000044603E01F48844200D204461B48006804
:100BB0000421084319490860102000F095F81748EF
:100BC0000069072108431549086108468069000942
:100BD0000001886108460068C007C00F05D02146A3
:100BE0000020FFF74FFE04460AE021460120C00422
:100BF000FFF748FE04460948C06810210840054632
:100C00000021022000F010F8002D05D103480068F3
:100C10000421884301490860204670BD000200504D
:100C200080F0FA0240787D0170B504460D46154803
:100C3000C068102108400646124800680843114960
:100C40000860102000F050F80E480069C008C0008D
:100C5000C01D0C490861084680690009000128434D
:100C6000886108460069C008C0002043086100F0A0
:100C7000D5F9002E05D103480068102188430149A9
:100C8000086070BD00020050F0B50B460021002442
:100C900000250601760F0FD0124E8700BF0FBF0050
:100CA000F41921680601770FC601F60EB7400E460B
:100CB000BE431E43314621608603360E10D0094ED6
:100CC00008360703BF0FBF00F51929688603360EE3
:100CD000F6438705FF0EBE400E401643314629609D
:100CE000F0BD0000100200500146074A05E0104622
:100CF000521E002801DC002070470448C0680840EC
:100D00008842F4D10120F7E7804F12000002005022
:100D100010B51023002299011648FFF78DFD1548E4
:100D2000006A012108431349086201200863012178
:100D30001048FFF759FD1D2000F0AAF800200E49C9
:100D400008600C48006A0121C90208430949086289
:100D500000BF094800680028FBD001210548FFF7C3
:100D600025FD0448006984B22246214603A0FFF70E
:100D700089FA10BD00000E4044040020436F6E76D7
:100D8000657273696F6E20726573756C74206F661F
:100D9000206368616E6E656C20323A203078255889
:100DA00020282564290A0A0070B5034600200EE0B9
:100DB000012484400C4209D01C6846000325B5403C
:100DC000AC4346001546B5402C431C60401C082827
:100DD000EED370BD70B505460C462846FFF74EFBB6
:100DE00000200F49087016E0FFF7DAF90646C8211F
:100DF000FFF76EFBC8B20A490978605408480078CA
:100E0000225C0748017807A0FFF73CFA0448007805
:100E1000401C03490870024800780228E4DB70BDDA
:100E20004304002074656D7061727261795B2564A2
:100E30005D20203D2025640900000000044604A038
:100E4000FFF720FA204600F0B9FC00BFFEE70000E3
:100E5000496E2048617264204661756C7420486157
:100E60006E646C65720A0000C206D20E01219140C8
:100E7000014A11607047000080E100E0C206D20E16
:100E800001219140014A11607047000000E100E03B
:100E9000C206D20E01219140014A11607047000044
:100EA00000E100E010B50420FFF7AEFD1020FFF7D1
:100EB0001BFF00210720FFF7B7FE0120FFF7A4FD6D
:100EC0000120FFF711FF2848FFF760FE2748284957
:100ED00088602848486100F0A1F82748FFF7C2FC65
:100EE000032252040C212448FFF7CEFE2348FFF7CB
:100EF000B9FC002211462148FFF7C6FE0520000775
:100F0000C06B1F49084005210907C8630846C06B2C
:100F10000321084305210907C86301220421194858
:100F2000FFF742FF1748C03840680F210904084303
:100F30001449C03948600846406801210905084342
:100F40001049C039486005200007406B0E49084031
:100F50000521090748630846406B1F210843052106
:100F60000907486310BD000080F0FA02010001008B
:100F700000020050030000011CFE2356103D805764
:100F8000FCFCFFFF00410050E0E0FFFF0849020EBB
:100F90008958012282400A430549030ECA50020EB5
:100FA0008958012282409143014A030ED150704773
:100FB0000800005006E05920054908601620086026
:100FC00088200860024800680128F4D170470000BA
:100FD0000001005000B50346184600F001F800BDBE
:100FE00000BF0A4989690122D2051142F9D1074996
:100FF00008600A2809D100BF044989690122D20585
:101000001142F9D10D21014A1160704700000540DD
:1010100010B50446204600F025FC10BD70B51248FE
:10102000006945076D0FFFF7F7FC10490860022DB6
:1010300003D0A8000E490C5801E00C4804680A4887
:1010400080690007000F461C31462046FFF736FA3C
:10105000084908600849074800684A108018FFF7E7
:101060002DFA0649086070BD0002005008000020FB
:101070007C1800000000002040420F000400002007
:101080007047000010B51248FFF7ECFB0022114634
:101090000F48FFF7F9FD0A220121C9060D4800F0AB
:1010A0005DF800BF0B480068012149070843094962
:1010B000086000BF0920FFF7EBFE00BF054800688D
:1010C0000121890708430349086000BF10BD0000E3
:1010D0000300C05E2000014030B589B005462022E3
:1010E000194901A8FFF778F81848854206D1184831
:1010F0004069072109020840040A1AE01348203019
:10110000854206D112484069072109030840040BB3
:101110000FE01048854206D10D48406907210904B7
:101120000840040C05E00A48406907210905084009
:10113000040D022C03D10848006809B030BDA0009E
:1011400001A90858F9E700009C18000000000140C0
:10115000000200500000114000000020FEB50546CE
:101160000F4616462846FFF7B7FF044600200190B9
:1011700000906008B04202D2022001901BE00120E2
:101180008006844203D307200090E4080EE001208B
:101190004006844203D303200090A40806E0012007
:1011A0000006844202D301200090640831462046A4
:1011B000FFF784F90190009838432860019868602F
:1011C000009A521C0198504301462046FFF776F9D9
:1011D000FEBD000000BF01201249886000BF124818
:1011E0000068401C10490860084600680A2803D1BE
:1011F00001200E49886008E00B480068142804D1DB
:1012000000200A4988600849086009480068401CB5
:101210000749086008460068642801D1002008607A
:10122000704700002000014028000020804200504C
:101230002C00002010B500F02FF910BD10B50748A4
:10124000FFF7A4FE4B21C901054800F037F8002044
:10125000044908800449088010BD00001000000403
:1012600000000540360400203404002070B5044618
:101270000D466068A84360600548844203D10C2095
:10128000FFF7F2FD02E00D20FFF7EEFD70BD00005C
:101290000000054070B504460D4660682843606054
:1012A0000548844203D10C20FFF7E8FD02E00D2041
:1012B000FFF7E4FD70BD000000000540F0B587B009
:1012C00004460D46274801460EC9C06803AE0EC647
:1012D0000690002002902448406903210906084036
:1012E000060E214880690F2109020840070A0020E4
:1012F00020630320E060A0681C490840A060012E24
:1013000004D1FFF7C7FBB10003AA5050002D26D02F
:10131000B10003AA5058791CFFF7D0F869084018AB
:1013200029460190FFF7CAF8801E029010490298E2
:1013300088420FD9B10003AA5058791CFFF7BEF8B4
:10134000E900401829460190FFF7B8F80009801E0F
:10135000606204E00321090702980843606207B055
:10136000F0BD0000BC180000000200500FFFF0FFAD
:10137000FFFF000010B51B484068132108431949BE
:1013800048600C20FFF784FD1CE017490220FFF79E
:1013900021FD154800781549088013484078144904
:1013A0000880FFF7B5FC00F039F800BF114800686D
:1013B0006428FBD0104800682C2188430121084391
:1013C0000D4908600D480068002803D00C480078DB
:1013D0000028DAD00120094908600AA0FEF752FF70
:1013E00010BD000000000540380400203E0400202D
:1013F000400400202C00002000400040200000207D
:10140000240000200A554152542053616D706C65D0
:101410002044656D6F20456E642E0A0010B5FE20D5
:101420001A490870FD20487090208870184800887C
:101430000012C87016480088087116480088487164
:101440001448008800128871DF20C87126200872B5
:101450003D20487208468078C97848400B49097990
:1014600048400A494979484008498979484007492C
:10147000C97948400549097A48400449497A4840B1
:10148000024988720846FFF7C3FD10BD48080020D6
:101490003E0400204004002070B5FF243348C56995
:1014A000801505422BD022E030480068C4B2302CB1
:1014B00002D100202E4908602E48006801218902CF
:1014C000884214D22C482D49096844542B4800689E
:1014D0002B49884201D1002002E028480068401CC6
:1014E0002649086023480068401C224908601F48BC
:1014F000C069C007C00FD7D122A0FEF7C3FE0120EC
:101500004002054231D02448008824490988884295
:1015100004D102211548FFF7A9FE26E0002020494A
:1015200008701DE01F481C490988405C0F4908608D
:1015300019480088C11FF83901D1002002E016487F
:101540000088401C1449088008460088134909880F
:10155000884200D108E012480078401C1049087009
:101560000F4800780828DDDB00BF70BD0000054093
:101570002000002014000020480400201C0000204F
:10158000FF0300000A5472616E736D697373696FB3
:101590006E20546573743A00340400203604002031
:1015A000430400204809002010B50B4800680821BA
:1015B0000840C00801280DD107480068242188434D
:1015C000082108430449086001200449087004A068
:1015D000FEF758FE10BD000000400040240000202F
:1015E0005744542074696D652D6F757420696E744D
:1015F000657272757074206F636375727265642EA4
:101600000A00000030B5054C616080240443550099
:101610002C431D012C43014D2C6030BD0040004087
:1016200010B5044600BF13480088C11FF83901D126
:10163000002002E00F480088401C0F4909888842BA
:10164000F1D00E480B49098844540A480088C11F4C
:10165000F83901D1002002E006480088401C054905
:101660000880074840680221084202D10448FFF779
:1016700011FE10BD3604002034040020480900206B
:101680000000054001460020C043704730B50446C5
:101690000D462046FFF79EFC204630BD10B5FFF7F3
:1016A00089FCFFF7FFFB00BF00202649086000BF50
:1016B000FFF7E8FCFFF7C2FD23480068042108405B
:1016C000800801280AD12048006828218843042185
:1016D00008431D4908601DA0FEF7D4FDFFF76AFC12
:1016E0000020244908700023012219460520000229
:1016F000FFF788FF00BF14480068402108431249E3
:10170000086000BF0120FFF7C3FB1B4801681BA056
:10171000FEF7B8FD1DA0FEF7B5FDFFF72BFE0AE0B2
:1017200020A0FEF7AFFD084800682C218843012166
:101730000843054908600F4800780028F0D00020D1
:1017400010BD000000010050004000400A2A2A2A73
:10175000205744542074696D652D6F75742072652F
:10176000736574206F63637572726564202A2A2A18
:101770000A00000024000020000000200A0A435054
:10178000552040202564487A0A0000000A0A554185
:1017900052542053616D706C652050726F67726196
:1017A0006D0A00000D0A77757368656E676A756E5D
:1017B00020777562696E6768616E0A0010B504462D
:1017C00010A02168FEF75EFD11A06168FEF75AFDCA
:1017D00012A0A168FEF756FD13A0E168FEF752FDC6
:1017E00014A02169FEF74EFD15A06169FEF74AFDC0
:1017F00016A0A169FEF746FD17A0E169FEF742FDBC
:1018000010BD0000723020203D20307825780A007D
:10181000723120203D20307825780A007232202055
:101820003D20307825780A00723320203D20307822
:1018300025780A00723132203D20307825780A0060
:101840006C7220203D20307825780A0070632020BB
:101850003D20307825780A00707372203D20307862
:1018600025780A0010B5044603E02078641CFFF7D1
:10187000D7FE20780028F8D110BD0000001BB7006B
:101880000000000080F0FA021027000000000000B5
:10189000000000000000000000805101001BB700A4
:1018A0000000000000000000000000000000000038
:1018B000102700000000000000805101001BB7004D
:1018C000000000000000000000805101001BB70074
:1018D000000000000000000000805101001BB70064
:1018E0000000000000000000008051013031323360
:1018F0003435363738394142434445464030580044
:101900003031323334353637383961626364656675
:101910004030780034190000000000204804000026
:10192000040100007C1D000048040020480B00005A
:101930002001000080F0FA023200000080F0FA027C
:101940000000000000000000000000000000000097
:101950000000000001000000000000000000000086
:1019600000000000000000003233343500000000A9
:101970000000000000000000000000000000000067
:101980000000000000000000000000000000000057
:101990000000000000000000000000000000000047
:1019A0000000000000000000000000000000000037
:0400000500000211E4
:00000001FF
