:020000040000FA
:1000000088080020A9010000CF0100008D01000038
:1000100000000000000000000000000000000000E0
:10002000000000000000000000000000D3010000FC
:100030000000000000000000D5010000D701000012
:10004000D9010000D9010000D9010000D901000048
:10005000D9010000D9010000D9010000D901000038
:10006000D9010000D9010000D9010000D901000028
:100070008F0D0000D9010000D9010000D901000056
:10008000D9010000D9010000D9010000D901000008
:10009000D9010000D9010000D9010000D9010000F8
:1000A000D9010000D9010000D9010000D9010000E8
:1000B000D9010000D9010000D9010000D9010000D8
:1000C00000F002F800F052F80CA030C808382418EC
:1000D0002D18A246671EAB4654465D46AC4201D180
:1000E00000F044F87E460F3E0FCCB6460126334260
:1000F00000D0FB1AA246AB46334318472412000037
:1001000044120000103A02D378C878C1FAD85207D6
:1001100001D330C830C101D504680C6070470000BD
:100120000023002400250026103A01D378C1FBD813
:10013000520700D330C100D50B60704710B5642959
:1001400002D100F0A3F810BD782902D100F0D4F854
:1001500010BD632902D100F098FA10BD002010BD37
:100160001FB5C046C0461FBD10B510BD00F0DAFA7D
:100170001146FFF7F5FF00F0F9FF00F0F2FA03B4C3
:10018000FFF7F2FF03BC00F0F7FA0000042071460D
:10019000084202D0EFF3098001E0EFF308807146D6
:1001A000004A1047350C00000F4810490160104903
:1001B000016010490160104A10491160104A11494C
:1001C0001160002101601048804710480047FEE799
:1001D000FEE7FEE7FEE7FEE7FEE700000C480D49FC
:1001E0000B4A0D4B70470000000100505900000001
:1001F000160000008800000024000050A55A0000EE
:10020000800300501F0000008D0D0000C1000000A1
:100210008804002088080020880400200FB40549C5
:1002200010B503AA029800F03DFA10BC08BC04B057
:10023000184700000C00002070B505460C46012A46
:1002400005D02868800600D5EA69002302E0012372
:1002500005E05B1C934202D2E05C0028F9D1A8695A
:10026000E618C01AA861286AC01828622846C04645
:10027000C04604E06A682078A968641C9047B442CC
:10028000F8D32846C046C04670BD0000F7B500262A
:1002900075291068009914A511D0C046C0460028E1
:1002A00002DA404211A508E0009909688A0701D5E1
:1002B0000FA502E0490704D50EA5012601E0C046BE
:1002C000C046009F0024243704E000F0FFF93031DD
:1002D0003955641C0028F8D133462A462146009837
:1002E00000F072F9FEBD0000000000002D000000CB
:1002F0002B0000002000000070B504460D4621468A
:100300001068C046C0462168090502D50F4A7A44E4
:1003100002E00E4A7A440E3223460021243305E0DF
:100320000607360F965D5E54491C00090028F7D178
:1003300020680023000705D5702D03D0002901D0C7
:1003400011320223204600F03FF970BDE60F000095
:10035000F3B50446002081B082E0E168204688477A
:1003600000287FD0252802D06268A16875E0E16886
:1003700020460026884705460020E0610746A06128
:100380002A2D0BD02946012230390A292BD2002AE6
:1003900029D0B80000190090816119E00298BA00D4
:1003A000121902C8916102902046E1688847012F26
:1003B00005461AD1E069002822DA202086431FE092
:1003C00000980A21806948430099401930388861B3
:1003D0002046E168884705460120294630390A2928
:1003E00001D20028ECD1012F0AD02E2D08D12046B1
:1003F000E16888470546202006437F1C022FBFDBAB
:10040000A069002803DA4042A06101200643F007FA
:1004100001D010208643002D24D0284641381928C9
:1004200003D80120C0020643203520462660294615
:10043000029A1646FFF782FE00280BD0012806D04C
:10044000F61DF008C0000830029086E70AE0361D6D
:10045000029682E762682846A1689047206A401C9D
:1004600020627AE7206AFEBD002203098B422CD36A
:10047000030A8B4211D300239C464EE003460B43F4
:100480003CD4002243088B4231D303098B421CD356
:10049000030A8B4201D394463FE0C3098B4201D348
:1004A000CB01C01A524183098B4201D38B01C01A80
:1004B000524143098B4201D34B01C01A52410309F7
:1004C0008B4201D30B01C01A5241C3088B4201D3A6
:1004D000CB00C01A524183088B4201D38B00C01A53
:1004E000524143088B4201D34B00C01A5241411A7A
:1004F00000D201465241104670475DE0CA0F00D05D
:100500004942031000D34042534000229C46030955
:100510008B422DD3030A8B4212D3FC22890112BADB
:10052000030A8B420CD3890192118B4208D38901B3
:1005300092118B4204D389013AD0921100E08909CB
:10054000C3098B4201D3CB01C01A524183098B42AC
:1005500001D38B01C01A524143098B4201D34B0195
:10056000C01A524103098B4201D30B01C01A5241F8
:10057000C3088B4201D3CB00C01A524183088B427F
:1005800001D38B00C01A5241D9D243088B4201D308
:100590004B00C01A5241411A00D2014663465241F3
:1005A0005B10104601D34042002B00D549427047F2
:1005B00063465B1000D3404201B50020C046C046F0
:1005C00002BD704770477047FFB504460D4681B0C5
:1005D000243000902168880604D51022E0699143F8
:1005E000216000E001200027A84200DD471B04989D
:1005F000A1697A191018081AA0612068C00602D4EF
:100600002046C046C046002608E003986268A168FC
:10061000805D9047206A401C761C206204988642C8
:10062000F3DB2068C0060AD52046C046C04606E077
:100630006268A16830209047206A401C20623846DA
:100640007F1E0028F4DC07E000986268A168405D26
:100650009047206A401C206228466D1E0028F3DC6B
:100660002046C046C04621680220090600D4012069
:1006700005B0F0BD10B54369002B02D0C046C0469E
:1006800001E0FFF7D9FD012010BD126801462431B9
:100690000A7000224A700122ECE711680022D2435E
:1006A000E8E70000084B70B50C467B4400F027F8E3
:1006B0000546204600F04EFD002802D00020C04331
:1006C00070BD284670BD0000AF0A000001468008DA
:1006D000081A02091018020A1018020C1018C00893
:1006E000820012185200891A01E00A39401C0A29B6
:1006F000FBD2704701694A1C02610878704700B557
:100700008FB002910021059105490193794403912D
:10071000114604906846FFF71BFE0FB000BD0000B5
:10072000E5FFFFFF754600F023F8AE460500694679
:100730005346C008C000854618B020B5FFF74EFDEF
:1007400060BC00274908B6460026C0C5C0C5C0C564
:10075000C0C5C0C5C0C5C0C5C0C5403D49008D4667
:1007600070470446C046C0462046FFF708FD00001B
:10077000004870472404002001491820ABBEFEE762
:1007800026000200704700000649820F9200895837
:10079000C306DB0E01229A401143024A830F9B00DD
:1007A000D150704704020050F3B589B00C460120C7
:1007B000000453490862099800280ED108460068D1
:1007C000012108434E490860012000F01FFA002073
:1007D00006904C48089002250EE049480068042124
:1007E000084347490860102000F010FA0120C004B7
:1007F00006904548089004254448844204D8401097
:10080000844201D9002712E04148844205D84010B3
:10081000844202D90127640009E03E48844205D899
:100820004010844202D30327A40000E057E00020D8
:10083000C043039000200190029034E029460898BC
:10084000FFF712FE05903449059888422AD93349AA
:100850000598884226D2022007901EE0059E07993F
:100860004E432B48864215D34000864212D8A642FA
:1008700001D9301B00E0A01B049003990498884222
:1008800008D20498039001950798029003980028D5
:1008900000D106E00798401C07902149079888423C
:1008A000DCD900BF6D1C212DC8D9B80306990843B7
:1008B0000199891E490208430299891E084310497B
:1008C0000862042000F0A2F9781C019A5043014606
:1008D0000898FFF7C9FD029948430BB0F0BD09988D
:1008E000002803D10F480649086202E00E48044977
:1008F0000862042000F08AF900F09CF8EDE700009F
:1009000000020050001BB7000080510100C2EB0B39
:1009100000E1F50580F0FA02006A1800C0E1E40089
:10092000010200002EC200006FD6000002490968D3
:100930000143014A1160704700020050FEB50020DB
:10094000029019A0006800901848046A001304423D
:1009500001D00020FEBD0120C004044201D0144D8E
:1009600000E0144D01204004044201D02846F1E784
:10097000032080032040800B69460A5C0192E00559
:10098000C00D871C1F2040022040400A861C019A8F
:1009900072431146AA087A431046FFF765FD8000AE
:1009A00002900298D6E70000010202040002005003
:1009B00000805101001BB700FEB50020029019A075
:1009C000006800901848046A0013044201D0002017
:1009D000FEBD0120C004044201D0144D00E0144DBE
:1009E00001204004044201D02846F1E7032080039F
:1009F0002040800B69460A5C0192E005C00D871C0F
:100A00001F2040022040400A861C019A7243114672
:100A1000AA087A431046FFF727FD8000029002984B
:100A2000D6E70000010202040002005000805101DC
:100A3000001BB700FEB50020029019A000680090CE
:100A40001848046A0013044201D00020FEBD0120B2
:100A5000C004044201D0144D00E0144D01204004B4
:100A6000044201D02846F1E7032080032040800B98
:100A700069460A5C0192E005C00D871C1F204002F8
:100A80002040400A861C019A72431146AA087A4304
:100A90001046FFF7E9FC800002900298D6E70000BC
:100AA000010202040002005000805101001BB70047
:100AB00070B504462248C068102108400546214808
:100AC000844201D9044603E01F48844200D2044610
:100AD0001B4800680421084319490860102000F0F1
:100AE00095F8174800690721084315490861084629
:100AF000806900090001886108460068C007C00FCE
:100B000005D021460020FFF74FFE04460AE02146AB
:100B10000120C004FFF748FE04460948C0681021C0
:100B2000084005460021022000F010F8002D05D1F4
:100B3000034800680421884301490860204670BDCD
:100B40000002005080F0FA0240787D0170B5044642
:100B50000D461548C0681021084006461248006836
:100B6000084311490860102000F050F80E48006951
:100B7000C008C000C01D0C49086108468069000912
:100B800000012843886108460069C008C00020436E
:100B9000086100F0C9F8002E05D103480068102153
:100BA00088430149086070BD00020050F0B50B4653
:100BB0000021002400250601760F0FD0124E870079
:100BC000BF0FBF00F41921680601770FC601F60EAA
:100BD000B7400E46BE431E43314621608603360EA3
:100BE00010D0094E08360703BF0FBF00F51929685A
:100BF0008603360EF6438705FF0EBE400E401643B1
:100C000031462960F0BD0000100200500146074A3D
:100C100005E01046521E002801DC00207047044801
:100C2000C06808408842F4D10120F7E7804F1200E5
:100C300000020050044604A0FFF7F0FA204600F03E
:100C4000DFFA00BFFEE70000496E204861726420B1
:100C50004661756C742048616E646C65720A0000B0
:100C600010B50420FFF762FE1020FFF7CFFF002130
:100C70000720FFF76BFF0120FFF758FE0120FFF769
:100C8000C5FF0D48FFF714FF0C48FFF77DFD00225C
:100C900011460A48FFF78AFF05200007C06B084984
:100CA000084005210907C8630846C06B03210843B3
:100CB00005210907C86310BD80F0FA02103D805776
:100CC000FCFCFFFF0849020E8958012282400A43BA
:100CD0000549030ECA50020E8958012282409143F1
:100CE000014A030ED15070470800005000B503467A
:100CF000184600F001F800BD00BF0A4989690122C9
:100D0000D2051142F9D1074908600A2809D100BF6C
:100D1000044989690122D2051142F9D10D21014A04
:100D2000116070470000054070B512480069450722
:100D30006D0FFFF703FE10490860022D03D0A800D5
:100D40000E490C5801E00C4804680A488069000705
:100D5000000F461C31462046FFF786FB0849086015
:100D60000849074800684A108018FFF77DFB0649CC
:100D7000086070BD0002005008000020A8120000AA
:100D80000000002040420F0004000020704710B512
:100D900000F05CF910BD000010B50448FFF792FFA9
:100DA000E1214902024800F0F5F810BD10000004EE
:100DB0000000054010B51EA0FFF730FA2CA0FFF789
:100DC0002DFA1BA0FFF72AFA39A0FFF727FA48A04F
:100DD000FFF724FA56A0FFF721FA15A0FFF71EFA35
:100DE00063484068132108436149486000BF0C20F4
:100DF000012181405F48016000BF00BF5E4800687C
:100E00000028FBD15A48406813218843584948605C
:100E100000BF0C200121814056488030016000BF96
:100E200001205549086055A0FFF7F8F910BD0000F2
:100E30002B2D2D2D2D2D2D2D2D2D2D2D2D2D2D2DE4
:100E40002D2D2D2D2D2D2D2D2D2D2D2D2D2D2D2DD2
:100E50002D2D2D2D2D2D2D2D2D2D2D2D2D2D2D2DC2
:100E60002D2D2D2D2D2D2D2D2D2D2D2D2B0A000031
:100E70007C2020554152542046756E6374696F6E14
:100E80002054657374202020202020202020202042
:100E90002020202020202020202020202020202052
:100EA0002020202020202020202020207C0A00003C
:100EB0007C20204465736372697074696F6E203A98
:100EC0002020202020202020202020202020202022
:100ED0002020202020202020202020202020202012
:100EE0002020202020202020202020207C0A0000FC
:100EF0007C202020205468652073616D706C652013
:100F0000636F64652077696C6C207072696E742001
:100F1000696E7075742063686172206F6E207465ED
:100F2000726D696E616C2020202020207C0A0000F8
:100F30007C20202020506C6561736520656E74658F
:100F40007220616E7920746F207374617274202036
:100F50002020202850726573732027302720746F5B
:100F60002065786974292020202020207C0A000038
:100F70000000054000E100E0200000200A55415239
:100F8000542053616D706C652044656D6F20456E13
:100F9000642E0A00F0B587B004460D462748014686
:100FA0000EC9C06803AE0EC6069000200290244809
:100FB0004069032109060840060E214880690F2177
:100FC00009020840070A002020630320E060A068AF
:100FD0001C490840A060012E04D1FFF7EDFCB100D0
:100FE00003AA5050002D26D0B10003AA5058791CF6
:100FF000FFF73AFA6908401829460190FFF734FADA
:10100000801E02901049029888420FD9B10003AAAD
:101010005058791CFFF728FAE9004018294601903A
:10102000FFF722FA0009801E606204E0032109072D
:1010300002980843606207B0F0BD0000C8120000CB
:10104000000200500FFFF0FFFFFF000070B5FF240B
:101050003148C5698015054232D030A0FFF7DEF86F
:1010600026E02D480068C4B221462EA0FFF7D6F82E
:10107000302C02D100202C4908602C480068012146
:101080008902884214D22A482A49096844542948C6
:1010900000682949884201D1002002E02548006803
:1010A000401C2449086021480068401C1F49086012
:1010B0001948C069C007C00FD3D120A0FFF7AEF810
:1010C00001204002054226D01A49096888B2204909
:1010D000096881421ED016491D4A12688C5C00BF07
:1010E0000D4989690122D2051140C90DF8D10A497B
:1010F0000C6017490968104A914201D1002102E0B1
:1011000013490968491C124A116008490968491EB7
:10111000064A116000BF70BD000005400A496E70AC
:1011200075743A0025632000200000201400002080
:10113000240000201C000020FF0300000A547261FC
:101140006E736D697373696F6E20546573743A00C2
:101150001800002001460020C043704730B5044607
:101160000D462046FFF7C2FD204630BD00BF06E019
:1011700059201149086016200860882008600E4830
:1011800000680128F4D100BFFFF76AFD00BF00200E
:101190000949086000BFFFF7FFFD0848016808A083
:1011A000FFF73CF80AA0FFF739F8FFF703FE02E06B
:1011B0000DA0FFF733F8FBE700010050000000200E
:1011C0000A0A4350552040202564487A0A0000004E
:1011D0000A0A554152542053616D706C652050725B
:1011E0006F6772616D0A00000A0A77757368656E31
:1011F000676A756E20777562696E6768616E0A004E
:1012000010B5044610A02168FFF708F811A0616826
:10121000FFF704F812A0A168FFF700F813A0E16837
:10122000FEF7FCFF14A02169FEF7F8FF15A0616925
:10123000FEF7F4FF16A0A169FEF7F0FF17A0E16921
:10124000FEF7ECFF10BD0000723020203D2030780A
:1012500025780A00723120203D20307825780A0058
:10126000723220203D20307825780A007233202009
:101270003D20307825780A00723132203D203078C8
:1012800025780A006C7220203D20307825780A00ED
:10129000706320203D20307825780A00707372201A
:1012A0003D20307825780A00001BB70000000000C0
:1012B00080F0FA021027000000000000000000008B
:1012C0000000000000805101001BB700000000007A
:1012D0000000000000805101001BB700000000006A
:1012E0000000000000805101001BB700000000005A
:1012F0000000000000805101303132333435363780
:101300003839414243444546403058003031323349
:101310003435363738396162636465664030780049
:101320004013000000000020240000000401000021
:101330006413000024000020640800002001000065
:1013400080F0FA023200000080F0FA020000000093
:10135000000000000000000000000000000000008D
:041360000100000088
:04000005000001A94D
:00000001FF
