:020000040000FA
:1000000030040020D5000000F5000000F7000000DB
:1000100000000000000000000000000000000000E0
:10002000000000000000000000000000F9000000D7
:100030000000000000000000FB000000FD000000C8
:10004000FF000000FF000000FF000000FF000000B4
:10005000FF000000FF000000FF000000FF000000A4
:10006000FF000000FF000000FF000000FF00000094
:10007000FF000000FF000000FF000000FF00000084
:10008000FF000000FF000000FF000000FF00000074
:10009000FF000000FF000000FF000000FF00000064
:1000A000FF000000FF000000FF000000FF00000054
:1000B000FF000000FF000000FF000000FF00000044
:1000C0000348854600F042F800480047D108000088
:1000D000300400200A480B4901600B4901600B49BC
:1000E00001600B4A0B491160002101600A488047FA
:1000F0000A480047FEE7FEE7FEE7FEE7FEE7FEE709
:1001000000010050590000001600000088000000A7
:1001100024000050A55A0000B1080000C1000000F2
:1001200030B50B46014600202022012409E00D468F
:10013000D5409D4205D31D469540491B2546954017
:1001400040191546521E002DF1DC30BD064C01252C
:10015000064E05E02046E36807C82B439847103455
:10016000B442F7D3FFF7B0FF3C0900005C09000080
:100170001FB50A4C10341ECC03946C460EC4810F7C
:100180008A0069468A58064951184A68C306DB0E38
:100190000120984002434A601FBD00000C09000086
:1001A00000020050F0B507000C46564885B054498F
:1001B0000162554E016813D00422114301601020E2
:1001C00000F056F90120C004029050480425039025
:1001D0004F485049201888420DD8002004901CE058
:1001E000012211430160104600F042F9002002256F
:1001F00003960290ECE7484848492018884203D803
:1002000001206400049008E045484549201849420F
:10021000884249D80320A40004900026F643002019
:100220000090019021E029460398FFF779FF3D49AE
:100230003D4A4118914217D2364F02227F1C344B5F
:10024000014651435B1CCB18BB4209D80B1BA14292
:1002500000D8631AB34203D21E000095019203D066
:100260003249521C8A42EAD96D1C212DDBD90498EF
:100270000299800308430099012249029202891AD7
:1002800008430199891E08431E490862042000F0B2
:10029000EFF804990098491C41430398FFF740FF89
:1002A0000199484305B0F0BD002F0FD020491548F3
:1002B0000162042000F0DCF81EA0006800901148E4
:1002C000016A0013014203D00020EBE71A49EEE770
:1002D000080300D50D4E880301D53046E2E7080437
:1002E000800F6A46105CCA058904C90E891CD20DAC
:1002F0004143921CB0085043FFF712FF8000D1E742
:100300000000010000020050001BB70000805101F6
:10031000FF1E0AFAFFE0F5057F0F05FD7FF0FA02E8
:10032000C08782FEFF95E7FFBF77CC000102000087
:100330006FD60000010202042EC2000002490A68C2
:1003400002430A607047000000020050F8B51C4DDF
:100350000446EE68102006401A48844202D8401035
:10036000844200D2044628680427384328601020BD
:1003700000F07EF82869072108432861A869000970
:100380000001A8612868C00705D061000020FFF7C0
:1003900009FF044608E001206100C004FFF702FFE6
:1003A000EE680446102006400121022000F00CF8FF
:1003B000002E02D12868B84328606008F8BD00000C
:1003C0000002005080F0FA0270B5104CE56810266B
:1003D0002268354004231A432260E268D206FCD525
:1003E000226907231A432261A269120912010A43F2
:1003F000A261216999430143216100F011FA002DA6
:1004000002D12068B043206070BD0000000200509F
:100410007FB5154E78CE03966E4638C6840A2306FD
:100420001B0E0CD003039B0F104D9B005B19E5B214
:100430008405E40EA5401C68AC4314431C60420EC6
:10044000520710D08200920F92006B469A58074BC9
:10045000083BD21803015B0FC001C00E8340106837
:100460009843084310607FBD0C090000180200503B
:1004700010B504460749084A05E00B46491E002B03
:1004800001DC002010BDD36820469843F5D101203F
:1004900010BD0000804F12000002005010B58369AB
:1004A000140E8C4023438361C3691202120A8A40EE
:1004B0001343C36110BD0000F8B505200007416B70
:1004C000890889004163416B032211434163416BF9
:1004D000302291434163416B11434163C16B9202EE
:1004E0009143C163C16B1143C163C16BC02291438E
:1004F000C163C16B1143C163914F00220121384692
:1005000000F02AF900220221384600F025F90022E5
:100510000421384600F020F903220821384600F073
:100520001BF9884D0024EC6003221021384600F0AE
:1005300013F92C6100222021384600F00DF9032226
:100540004021384600F008F9AC610022802138468D
:1005500000F002F9FF2103220131384600F0FCF8D7
:100560002C62012100224902384600F0F5F80122F0
:100570009102384600F0F0F8AC6201210022C90275
:10058000384600F0E9F8012103220903384600F05B
:10059000E3F801262E6303227103384600F0DCF8ED
:1005A0006E630022B103384600F0D6F80122D10371
:1005B000384600F0D1F8EC63614F0022403701214A
:1005C000384600F0C9F800220221384600F0C4F88D
:1005D00003220421384600F0BFF85A4D4035AC6084
:1005E00001220821384600F0B7F8EC6000224021D3
:1005F000384600F0B1F800228021384600F0ACF80F
:1006000003227102384600F0A7F86C620022310321
:10061000384600F0A1F84C4A0C213846FFF73EFF5F
:1006200048493A2080390860786931030843786185
:1006300046491020086081020022384600F08CF8FC
:100640000322F103384600F087F8EC633C480322AC
:100650000121803000F080F83A4D80352E60384816
:1006600003220221803000F077F86E6034480022C7
:100670000421803000F070F83148032208218030D6
:1006800000F06AF8EE602E4801224021803000F030
:1006900063F8AC612A4803228021803000F05CF8C6
:1006A000EC61274803223102803000F055F82C62BB
:1006B000234803227102803000F04EF86C6220481B
:1006C0000322B102803000F047F8AC621C480322DC
:1006D000F102803000F040F8EC6219480322B103C7
:1006E000803000F039F8AC6315480322F103803004
:1006F00000F032F8EC6301222021154800F02CF8BC
:1007000014484461124C002240341021204600F06D
:1007100023F800222021204600F01EF80A4A052175
:100720002046FFF7BBFE6169202001436161074954
:100730000860C1000022204600F00EF8F8BD00005D
:1007400000400050004200500100010000E100E0C4
:100750000041005000430050F0B5002301273C4603
:100760009C400C4208D005685C000326A640B543B7
:100770001646A640354305605B1C102BEFD3F0BD39
:1007800010B50420FFF7DAFD1020FFF771FE0021FD
:100790000846FFF719FE0120FFF7D0FD0120FFF703
:1007A00067FE1B48FFF7D2FD2B24640600220321BD
:1007B0002046FFF72DFE2046FFF7DAFC154C2046B9
:1007C000FFF7D6FC002211462046FFF721FE641CED
:1007D0002046FFF7CDFC002211462046FFF718FE09
:1007E000641C2046FFF7C4FC002211462046FFF798
:1007F0000FFE0948FFF7BCFC084C2046FFF7B8FC89
:10080000032252040C212046FFF702FE10BD000017
:10081000006CDC02103D8057180000401CFE23567F
:1008200038B51DA000681D4C0090216A20130142BC
:1008300001D0002016E0080301D5194800E019484E
:100840008A030FD40A04920F6B469B5CCA05890485
:10085000D20DC90E921C891C800859435043FFF7E2
:100860005FFC8000104DA86021694907490F0229EB
:1008700003D0880029460C310858A1690907090FDF
:10088000491CFFF74DFC094928604A108018FFF702
:1008900047FC686038BD00000102020400020050FD
:1008A00000805101001BB7000000002040420F00F3
:1008B000704702E008C8121F08C1002AFAD1704729
:1008C0007047002001E001C1121F002AFBD17047D0
:1008D000592016220A4C882102E020602260216003
:1008E0002368012BF9D1FFF74BFFFFF7E5FD00204F
:1008F00020600449044B0122C8609A62FCE70000B2
:100900000001005040420050004200500000000032
:10091000040000000C0000002400000000000000A3
:10092000040000002C000000000000000000000097
:10093000040000002C000000000000005C09000022
:10094000000000202C000000B20800008809000010
:100950002C00002004040000C208000080F0FA020D
:100960003200000080F0FA02001BB7000000000017
:1009700080F0FA02102700000000000000000000D4
:0809800000000000008051019D
:04000005000000D522
:00000001FF
