:020000040000FA
:10000000B8100020D5010000FB01000081010000B4
:1000100000000000000000000000000000000000E0
:10002000000000000000000000000000FF010000D0
:1000300000000000000000000102000003020000B8
:100040000502000061150000050200000502000025
:100050000502000005020000050200000502000084
:10006000050200003110000005020000050200003A
:1000700091100000050200000502000005020000CA
:100080000502000005020000050200000502000054
:100090000502000005020000050200000502000044
:1000A0000502000005020000050200000502000034
:1000B00005020000710700000502000005020000B3
:1000C00000F002F800F04DF80CA030C808382418F1
:1000D0002D18A246671EAB4654465D46AC4201D180
:1000E00000F03FF87E460F3E0FCCB6460126334265
:1000F00000D0FB1AA246AB4633431847A8170000AE
:10010000C8170000103A02D378C878C1FAD852074D
:1001100001D330C830C101D504680C6070470000BD
:100120000023002400250026103A01D378C1FBD813
:10013000520700D330C100D50B60704710B5642959
:1001400002D100F08FF810BD782902D100F0C0F87C
:1001500010BD002010BD1FB5C046C0461FBD10B564
:1001600010BD00F0D3FA1146FFF7F5FF01F05CFA7D
:1001700000F0EBFA03B4FFF7F2FF03BC00F0F0FA73
:1001800004207146084202D0EFF3098001E0EFF34A
:1001900008807146004A10475D0C000070B50546A6
:1001A0000C46164602E00FCC0FC5103E102EFAD2B8
:1001B000082E02D303CC03C5083E042E07D301CC7E
:1001C00001C5361F03E021782970641C6D1C761E62
:1001D000F9D270BD0F481049016010490160104903
:1001E0000160104A10491160104A11491160002144
:1001F00001601048804710480047FEE7FEE7FEE731
:10020000FEE7FEE7FEE700000C480D490B4A0D4BE8
:100210007047000000010050590000001600000067
:100220008800000024000050A55A00008003005000
:100230001F000000DD0E0000C1000000B80C00200F
:10024000B8100020B80C00200FB4054910B503AA5F
:10025000029800F01BFA10BC08BC04B0184700005C
:100260000C000020F7B5002675291068009914A528
:1002700011D0C046C046002802DA404211A508E06D
:10028000009909688A0701D50FA502E0490704D53E
:100290000EA5012601E0C046C046009F0024243779
:1002A00004E000F007FA30313955641C0028F8D119
:1002B00033462A462146009800F092F9FEBD000020
:1002C000000000002D0000002B00000020000000B6
:1002D00070B504460D4621461068C046C0462168E8
:1002E000090502D50F4A7A4402E00E4A7A440E32DA
:1002F00023460021243305E00607360F965D5E5441
:10030000491C00090028F7D120680023000705D503
:10031000702D03D0002901D011320223204600F0B5
:100320005FF970BD92150000F3B50446002081B05E
:1003300082E0E1682046884700287FD0252802D047
:100340006268A16875E0E168204600268847054696
:100350000020E0610746A0612A2D0BD0294601222A
:1003600030390A292BD2002A29D0B8000019009070
:10037000816119E00298BA00121902C891610290D5
:100380002046E1688847012F05461AD1E069002818
:1003900022DA202086431FE000980A218069484322
:1003A00000994019303888612046E1688847054641
:1003B0000120294630390A2901D20028ECD1012F29
:1003C0000AD02E2D08D12046E16888470546202016
:1003D00006437F1C022FBFDBA069002803DA4042DE
:1003E000A06101200643F00701D010208643002DB4
:1003F00024D028464138192803D80120C0020643DA
:100400002035204626602946029A1646FFF796FEBA
:1004100000280BD0012806D0F61DF008C0000830D7
:10042000029086E70AE0361D029682E76268284657
:10043000A1689047206A401C20627AE7206AFEBDCE
:1004400001E004C0091F0429FBD28B0701D50280FB
:10045000801CC90700D00270704700290BD0C30769
:1004600002D00270401C491E022904D3830702D522
:100470000280801C891EE3E70022EEE70022DFE70E
:10048000002203098B422CD3030A8B4211D3002391
:100490009C464EE003460B433CD4002243088B426B
:1004A00031D303098B421CD3030A8B4201D39446F8
:1004B0003FE0C3098B4201D3CB01C01A52418309EB
:1004C0008B4201D38B01C01A524143098B4201D3A5
:1004D0004B01C01A524103098B4201D30B01C01AD0
:1004E0005241C3088B4201D3CB00C01A524183084A
:1004F0008B4201D38B00C01A524143088B4201D377
:100500004B00C01A5241411A00D2014652411046D6
:1005100070475DE0CA0F00D04942031000D340424B
:10052000534000229C4603098B422DD3030A8B4281
:1005300012D3FC22890112BA030A8B420CD389011F
:1005400092118B4208D3890192118B4204D3890105
:100550003AD0921100E08909C3098B4201D3CB0143
:10056000C01A524183098B4201D38B01C01A5241F8
:1005700043098B4201D34B01C01A524103098B42FC
:1005800001D30B01C01A5241C3088B4201D3CB00E7
:10059000C01A524183088B4201D38B00C01A5241CA
:1005A000D9D243088B4201D34B00C01A5241411AA1
:1005B00000D20146634652415B10104601D34042CF
:1005C000002B00D54942704763465B1000D3404280
:1005D00001B50020C046C04602BD70477047704755
:1005E000FFB504460D4681B024300090216888068E
:1005F00004D51022E0699143216000E0012000272A
:10060000A84200DD471B0498A1697A191018081A3E
:10061000A0612068C00602D42046C046C04600261D
:1006200008E003986268A168805D9047206A401CDA
:10063000761C206204988642F3DB2068C0060AD547
:100640002046C046C04606E06268A1683020904758
:10065000206A401C206238467F1E0028F4DC07E038
:1006600000986268A168405D9047206A401C206243
:1006700028466D1E0028F3DC2046C046C04621688F
:100680000220090600D4012005B0F0BD084B70B56A
:100690000C467B4400F027F80546204600F0B8FFE2
:1006A000002802D00020C04370BD284670BD000065
:1006B000830F000001468008081A02091018020A78
:1006C0001018020C1018C008820012185200891A63
:1006D00001E00A39401C0A29FBD2704701694A1C13
:1006E00002610878704700B58FB002910021059132
:1006F0000549019379440391114604906846FFF738
:1007000013FE0FB000BD0000E5FFFFFF754600F0CF
:1007100023F8AE46050069465346C008C00085462A
:1007200018B020B5FFF770FD60BC00274908B64639
:100730000026C0C5C0C5C0C5C0C5C0C5C0C5C0C5F0
:10074000C0C5403D49008D4670470446C046C0467E
:100750002046FFF70FFD000000487047540C0020B2
:1007600001491820ABBEFEE72600020070470000DA
:1007700001200249086002490863704758040020BC
:1007800000000E400649820F92008958C306DB0E16
:1007900001229A401143024A830F9B00D1507047B7
:1007A00004020050F3B589B00C46012000045349FF
:1007B0000862099800280ED1084600680121084304
:1007C0004E490860012000F01FFA002006904C48B6
:1007D000089002250EE04948006804210843474973
:1007E0000860102000F010FA0120C004069045486F
:1007F000089004254448844204D84010844201D91A
:10080000002712E04148844205D84010844202D9B2
:100810000127640009E03E48844205D84010844224
:1008200002D30327A40000E057E00020C043039058
:1008300000200190029034E029460898FFF720FE3E
:1008400005903449059888422AD933490598884249
:1008500026D2022007901EE0059E07994E432B48A2
:10086000864215D34000864212D8A64201D9301BD9
:1008700000E0A01B049003990498884208D20498D1
:1008800003900195079802900398002800D106E094
:100890000798401C0790214907988842DCD900BF7F
:1008A0006D1C212DC8D9B803069908430199891EEA
:1008B000490208430299891E08431049086204202E
:1008C00000F0A2F9781C019A504301460898FFF7FE
:1008D000D7FD029948430BB0F0BD0998002803D119
:1008E0000F480649086202E00E48044908620420E5
:1008F00000F08AF900F09CF8EDE7000000020050DB
:10090000001BB7000080510100C2EB0B00E1F505B0
:1009100080F0FA02006A1800C0E1E4000102000061
:100920002EC200006FD60000024909680143014A47
:100930001160704700020050FEB50020029019A01F
:10094000006800901848046A0013044201D0002097
:10095000FEBD0120C004044201D0144D00E0144D3E
:1009600001204004044201D02846F1E7032080031F
:100970002040800B69460A5C0192E005C00D871C8F
:100980001F2040022040400A861C019A72431146F3
:10099000AA087A431046FFF773FD80000290029880
:1009A000D6E700000102020400020050008051015D
:1009B000001BB700FEB50020029019A0006800904F
:1009C0001848046A0013044201D00020FEBD012033
:1009D000C004044201D0144D00E0144D0120400435
:1009E000044201D02846F1E7032080032040800B19
:1009F00069460A5C0192E005C00D871C1F20400279
:100A00002040400A861C019A72431146AA087A4384
:100A10001046FFF735FD800002900298D6E70000EF
:100A2000010202040002005000805101001BB700C7
:100A3000FEB50020029019A0006800901848046AD2
:100A40000013044201D00020FEBD0120C004044276
:100A500001D0144D00E0144D01204004044201D0A7
:100A60002846F1E7032080032040800B69460A5C9A
:100A70000192E005C00D871C1F2040022040400A63
:100A8000861C019A72431146AA087A431046FFF762
:100A9000F7FC800002900298D6E7000001020204F1
:100AA0000002005000805101001BB70070B50446E1
:100AB0002248C0681021084005462148844201D9D7
:100AC000044603E01F48844200D204461B480068E5
:100AD0000421084319490860102000F095F81748D0
:100AE0000069072108431549086108468069000923
:100AF0000001886108460068C007C00F05D0214684
:100B00000020FFF74FFE04460AE021460120C00402
:100B1000FFF748FE04460948C06810210840054612
:100B20000021022000F010F8002D05D103480068D4
:100B30000421884301490860204670BD000200502E
:100B400080F0FA0240787D0170B504460D461548E4
:100B5000C068102108400646124800680843114941
:100B60000860102000F050F80E480069C008C0006E
:100B7000C01D0C490861084680690009000128432E
:100B8000886108460069C008C0002043086100F081
:100B900073F9002E05D103480068102188430149EC
:100BA000086070BD00020050F0B50B460021002423
:100BB00000250601760F0FD0124E8700BF0FBF0031
:100BC000F41921680601770FC601F60EB7400E46EC
:100BD000BE431E43314621608603360E10D0094EB7
:100BE00008360703BF0FBF00F51929688603360EC4
:100BF000F6438705FF0EBE400E401643314629607E
:100C0000F0BD0000100200500146074A05E0104602
:100C1000521E002801DC002070470448C0680840CC
:100C20008842F4D10120F7E7804F12000002005003
:100C300070B5034600200EE0012484400C4209D028
:100C40001C6846000325B540AC4346001546B54038
:100C50002C431C60401C0828EED370BD044604A041
:100C6000FFF7F2FA204600F04DFD00BFFEE700005E
:100C7000496E2048617264204661756C7420486139
:100C80006E646C65720A0000C206D20E01219140AA
:100C9000014A11607047000080E100E0C206D20EF8
:100CA00001219140014A11607047000000E100E01D
:100CB000C206D20E01219140014A11607047000026
:100CC00000E100E010B507488078902809D1054878
:100CD0008079882805D104A0FFF7B6FA00200749DB
:100CE000086010BD280B00200D0A48656C6C6F2051
:100CF000776F726C64212121210D0A0024000020ED
:100D000010B50420FFF710FE1020FFF77DFF002133
:100D10000720FFF719FF0120FFF706FE0120FFF76C
:100D200073FF2848FFF7C2FE2748284988602848F3
:100D3000486100F0A1F82748FFF724FD0322520480
:100D40000C212448FFF730FF2348FFF71BFD00224A
:100D500011462148FFF728FF05200007C06B1F49F7
:100D6000084005210907C8630846C06B03210843F2
:100D700005210907C863012204211948FFF758FF1C
:100D80001748C03840680F21090408431449C03986
:100D90004860084640680121090508431049C039E8
:100DA000486005200007406B0E49084005210907EF
:100DB00048630846406B1F21084305210907486323
:100DC00010BD000080F0FA02010001000002005096
:100DD000030000011CFE2356103D8057FCFCFFFF62
:100DE00000410050E0E0FFFF0849020E895801224F
:100DF00082400A430549030ECA50020E8958012257
:100E000082409143014A030ED150704708000050C0
:100E100006E059200549086016200860882008600F
:100E2000024800680128F4D170470000000100501A
:100E300000B50346184600F001F800BD00BF0A499E
:100E400089690122D2051142F9D1074908600A28AF
:100E500009D100BF044989690122D2051142F9D1A3
:100E60000D21014A116070470000054010B504468D
:100E7000204600F09BFC10BD70B512480069450784
:100E80006D0FFFF759FD10490860022D03D0A8002F
:100E90000E490C5801E00C4804680A4880690007B4
:100EA000000F461C31462046FFF7EAFA0849086061
:100EB0000849074800684A108018FFF7E1FA064918
:100EC000086070BD00020050080000200C180000EF
:100ED0000000002040420F00040000207047000086
:100EE00010B51248FFF74EFC002211460F48FFF7DD
:100EF0005BFE0A220121C9060D4800F05DF800BF23
:100F00000B4800680121490708430949086000BFF0
:100F10000920FFF7CDFE00BF0548006801218907C1
:100F200008430349086000BF10BD00000300C05E15
:100F30002000014030B589B005462022194901A89A
:100F4000FFF72CF91848854206D118484069072157
:100F500009020840040A1AE013482030854206D1ED
:100F600012484069072109030840040B0FE01048AC
:100F7000854206D10D484069072109040840040C48
:100F800005E00A484069072109050840040D022CC4
:100F900003D10848006809B030BDA00001A9085875
:100FA000F9E700002C18000000000140000200508A
:100FB0000000114000000020FEB505460F46164611
:100FC0002846FFF7B7FF0446002001900090600814
:100FD000B04202D2022001901BE001208006844230
:100FE00003D307200090E4080EE00120400684426D
:100FF00003D303200090A40806E0012000068442E9
:1010000002D301200090640831462046FFF738FAE9
:10101000019000983843286001986860009A521C3B
:101020000198504301462046FFF72AFAFEBD000012
:1010300000BF01201249886000BF12480068401CB0
:1010400010490860084600680A2803D101200E49AB
:10105000886008E00B480068142804D100200A4981
:1010600088600849086009480068401C0749086012
:10107000084600680A2801D1002008607047000077
:10108000200001402C000020804200503000002051
:1010900010B500F0E1F910BD10B50748FFF7A4FE48
:1010A0004B21C901054800F01DF9002004490880C2
:1010B0000449088010BD0000100000040000054035
:1010C000480400204604002070B504460D466068C0
:1010D000A84360600548844203D10C20FFF7D4FD8B
:1010E00002E00D20FFF7D0FD70BD000000000540BC
:1010F00070B504460D466068284360600548844228
:1011000003D10C20FFF7CAFD02E00D20FFF7C6FD5A
:1011100070BD00000000054010B518A0FFF794F85E
:1011200026A0FFF791F815A0FFF78EF833A0FFF780
:101130008BF842A0FFF788F850A0FFF785F80FA0C2
:10114000FFF782F85D484068132108435B49486017
:101150000C20FFF7ADFD05E05948FFF787FE59A0C9
:10116000FFF784FE584800680028F5D10120564951
:10117000086056A0FFF768F810BD00002B2D2D2D3C
:101180002D2D2D2D2D2D2D2D2D2D2D2D2D2D2D2D8F
:101190002D2D2D2D2D2D2D2D2D2D2D2D2D2D2D2D7F
:1011A0002D2D2D2D2D2D2D2D2D2D2D2D2D2D2D2D6F
:1011B0002D2D2D2D2D2D2D2D2B0A00007C20205581
:1011C0004152542046756E6374696F6E2054657386
:1011D00074202020202020202020202020202020BB
:1011E00020202020202020202020202020202020FF
:1011F00020202020202020207C0A00007C20204469
:1012000065736372697074696F6E203A20202020C4
:1012100020202020202020202020202020202020CE
:1012200020202020202020202020202020202020BE
:1012300020202020202020207C0A00007C2020204C
:10124000205468652073616D706C6520636F646500
:101250002077696C6C207072696E7420696E70758D
:10126000742063686172206F6E207465726D696EA0
:10127000616C2020202020207C0A00007C2020207F
:1012800020506C6561736520656E74657220616EB7
:101290007920746F207374617274202020202028BC
:1012A00050726573732027302720746F206578692A
:1012B00074292020202020207C0A00000000054006
:1012C000380000200D0A0000240000200A55415279
:1012D000542053616D706C652044656D6F20456EC0
:1012E000642E0A00F0B587B004460D462748014633
:1012F0000EC9C06803AE0EC60690002002902448B6
:101300004069032109060840060E214880690F2123
:1013100009020840070A002020630320E060A0685B
:101320001C490840A060012E04D1FFF743FBB10027
:1013300003AA5050002D26D0B10003AA5058791CA2
:10134000FFF79EF86908401829460190FFF798F8C2
:10135000801E02901049029888420FD9B10003AA5A
:101360005058791CFFF78CF8E90040182946019085
:10137000FFF786F80009801E606204E00321090778
:1013800002980843606207B0F0BD00004C180000EE
:10139000000200500FFFF0FFFFFF000010B5FE201D
:1013A00027490870FD204870102088702548008863
:1013B0000012C870234800880871234800884871CB
:1013C0002148008800128871204800782049086070
:1013D000084600680D301F4948432C381C490860F6
:1013E000084600680002000A08600846006800021B
:1013F000000E1349C871164800680004000E0872F8
:1014000013480068487208468078C97848400C49FB
:10141000097948400A494979484009498979484049
:101420000749C97948400649097A48400449497A38
:101430004840034988720846FFF718FD10BD0000B8
:1014400060080020500400205204002054040020B2
:10145000140000204C4D010070B5FF253848C469C8
:101460008015044232D0364880693F210902084085
:10147000000A3449086000203349087018E03348F6
:101480000068642802D10020304908602C480068B8
:10149000C0B22F492D4A1268885405462B4800686F
:1014A000401C2A49086028480078401C26490870DA
:1014B00025480078234909688842E0D3214801681B
:1014C000234800F07FF900202049086001204002F5
:1014D000044231D01F4800881F490988884204D13E
:1014E00002211748FFF7F0FD26E00020164908709A
:1014F0001DE01A4817490988405C114908601548E1
:101500000088C11FF83901D1002002E0114800888D
:10151000401C10490880084600880F490988884205
:1015200000D108E008480078401C074908700648C8
:1015300000780828DDDB00BFFFF7C4FB70BD0000AA
:10154000000005405C040020550400203C040020FD
:10155000600900204604002048040020280A0020DA
:101560000948006808210840C00801280AD1064837
:1015700000682421884308210843034908600120AA
:101580000249087070470000004000402800002019
:1015900030B5054C61608024044355002C431D0187
:1015A0002C43014D2C6030BD0040004010B5044676
:1015B00000BF13480088C11FF83901D1002002E0A4
:1015C0000F480088401C0F4909888842F1D00E4816
:1015D0000B49098844540A480088C11FF83901D1D1
:1015E000002002E006480088401C054908800748A2
:1015F00040680221084202D10448FFF779FD10BD7E
:101600004804002046040020280A0020000005406D
:1016100001460020C043704730B504460D462046C1
:10162000FFF706FC204630BD10B5FFF7F1FBFFF7D2
:1016300067FB00BF00202549086000BFFFF750FC92
:10164000FFF72AFD2248006804210840800801288D
:1016500007D11F48006828218843042108431C49FA
:101660000860FFF7D5FB00201A490870002301220B
:10167000194605200002FFF78BFF00BF14480068E1
:10168000402108431249086000BF0120FFF710FB0A
:101690001148016811A0FEF7D7FD14A0FEF7D4FD94
:1016A000FFF73AFDFFF70EFB09E0FFF777FE08486A
:1016B00000682C218843012108430549086005483A
:1016C00000780028F1D0002010BD0000000100507B
:1016D0000040004028000020000000200A0A43507B
:1016E000552040202564487A0A0000000A0A554126
:1016F00052542053616D706C652050726F67726137
:101700006D0A000010B5044610A02168FEF79CFD8C
:1017100011A06168FEF798FD12A0A168FEF794FD84
:1017200013A0E168FEF790FD14A02169FEF78CFD7F
:1017300015A06169FEF788FD16A0A169FEF784FD7A
:1017400017A0E169FEF780FD10BD00007230202077
:101750003D20307825780A00723120203D203078F5
:1017600025780A00723220203D20307825780A0042
:10177000723320203D20307825780A0072313220E3
:101780003D20307825780A006C7220203D2030788A
:1017900025780A00706320203D20307825780A00E3
:1017A000707372203D20307825780A0010B5044609
:1017B00003E02078641CFFF7F9FE20780028F8D1B8
:1017C00010BD000070B505460E460E480088FF218A
:1017D0002D31884205DB0C48FEF74EFE00200949FA
:1017E000088000240BE0285D0749064A12888854C7
:1017F00004480088401C03490880601CC4B2B442FD
:10180000F1D370BD44040020280B0020001BB7005A
:101810000000000080F0FA02102700000000000025
:10182000000000000000000000805101001BB70014
:1018300000000000000000000000000000000000A8
:10184000102700000000000000805101001BB700BD
:10185000000000000000000000805101001BB700E4
:10186000000000000000000000805101001BB700D4
:1018700000000000000000000080510130313233D0
:1018800034353637383941424344454640305800B4
:1018900030313233343536373839616263646566E6
:1018A00040307800C41800000000002060040000F0
:1018B00004010000241D000060040020580C0000FA
:1018C0002001000080F0FA023200000080F0FA02ED
:1018D0000000000000000000000000000000000008
:1018E00000000000000000000100000000000000F7
:1018F000000000000000000000000000323334351A
:1019000000000000000000000000000000000000D7
:1019100000000000000000000000000000000000C7
:1019200000000000000000000000000000000000B7
:1019300000000000000000000000000000000000A7
:041D200000000000BF
:04000005000001D521
:00000001FF
