:020000040000FA
:10000000B0100020D5000000F5000000F70000004F
:1000100000000000000000000000000000000000E0
:10002000000000000000000000000000F9000000D7
:100030000000000000000000FB000000FD000000C8
:10004000FF000000FF0000006D150000FF00000031
:1000500045160000FF000000FF000000FF00000048
:1000600039250000E9250000F52500007D27000066
:10007000A127000055290000FF000000FF0000003C
:10008000FF000000FF000000FF000000FF00000074
:10009000C9050000FF000000FF000000FF00000095
:1000A000FF000000FF000000FF000000FF00000054
:1000B000FF000000FF000000FF000000FF00000044
:1000C0000348854600F034F90048004749310000F4
:1000D000B01000200A480B4901600B4901600B4930
:1000E00001600B4A0B491160002101600A488047FA
:1000F0000A480047FEE7FEE7FEE7FEE7FEE7FEE709
:1001000000010050590000001600000088000000A7
:1001100024000050A55A0000A1230000C1000000E7
:1001200030B50B46014600202022012409E00D468F
:10013000D5409D4205D31D469540491B2546954017
:1001400040191546521E002DF1DC30BD70B500245B
:100150002546002801DA01244042002901DA012560
:100160004942FFF7DDFFAC4200D04042002C00D0F6
:10017000494270BDF0B51FB40646002082B0054666
:100180004024019100901BE0019922460F46304621
:1001900000F0BDF8049A059B801A994110D31046CF
:1001A0001946224600F0A3F8361A8F4101972246DD
:1001B00001200021009F00F09AF838184D4100906E
:1001C0002046641E0028DFDC019B00982946324649
:1001D00007B0F0BDF0B51FB486B0002000900190CC
:1001E00002900698069980B204900798090C0204C0
:1001F0000014114307900027089D099806913E4678
:100200003C4603900398A9B20204000C03900498A2
:100210002D0C154348430021224600F068F8C71909
:10022000714110340E46402CECDB3846029A00F047
:100230005EF8009A019B8018009059410298019144
:10024000103002904028CCDB00980BB0F0BD034684
:100250000B439B0703D009E008C9121F08C0042AFA
:10026000FAD203E00B78491C0370401C521EF9D2ED
:100270007047D2B201E00270401C491EFBD27047A9
:100280000022F6E710B5044608461146024620460D
:10029000FFF7EFFF204610BD30B50EE003460A46DB
:1002A00001E05B1C521C1C781578AC4201D1002C7B
:1002B000F7D12A06120E04D0401C0278002AEDD194
:1002C000002030BD0146002000E0401C0A5C002AEE
:1002D000FBD1704730B504460020034600E05B1CAC
:1002E000934203D2E05CCD5C401BF8D030BD10B52A
:1002F000202A04DB0146203A9140002010BD9140A5
:1003000020239C1A0346E3401943904010BD10B5CA
:10031000202A04DB0846203AD040002110BD0B46BD
:10032000D340D0402024A21A91400843194610BD62
:10033000064C0125064E05E02046E36807C82B431E
:1003400098471034B442F7D3FFF7BEFE484200008E
:10035000684200000B484168A32212041143416027
:1003600005200007026BA3218A430263026B0A4344
:100370000263002181620448026A01210A43026289
:10038000016370470040005000000E4030B5064841
:10039000046A064D2C400C4314430462416A090A66
:1003A00009021943416230BD00000E40F3FBFFFF1C
:1003B00010B50648AA210170BB214170012181704E
:1003C000C170042103F0ACFC10BD00000C0A002039
:1003D000F8B5002426462546002001F067FE641C7F
:1003E0008619E4B20A2CF7D3FF205527C6303F0305
:1003F00070433946FFF794FE094E0024F067012050
:1004000001F054FE641C4519E4B20A2CF7D30548E8
:1004100039466843FFF784FE0930F065F8BD0000F7
:10042000B0000020510C00000FB4F8B5444C06A8F1
:100430000090E078274625460026C037203D00285A
:1004400016D040A14148FFF727FF002864D0FF21C4
:100450002D313E48FFF714FF6683E6702046A670F4
:100460004030866104203E61F8BC08BC04B01847E7
:10047000A078002841D03648416A3448FFF70CFF85
:10048000002836D002F0D4FB314D3030BF3D28700B
:100490003020687000F076F83030A87001F020FE4F
:1004A0003030E870012000F0EDFF2AA001F094FB4D
:1004B0000098C01C01F090FB0098123001F08CFBFA
:1004C00025A001F089FB284601F086FB681C01F09D
:1004D00083FBA81C01F080FBE81C01F07DFB281DBC
:1004E00001F07AFB1DA001F077FB0120E0703E6176
:1004F00024E0FF21F531386911E015482838406AB9
:1005000001F06AFB16A001F067FB14A001F064FB88
:1005100001203E61A07011E07D213869C900884248
:100520000CD3FF212D3109483E61FFF7A9FE6683F8
:10053000EE712E72E670A670002095E7032093E717
:100540007000002053454E44204F4B003B0B0020D1
:1005500008020020583B00003B0000000D00000096
:100560003839000001463039092901D8C8B270472E
:1005700001464139052902D83738C0B27047FF20FB
:10058000704700000348C06F252801D20120704742
:1005900000207047B000002030B5094A0948D46FE8
:1005A000084B002540300121272C02D3D26DF02AC0
:1005B00003D99A6B002A01D0816030BD856030BDBF
:1005C000B00000200042005070B5144C2169012099
:1005D000C00381420ED16068C00603D56068102157
:1005E000884360606068000703D56068082188431D
:1005F000606070BD4A1E15461F2A07D8204600F0CD
:1006000027F9E9B2204600F0B6F870BD0448C16A87
:100610000129FAD10021C16270BD0000000018401C
:100620004001184010B50446062100F0C0F82849E2
:100630000868020A1202802002430A60142001F0B6
:1006400021FD244B01220021204600F02FFA002832
:100650003DD00122204B1146204600F027FA002809
:1006600035D01E4B01220221204600F01FFA00283F
:100670002DD01B4B01220321204600F017FA002841
:1006800025D0184B01220421204600F00FFA002843
:100690001DD0154B01220521204600F007FA002845
:1006A00015D0124B01220621204600F0FFF9002848
:1006B0000DD00F4B01220721204600F0F7F900284A
:1006C00005D00C4B01220821204600F0EFF910BDA7
:1006D00014E400E00004F00C00EFFE1800EEFE1839
:1006E00000CAFE1800E5FE1800FFFE180001FD1804
:1006F00000FFEC1800FFEB1810B50246803293693A
:100700001B0401D4002010BD43681024A3434360A0
:10071000332050605069400405D4002008605069BF
:10072000C004400D07E0012008605069C004C00803
:10073000886013691843886050698004C017401CA2
:10074000486090690007000F0873D0694873D0694A
:10075000000A8873106AC873106A000A0874506A25
:100760004874506A000A8874906AC874906A000AD3
:100770000875012010BD70B50023044680340125A2
:100780001A462D07066A360401D4002307E02668BE
:10079000360401D4012302E0521CAA42F2D36024A1
:1007A0000C22634318184262491C016270BD10B5E7
:1007B0000B46044600F014F82068F1210840990720
:1007C000C90F490008435907C90F89000843190791
:1007D000C90FC90008432060204600F031F810BD61
:1007E0000168012211430160016840221143016048
:1007F0007047000070B5C16809050C0FC168490455
:100800004D0FC16880698906890E80010143054842
:10081000491C0068FFF784FC6119C91CFFF780FCC4
:1008200070BD000000000020FF30013001221029BF
:1008300001D2006A01E0406A10398A4010407047D6
:1008400001684122914301600168C907FCD17047EA
:10085000F8B53C4C0B46214640310126002502F0FC
:1008600029FA0A6F060A0E12171B1F262A6F4E74EA
:100870006571012722E04E74657102271EE04E74F7
:10088000657103271AE04E746571E570042715E061
:100890004E746571052711E04E74657106270DE0F1
:1008A0004E7428492031CE706571072706E04E74DA
:1008B0006571082702E04E7465710927224A791E86
:1008C00000F09AF8214B0020F900C9181E4A1218AE
:1008D000527B0A54401CC0B20828F7D31B4A40324E
:1008E000082F10D15079CA282AD1257126760020E8
:1008F0001649091840314B78144950310B54401CAB
:10090000C0B20728F4D3092F1AD1207E002817D0AF
:100910000E4B25715033127A9878904200D125768B
:10092000D50000200949AA1AD3180A184032527A71
:100930001A54401CC0B20728F7D3207A30432072E3
:10094000F8BD000030000020DC080020CC070020AB
:1009500070B50446154600F063F8012D05D12168F5
:100960008022114321600421616170BD70B504468D
:100970000D461646FFF758FF00283CD0606810214E
:1009800088436060002E01D0042000E00020783011
:1009900003210843803460606D1C256020680004DA
:1009A000FCD46069400405D4002018606069C0046C
:1009B000400D06E00120186060692169C004C0088C
:1009C00008439860A0690007000F1873E069587326
:1009D000E069000A9873206AD873206A000A1874C4
:1009E000606A5874606A000A9874A06AD874A06A31
:1009F000000A1875012070BD10B50B46114602683B
:100A0000120605D54269520702D5FFF775FE10BDE3
:100A1000DCB20B4601222146FFF7A8FF10BD000003
:100A2000F8B50F460646FFF7DBFE01F071FC1E48E5
:100A30000224012539460068FFF772FB0746611959
:100A4000C91C3846FFF76CFB002911D0072C01D2D6
:100A50006D1CEDB26119C91C3846FFF761FB002916
:100A600006D00F2C02D2641CE4B2E8E70224012570
:100A700061193846C91CFFF753FB29032202401EA7
:100A800011438206920E1143F268C0231A401143AB
:100A9000F1608005000FB0613046FFF7D1FE3046AF
:100AA000FFF7A8FEF8BD000000000020FFB50024FD
:100AB000012781B00D4616463F0705E0641CBC4285
:100AC00002D3002005B0F0BD01230093F2B2E9B2D9
:100AD000049B019800F004F80028EFD00120F1E712
:100AE000FFB581B007460D4616461C4600F066FF6E
:100AF000C0B2022819D06022F3215043C0194162CC
:100B00000021002E14D0A2B20263E200D20C032313
:100B10009B03D21842630522920282630A9B8022C1
:100B2000002B836B0AD0134309E0002005B0F0BD11
:100B300001636205D20C0123DB03EAE7934383637D
:100B4000C1630164416481646D1C05620120EDE7AD
:100B5000F8B53C4D3C4C687932280FD300210A4649
:100B60000020CB001B191A54401CC0B20828FAD32D
:100B7000491CC9B20A29F3D32820207632480A2218
:100B8000017BC07A090201433048E96600F023FF87
:100B9000C0082F49E866884200D9E966294EE07C02
:100BA00040363746B0714037B968142802D2012266
:100BB000114301E049084900B960FA2801D9FA2037
:100BC000B071C1B221480A22503000F004FFC0B217
:100BD0000521FFF7A5FA4000B0711C48217EA970DD
:100BE0000A22283000F0F7FEC0B2A870282801D9E8
:100BF000283800E00020A870F071134820300179F7
:100C00004A09C17812021143827809020A433A66FE
:100C1000C27A817A12021143427A09020A43017AA6
:100C20001202114349082967007C8007800F0128C0
:100C3000287C03D0F72108402874F8BD0821084318
:100C4000FAE7000030000020CC07002090040020CC
:100C5000B80B00001FB50A4C10341ECC03946C4630
:100C60000EC4810F8A0069468A58064951184A689D
:100C7000C306DB0E0120984002434A601FBD0000FE
:100C80003841000000020050F0B507000C465648FD
:100C900085B054490162554E016813D004221143B6
:100CA0000160102000F082F90120C0040290504839
:100CB000042503904F485049201888420DD8002041
:100CC00004901CE0012211430160104600F06EF90F
:100CD0000020022503960290ECE748484849201876
:100CE000884203D801206400049008E04548454943
:100CF00020184942884249D80320A40004900026C5
:100D0000F64300200090019021E029460398FFF768
:100D100007FA3D493D4A4118914217D2364F022207
:100D20007F1C344B014651435B1CCB18BB4209D896
:100D30000B1BA14200D8631AB34203D21E000095D8
:100D4000019203D03249521C8A42EAD96D1C212DEE
:100D5000DBD90498029980030843009901224902D3
:100D60009202891A08430199891E08431E490862A4
:100D7000042000F01BF904990098491C4143039892
:100D8000FFF7CEF90199484305B0F0BD002F0FD011
:100D9000204915480162042000F008F91EA00068EF
:100DA00000901148016A0013014203D00020EBE7D4
:100DB0001A49EEE7080300D50D4E880301D53046E9
:100DC000E2E70804800F6A46105CCA058904C90E70
:100DD000891CD20D4143921CB0085043FFF7A0F983
:100DE0008000D1E70000010000020050001BB700A6
:100DF00000805101FF1E0AFAFFE0F5057F0F05FD97
:100E00007FF0FA02C08782FEFF95E7FFBF77CC0034
:100E1000010200006FD60000010202042EC2000091
:100E200002490A6802430A6070470000000200504D
:100E300008B511A0006800901048016A0013014233
:100E400001D0002008BD080301D50D4800E00D4881
:100E50008A03F7D40A04920F6B469B5CCA05890487
:100E6000D20DC90E921C891C800859435043FFF7CC
:100E700057F9800008BD0000010202040002005082
:100E800000805101001BB700F8B51C4D0446EE6808
:100E9000102006401A48844202D84010844200D2F2
:100EA00004462868042738432860102000F07EF8A4
:100EB0002869072108432861A86900090001A86181
:100EC0002868C00705D061000020FFF7DDFE04465A
:100ED00008E001206100C004FFF7D6FEEE6804467A
:100EE000102006400121022000F00CF8002E02D153
:100EF0002868B84328606008F8BD00000002005070
:100F000080F0FA0270B5104CE56810262268354072
:100F100004231A432260E268D206FCD52269072323
:100F20001A432261A269120912010A43A2612169CE
:100F300099430143216101F0EBF9002D02D12068B2
:100F4000B043206070BD0000000200507FB5154E18
:100F500078CE03966E4638C6840A23061B0E0CD044
:100F600003039B0F104D9B005B19E5B28405E40E53
:100F7000A5401C68AC4314431C60420E520710D0BD
:100F80008200920F92006B469A58074B083BD2188A
:100F900003015B0FC001C00E8340106898430843F3
:100FA00010607FBD384100001802005010B50446A3
:100FB0000749084A05E00B46491E002B01DC0020CA
:100FC00010BDD36820469843F5D1012010BD000024
:100FD000804F12000002005070B50D46411E1446AD
:100FE000032901D3002070BD032809D002281AD09C
:100FF0000A212846FFF794F830312170012070BD96
:1010000064212846FFF78CF83030207008460A210A
:10101000FFF786F8303060700A212846FFF780F825
:101020003031A170EAE764212846FFF779F80846D5
:101030000A21FFF775F8303020700A212846FFF7A3
:101040006FF830316170D9E770B50C460546144928
:10105000FFF766F8303020707D260846F6003146EE
:10106000FFF75EF83030607031462846FFF758F8D9
:1010700008466421FFF754F83030A07064212846F8
:10108000FFF74EF808460A21FFF74AF83030E070C3
:101090000A212846FFF744F83031217170BD000065
:1010A0001027000070B50C467D210546C900FFF7EA
:1010B00037F83030E07108466421FFF731F83030FE
:1010C000207264212846FFF72BF808460A21FFF713
:1010D00027F8303060720A212846FFF721F83031B6
:1010E000A17270BD70B5002201263124302533462F
:1010F0009340034201D08C5400E08D54521CD2B274
:10110000102AF4D370BD000070B5464C464D2068DF
:101110000121C2B2E8699030FFF7ABF820680121E5
:101120000004020EE8699130FFF7A3F8206801215E
:101130000002020EE8699230FFF79BF82068012157
:10114000020EE8699330FFF794F800F053FF218B0B
:10115000E1200001814200D92083A079642801D9CF
:101160006420A071E079782801D97820E071207A94
:10117000082801D9082020722C48E168814200D952
:10118000E060208B2A49FEF7CBFF7D260846F6005B
:101190003146FEF7C5FFEA69014688320120FFF7B4
:1011A0001BFF208B3146FEF7BBFFEA690320893223
:1011B000FFF712FFEA69A17962320320FFF70CFF03
:1011C000EA69E17969320320FFF706FFEA69217ACB
:1011D00070320320FFF700FF1449E068491CFEF756
:1011E0009FFF08463146FEF79BFFEA6981B27E32D7
:1011F0000320FFF7F1FE3146E068FEF791FFEA6950
:1012000003208132FFF7E8FEE18AFF206930814246
:1012100000D9E082EA69E18A77320320FFF7DCFE39
:1012200070BD000018050020B00000203F420F00F4
:101230001027000006492222CA6048600120086188
:10124000BFF36F8F08690028FCD108687047000061
:1012500000C0005006490022CA60486001200861B1
:10126000BFF36F8F08690028FCD1886870470000C1
:1012700000C00050F0B50C4E0546002330681C46F7
:101280000121084330607F27BF02D819FFF7E2FF32
:10129000A100641C1B1D6850E4B2142BF5D3306808
:1012A000400840003060F0BD00C00050F0B50C4D6B
:1012B000002428682346012108432860F926760285
:1012C0004F029819FFF7C6FF411C03D01B1D0446AF
:1012D000BB42F6D328684008400028602046F0BD95
:1012E00000C00050F0B50C4D0024286823460121B1
:1012F000084328601F2636034F029819FFF7AAFFFC
:10130000411C03D01B1D0446BB42F6D3286840088D
:10131000400028602046F0BD00C00050F0B50C4DE4
:101320000024286823460121084328603F26F6024E
:101330004F029819FFF78EFF411C03D01B1D044676
:10134000BB42F6D328684008400028602046F0BD24
:1013500000C00050F0B50C4D002428682346012140
:1013600008432860FD2676024F029819FFF772FFA6
:10137000411C03D01B1D0446BB42F6D3286840081D
:10138000400028602046F0BD00C00050064A2123DE
:10139000D3605060916001201061BFF36F8F1069BE
:1013A0000028FCD17047000000C00050F0B50C4F81
:1013B0000646002438682546012108433860A80005
:1013C00031587F2080022018FFF7E0FF6D1C241D9C
:1013D000EDB2142CF3D33868400840003860F0BDFB
:1013E00000C00050F0B5104E0746306800230121C0
:1013F000084330604D02F92464021819FFF72AFFF0
:10140000401C02D01B1DAB42F7D3AB4203D1204698
:10141000FFF710FF002339461819FFF7B7FF3068B0
:10142000400840003060F0BD00C00050F0B5104EE4
:101430000746306800230121084330604D02FD2437
:1014400064021819FFF706FF401C02D01B1DAB42B7
:10145000F7D3AB4203D12046FFF7ECFE0023394619
:101460001819FFF793FF3068400840003060F0BD66
:1014700000C0005002490020401C8842FCD3704745
:101480007604000000B50346002202E0FFF7F2FFF9
:10149000521C9A42FAD300BD10B5044600F0DEFE9D
:1014A0002046FFF7E7FE024A00211160204610BDEA
:1014B0000001005010B500F0D1FEFFF7F7FE06491D
:1014C000064A00244867904203D900204C67FFF782
:1014D00089FF0348046010BD300000209F86010092
:1014E0000001005010B500F0B9FEFFF717FF024AE7
:1014F0000021116010BD00000001005010B500F087
:10150000ADFEFFF727FF024A0021116010BD000069
:101510000001005010B5044600F0A0FE2046FFF781
:1015200045FF02490020086010BD00000001005086
:1015300010B500F093FE0448406FFFF753FF0349D6
:101540000020086010BD00003000002000010050A5
:1015500010B5044600F082FE2046FFF767FF0249FF
:101560000020086010BD0000000100500120054966
:10157000800308620448806B002801D10349887108
:1015800070470000404000504042005030000020B2
:101590000FB470B504AC2046FEF794FE0546E01C7F
:1015A000FEF790FE2D1820461230FEF78BFE2D1808
:1015B00020466030FEF786FE2D1820466730FEF785
:1015C00081FE2D1820466D1C6E30FEF77BFE064610
:1015D00020467530FEF776FE361820467C30FEF742
:1015E00071FE3018451920468630FEF76BFE401913
:1015F0000F30C5B27D21C9002846FEF791FD08468F
:101600006421FEF78DFD0E4C303020706421284699
:10161000FEF786FD08460A21FEF782FD3030607035
:101620000A212846FEF77CFD3031A1700D20E070C4
:1016300000202071204670BC08BC04B01847000090
:101640004401002010B5FF201849013008621848F5
:10165000006A002828D117480168491C0160806889
:101660001549884220DA1549154B487B0022401C59
:10167000C0B248730C2808D30C464A7380342068E3
:10168000401C2060984200D32260886F0D4C401CA3
:101690008867A04208D38A67C86F0124401CC867C6
:1016A000CC72984200D9CA6710BD0000404000507B
:1016B0004042005008050020B80B00003000002018
:1016C0003F420F006C2D000010B58369140E8C4052
:1016D00023438361C3691202120A8A401343C36120
:1016E00010BD0000F8B505200007406B05218008FB
:1016F000800009074863486B032108430521090757
:101700004863486B30218843052109074863486BCB
:1017100030210843052109074863C86B0321890369
:10172000884305210907C863C86B0321890308435F
:1017300005210907C863C86BC02188430521090733
:10174000C863C86BC021084305210907C86300228C
:1017500001218B4800F01EF900220221884800F088
:1017600019F900220421864800F014F90322082107
:10177000834800F00FF9834D0024EC600322102110
:101780007F4800F007F92C61002220217C4800F0FE
:1017900001F9032240217A4800F0FCF8AC610022F4
:1017A0008021774800F0F6F8FF21032201317448C8
:1017B00000F0F0F82C62012100224902704800F08C
:1017C000E9F8012291026E4800F0E4F8AC620121D0
:1017D0000022C9026A4800F0DDF801210322090352
:1017E000674800F0D7F801262E630322710364488E
:1017F00000F0D0F86E630022B103614800F0CAF82F
:101800000122D1035E4800F0C5F8EC635C4F002272
:1018100040370121384600F0BDF800220221384649
:1018200000F0B8F803220421384600F0B3F8554D13
:101830004035AC6001220821384600F0ABF8EC607E
:1018400000224021384600F0A5F8002280213846C9
:1018500000F0A0F803227102384600F09BF86C6299
:1018600000223103384600F095F8474A0C213846EB
:10187000FFF72AFF43493A2080390860786931032D
:1018800008437861042000F0FDFB0022B1033846D4
:1018900000F080F80322F103384600F07BF8EC6397
:1018A000374F032280370121384600F073F8354D59
:1018B00080352E6003220221384600F06BF86E60FE
:1018C00000220421384600F065F80322082138463A
:1018D00000F060F8EE6001224021384600F05AF82E
:1018E000AC6103228021384600F054F8EC610322F9
:1018F0003102384600F04EF82C620322710238465D
:1019000000F048F86C620322B102384600F042F859
:10191000AC620322F102384600F03CF8EC6203228C
:10192000B103384600F036F8AC630322F1033846C1
:1019300000F030F8EC6301222021144800F02AF86E
:1019400013484461114C002240341021204600F01D
:1019500021F800222021204600F01CF80A4A052127
:101960002046FFF7B1FE6069202108436061052031
:1019700000F088FB00223102204600F00BF8F8BD91
:1019800000400050004200500100010000410050A2
:1019900000430050F0B5002301273C469C400C4218
:1019A00008D005685C000326A640B5431646A6404D
:1019B000354305605B1C102BEFD3F0BD016A0904B1
:1019C00001D40020704780300068000401D4012059
:1019D000704702207047F8B50E4604461146551E62
:1019E00000209200171905E08200BB1A403B9A6B59
:1019F000401CDA63A842F7D300200346266003E0C8
:101A00009A00A25810185B1C8B42F9D3FEF788FB92
:101A1000F8BD0000F8B5654C0026E0792546203574
:101A20000090282872D2207A2746E03700280FD16C
:101A3000FF212D315E48FEF723FC6E830098394666
:101A40008000B031085800F0C7F8012020723E61D4
:101A5000E079584903286AD0800009585448FEF7B5
:101A60001BFC002807D00120FFF70CFD2672E0794F
:101A7000072810D034E07D203969C000814278D336
:101A8000FF212D314A483E61FEF7FAFB6E830A20A2
:101A9000FFF7F8FC7AE048A14548FEF7FDFB002877
:101AA0001ED0434A0021143A837A5354491C401CE7
:101AB000C9B21429F8D3FFF721FD3C4F6037F86411
:101AC0003F48FFF7E9FCF86C002820D03849142281
:101AD00014393B48FEF7FEFB002826D00120E073B6
:101AE000FF212D313248FEF7CBFB6E830A20FFF732
:101AF000C9FCE079401CC0B2E07109284AD32B48E8
:101B00002672603086610120207130E046E00120BD
:101B1000F864FFF71DFD2649142214392848FEF702
:101B200096FB2748FFF7F6FCDAE7E673D8E7C968C3
:101B30001F48FEF7B1FB002805D122A11C48FEF783
:101B4000ABFB002816D00120FFF79CFCFF2126727A
:101B50002D311748FEF794FB6E83E079401CC0B22C
:101B6000E071092818D31148603086613E61022077
:101B7000F8BD0FE07D203969C00081420AD3FF2102
:101B80002D310B483E61FEF77BFB6E83E6712672BA
:101B90000020EDE70120EBE73E61FBE7FF212D315F
:101BA0000348FEF76DFB6E83E671F1E750000020FD
:101BB0003B0B00200802002041542B4343494400C2
:101BC000680C00202B435245473A20302C320D0A36
:101BD0000D0A4F4B0D0A000010B5044602E0641CCC
:101BE00001F030F820780028F9D110BDF8B532485E
:101BF000324C009032486178074625460026D83F8F
:101C0000203D002913D0816A2E48FEF745FB0028AD
:101C10003DD0FF212D312B48FEF732FB66836670E5
:101C2000204626704030866104203E61F8BD217850
:101C3000002916D0416A2348FEF72EFB00280CD05D
:101C40000120FFF71FFC0098FFF7C6FF1EA0FFF75B
:101C5000C3FF012060703E612BE0FF21F531386940
:101C600018E017482838406AFFF7B6FF14483021BB
:101C7000C438017034214170382181700D21C17048
:101C80000671FFF7A9FF01203E61207011E07D2160
:101C90003869C90088420CD3FF212D3109483E61C3
:101CA000FEF7EEFA6683EE712E72667026700020E3
:101CB000F8BD0320F8BD0000DF0500207000002003
:101CC000080200203B0B00200D0000000FB4F0B50F
:101CD000494CA5B0E07E2646002720362AAD0028D4
:101CE00018D046A14748FEF7D7FA00286ED0FF214A
:101CF0002D314448FEF7C4FA7783E7762046A7766D
:101D00006030876180300761042025B0F0BC08BCDA
:101D100004B01847A07E002842D03B48416A3948A9
:101D2000FEF7BAFA002835D02846FFF755FFE81C21
:101D3000FFF752FF28461230FFF74EFF33A0FFF7A0
:101D40004BFF28466030FFF747FF28466730FFF714
:101D500043FF28466E30FFF73FFF28467530FFF7F8
:101D60003BFF28467C30FFF737FF28468630FFF7D9
:101D700033FF28468E3000F031F92846963000F0C7
:101D80002DF923A0FFF728FF0120E0761E48D83860
:101D900007612FE01C48FF22D838F53201691AE0AC
:101DA00019482838406AFFF717FF93222EA9684682
:101DB000FEF74DFA2AA80FC8FFF7EAFBFFF70CFF62
:101DC0001148D83807610120A07613E00E487D2223
:101DD000D8380169D20091420CD3FF2107612D311F
:101DE0000848FEF74DFA7783E7712772E776A77602
:101DF00000208AE7032088E75000002024474E5245
:101E00004D4300003B0B0020080200203B00000077
:101E10000D0000000FB4F8B506A8334C009033480D
:101E2000E17F2546074600262035D83F002916D0F9
:101E3000816A2F48FEF730FA002840D0FF212D316B
:101E40002B48FEF71DFA6E83E6772046A6776030B2
:101E5000866104203E61F8BC08BC04B01847A17F2D
:101E6000002916D0416A2248FEF716FA00280CD045
:101E70000120FFF707FB0098FFF7AEFE1DA0FFF75C
:101E8000ABFE0120E0773E612BE0FF21F5313869A0
:101E900018E016482838406AFFF79EFE13483021A4
:101EA000C438017033214170382181700D21C17017
:101EB0000671FFF791FE01203E61A07711E07D21C0
:101EC0003869C90088420CD3FF212D3108483E6192
:101ED000FEF7D6F96E83E6712672E677A6770020C4
:101EE000B9E70320B7E700005000002008020020F7
:101EF0003B0B00200D0000000FB4F8B506A8334CD2
:101F000000903348617F2546074600262035D83F9C
:101F1000002916D0816A2F48FEF7BEF9002840D06C
:101F2000FF212D312B48FEF7ABF96E8366772046F3
:101F300026776030866104203E61F8BC08BC04B09E
:101F40001847217F002916D0416A2248FEF7A4F9DC
:101F500000280CD00120FFF795FA0098FFF73CFE0F
:101F60001DA0FFF739FE012060773E612BE0FF21C5
:101F7000F531386918E016482838406AFFF72CFE1A
:101F800013483021C43801703321417032218170EF
:101F90000D21C1700671FFF71FFE01203E61207701
:101FA00011E07D213869C90088420CD3FF212D3111
:101FB00008483E61FEF764F96E83E6712672667723
:101FC00026770020B9E70320B7E700005000002083
:101FD000080200203B0B00200D00000070B50546F4
:101FE000002428786D1C00F02DFE641CE4B2072C40
:101FF000F7D370BD70B5214E0025307A3446C10745
:102000008034E069803000291FD01D490988616251
:10201000062919D3891E8A08A2620276B17E491C5C
:10202000CBB2B37693420CD8E46A99000919C91E61
:10203000F41DF934A1604C7844768C788476C978A4
:10204000C176934200D1B57670BD0D49B576303971
:102050000A79CB785209120213438A781B021A4379
:10206000226602D00122027600E005768A78427666
:10207000CA7882760979C17670BD000030000020F0
:102080001C080020C106C90E0120884001490860D3
:102090007047000000E100E0C106C90E0120884041
:1020A000014908607047000000E100E070B50126BA
:1020B00033460A4C05468340002211462046FEF76F
:1020C00065F9206AF10208432062206BC007FCD04A
:1020D000A80000190068266380B270BD00000E40A1
:1020E0000248C07B012800D000207047500000202B
:1020F000F0B52749274B087A274EDC6EC00738D049
:1021000026480088586206282CD3801E80080A467C
:102110009862517E8446491CC9B2517681421CD8CE
:10212000D86A8A001018C01E7060C5781B4F6D09F0
:102130002D028C37BD5087783D43184F2D028C37C8
:10214000BD5047783D43154F8C37BD50C0783A4657
:10215000C006C00E2832505435600D4A614501D189
:1021600000205076306800280DD001208003044301
:102170000CE0186E002230604A76002802D0012060
:102180009862F2E79A62012080038443DC66F0BD26
:1021900030000020B0000020300100201C0800208A
:1021A00010B50420FEF73CFE1020FEF7FFFE0021D4
:1021B0000846FEF7A7FE0120FEF732FE0120FEF7DB
:1021C000F5FE1B48FEF760FE2B2464060022032167
:1021D0002046FEF7BBFE2046FEF73CFD154C204690
:1021E000FEF738FD002211462046FEF7AFFE641CC4
:1021F0002046FEF72FFD002211462046FEF7A6FEE0
:10220000641C2046FEF726FD002211462046FEF7FC
:102210009DFE0948FEF71EFD084C2046FEF71AFDFC
:10222000032252040C212046FEF790FE10BD000050
:10223000006CDC02103D8057180000401CFE235645
:102240000521020E090751188B68012282401343B1
:102250008B608868904388607047000010B55921F2
:1022600016230548882202E00160036002600468CA
:10227000012CF9D110BD00000001005010B5094932
:102280005A220A70A5224A7004228A708022CA70DB
:1022900003220A71020A4A7188710721014801F07C
:1022A0003FFD10BD0C0A002010B50A4A5A231370D6
:1022B000A5235370052393708223D370030A1371EF
:1022C0005071080A9071D1710821104601F028FD63
:1022D00010BD00000C0A002010B50C4A5A231370E0
:1022E000A5235370072393708223D370030A1371BD
:1022F0005071080E9071080CD071080A107251725A
:102300000A21104601F00CFD10BD00000C0A00204F
:1023100038B51DA000681D4C0090216A20130142B1
:1023200001D0002016E0080301D5194800E0194843
:102330008A030FD40A04920F6B469B5CCA0589047A
:10234000D20DC90E921C891C800859435043FDF7D9
:10235000E7FE8000104DA86021694907490F022956
:1023600003D0880029460C310858A1690907090FD4
:10237000491CFDF7D5FE094928604A108018FDF771
:10238000CFFE686038BD0000010202040002005068
:1023900000805101001BB7000000002040420F00E8
:1023A0007047000010B50D4C2046FEF753FC00228C
:1023B00011462046FEF7CAFDA106094C64222046BC
:1023C00000F088F820686103084320600820FFF7C8
:1023D00059FE2068A1030843206010BD0200805E02
:1023E0000000014010B50D4C2046FEF733FC0022E2
:1023F00011462046FEF7AAFD6106094C0A22204636
:1024000000F068F820686103084320600A20FFF7A5
:1024100039FE2068A1030843206010BD0400005F5E
:102420000000114010B50E4C2046FEF713FC0022B0
:1024300011462046FEF78AFD0A4C01210A22C906F0
:10244000204600F047F820682106084320600B2052
:10245000FFF718FE206861060843206010BD0000E9
:102460000500405F2000114010B588B004462022CE
:1024700013496846FDF7EBFE124913488C4203D11D
:1024800040694005400F10E00E4920318C4203D1D5
:1024900040694004400F08E00C4940698C4202D179
:1024A0004003400F01E04002400F022804D08000AA
:1024B0006946085808B010BD05480068FAE70000F2
:1024C000684100000000014000020050000011407F
:1024D00000000020F7B506461746FFF7C5FF044683
:1024E00000254008B84201D2022014E00F498C4276
:1024F00002D90725E4080AE00D498C4202D90325D8
:10250000A40804E00B498C4201D901250446394650
:102510002046FDF705FE01992943316070606D1C6E
:10252000684301462046FDF7FBFDFEBD0090D00349
:102530000048E8010024F40070B5254801258560B5
:1025400024494878002837D00C4680346069224EF0
:10255000401C7D2212016061B04206D36661487959
:10256000322802D31D48206100E02261E068401C4F
:10257000E0602169FDF7D4FD16484030002900D104
:102580000575174900230A69521C0A61417D154AE5
:10259000022904D2A169B1420FD2491CA161018B69
:1025A000642910D0002902D089B2491E0183C18A52
:1025B000002901D0491EC18270BD9562FF21913171
:1025C0000183A361F0E793626321A361EEE700005A
:1025D000000001403000002070170000307500003E
:1025E000300100208042005001490120886070477E
:1025F00020000140F8B55C49012088605B4C6425EF
:102600002079401CC0B22071642800D3257101F0EC
:1026100063FB564820384178491CC9B241700F29E4
:1026200001D30F214170017E1422491CC9B20176E9
:10263000142900D30276C17C491CC9B2C1740A298D
:1026400001D30A21C174C17D491CC9B2C175642975
:1026500000D3C57545490423403948791E02401C02
:10266000C5B20846424F80304D71322D0ED332250F
:102670004D71856E1D438566C36EF5003343AB43D4
:10268000C3663B68AD102B436D000CE0856E9D4327
:102690008566C36E0125B3436D032B43C3663B6858
:1026A0006D102B436D10AB433B60836E1E265D07A0
:1026B0000023002D02DAA672E37209E0A57A6D1CF0
:1026C000EDB2A572302D03D9A372E57A6D1CE572C7
:1026D000FF27CD6E2D37BD4210D9456EE1276D1C09
:1026E0003F014566BD4209D34366486F0125401C42
:1026F0004867CD711F4DA84200D94B678879401CAF
:10270000C0B288711E2800D38E71207A401CC0B2DE
:1027100020720B2800D32372607A401CC0B2607212
:10272000292800D36372C878401CC0B2C87014282E
:1027300004D31148CA708370C37003710879401CB8
:10274000C0B20871142805D30A714B76087A400884
:1027500040000872C87E401CC0B2C876322802D33E
:10276000CB76FFF7C5FCF8BD0000114070000020DB
:10277000180500209F860100EC0700200548012273
:1027800082600548017B002903D104490B684B6036
:10279000027370472000114030000020080500201F
:1027A000F8B54E48C1694E49C96941680091C4698C
:1027B0004C4DE00500264C4F002818DA474A906936
:1027C0008004810E00200CE07A6C642A00D17E64C3
:1027D000424A12687B6CEA547A6C521C7A64401C40
:1027E000C0B28842F0D33F4801F096FB7E64E00619
:1027F00018D53A4A90698004810E00200CE07A6C6A
:10280000642A00D17E64354A12687B6CEA547A6C83
:10281000521C7A64401CC0B28842F0D3314801F0A7
:1028200059FB7E64009880071ED5A0051CD52E4953
:10283000203908894D89A84204D10221274800F097
:102840004DF911E00020294B0A899C5C234B1C6048
:102850003346FF2A00D0531C9AB20A81AA4203D001
:10286000401CC0B20828EED31D48C5694068204C02
:10287000E80518D51A4A90698004810E00200CE002
:10288000BA6C642A00D1BE64154A1268BB6CE2546B
:10289000BA6C521CBA64401CC0B28842F0D31448CF
:1028A00001F0B2FABE64E80617D50D4DA8698004A0
:1028B000810E00200BE0BA6C642A00D1BE642A6845
:1028C000BB6CE254BA6C521CBA64401CC0B2884261
:1028D000F1D3074801F032FABE64F8BD00000540AC
:1028E0000040154038020020B0000020270A0020D8
:1028F0009C02002010B51348FFF7A2FC124CE12106
:102900004902204600F018F9A06830210843A06071
:10291000C821204600F054F96068E1140843606063
:102920001121204600F0DEF80221204600F0D6F802
:102930000648002141810181FF212D310448FDF726
:102940009FFC10BD10000004000005409000002016
:102950003B0B0020F8B54048C16941680091C66949
:102960000027F105002915DA01683C4AC9B215466D
:102970004035D37C3A4CAD6E00F09CF90F091F2511
:102980003134373A3D400B46494C4F530B005A29DE
:102990000FD0D774009989070AD5B10508D52F4AF9
:1029A00020329188D588A94243D1022100F096F8BF
:1029B000F8BD0123D3742170ECE7A529E7D10223E8
:1029C000D3746170E6E7062905D00529DFD10A2313
:1029D000D3746172DEE70323D374A170DAE7E17088
:1029E00004211CE02171052119E06171062116E026
:1029F000A171072113E0E171082110E0217217494C
:102A0000D7744031802211E0A1720B2107E0E172FE
:102A10000C2104E021730D2101E061730E21D174BA
:102A2000B8E7A1730D49D7744031022215438D6672
:102A3000B0E70C4E00219488335D03603B46FF2CC9
:102A400000D0631C9BB29380AB42B1D0491CC9B289
:102A50000829F0D3F8BD00000000154070000020E8
:102A6000180A00200C09002010B50F48FFF7E8FBFA
:102A70000E4CE1214902204600F05EF8C8212046B4
:102A800000F09EF860680121C902084360600121DE
:102A9000204600F027F80221204600F01FF80448E5
:102AA0000021C180818010BD11000004000015408C
:102AB0009000002010B50748FFF7C2FB064CE1214B
:102AC0004902204600F038F80121204600F00AF8BB
:102AD00010BD0000120000040040154042688A4307
:102AE0004260704710B542680A4342600D4988420F
:102AF00009D00D49884203D10D20FFF7CDFA10BD52
:102B00000A49884201D10C20F7E70949884201D1DE
:102B10000F20F2E70749884201D11020EDE711208C
:102B2000EBE70000000005400000154000401540A4
:102B30000040054000800540F0B51D4B04460D46A1
:102B40000FCB85B06E460FC61A484169806989016E
:102B50008E0F0005070F002020630320E060A068AF
:102B600015490840A060012E02D1FEF761F90190DD
:102B7000002D1BD0B10068464058791CFDF7D0FAF3
:102B80000646690840182946FDF7CAFA0B49801E17
:102B9000884207D9E90070182946FDF7C1FA0009F3
:102BA000801E02E0032109070843606205B0F0BD02
:102BB00008410000000200500FFFF0FFFFFF00007F
:102BC000026A120A12020A43026241680122D20218
:102BD00011434160704718B501780022242916D1AD
:102BE000401C01782A2901D04A40F9E741786C4617
:102BF0002170837863700846FDF7B4FC0401184621
:102C0000FDF7B0FC2018904201D1012018BD002032
:102C100018BD000010B5054C61605100014318015A
:102C2000014380200143216010BD000000400040AE
:102C30000348C06D322801D801207047002070473A
:102C4000B000002070B50C4C0025238961892A460C
:102C5000FF2900D04A1C9A42F9D0084AFF29505453
:102C600000D04D1C064865814168890702D40221C5
:102C7000FFF738FF70BD000090000020270A0020F9
:102C80000000054010B5094A074BD1885854002070
:102C9000FF2900D0481CD08005484168890702D42C
:102CA0000221FFF71FFF10BD0C090020900000203B
:102CB0000000154030B47446641E2578641CAB4295
:102CC00000D21D46635D5B00E31830BC184702E08C
:102CD00008C8121F08C1002AFAD1704770470020A7
:102CE00001E001C1121F002AFBD17047F0B5FF4E71
:102CF0008FB0307D00287ED1FD4D01462A5C044610
:102D00002C2A01D1491CC9B2022903D0601CC0B2CF
:102D10002F28F3D32819407841286DD1002003AA29
:102D20002919C97830391154032801D1641CE4B23F
:102D3000641C401CC0B2E4B20928F1D36A46907BFF
:102D4000EC4908904843D27BEB4909924A438118E9
:102D50006A46107CE94A504309186A46507C7D2235
:102D6000D200504309186A46907C642250430918E7
:102D70006A46D07C0A22504308186A46117D4018E2
:102D80003C21FDF7E3F96A46117BDA4A0B465343CF
:102D90006A46527BD84F94467A439A188018C217D5
:102DA0000690079208980A225043099AD44B821839
:102DB0000ED00A2041436046081880001F58C018F2
:102DC00040683C21381A5043FDF7AAF9381A05E04B
:102DD0000A204143604608188000185800210890D6
:102DE000099108466A46291989793039115404280D
:102DF00004D1641C01E0A2E15FE1E4B2641C401C68
:102E0000C0B2E4B20A28EED3D078BA494843117967
:102E1000B94A514341186A465079B84A5043091893
:102E20006A4690797D22D200504309186A46D079CB
:102E30006422504309186A46107A0A22504308183F
:102E40006A46517A40183C21FDF780F96A461178AC
:102E5000AC4AA84B51436A465278AB4C5A438B1844
:102E60006A469178A44A2546514359184718FB17DA
:102E70000A93A168E0682160606018350E910D909A
:102E8000A968E868296068600C910B909F4A00234C
:102E900009990898FDF79EF9974A0023FDF76AF90A
:102EA0003A460A9BFDF796F9934A0023FDF762F92B
:102EB000E160A06004460991944A002307990698AE
:102EC000FDF788F98C4A0023FDF754F9E960A86002
:102ED000327C0A92002A7ED08B4AB37D15695269F2
:102EE0000792894A06951832176952690892022B8F
:102EF00055D02B46079D099AE31AAA4104D2069B96
:102F00002A46099D1C1B02E0069B099AE41A774B8E
:102F1000AA41E0339C65DA65089B0A46C41B9A41C6
:102F20001A4606D23B1A71488A41E030036642666F
:102F300005E0C31B6D489141E030036641666B4973
:102F4000E031886DC96D02460B46FDF743F90D4629
:102F50006F490446086E496E02460B46FDF73AF982
:102F600022184D416A485121C56682660020891A9F
:102F7000A84102D20120707502E0707D00281FD0A8
:102F800024210020891AA8411AD30A98032817D3AC
:102F9000002070755C48079A0699816008E00A98DD
:102FA00003280DD30020B07570755748079A8560C7
:102FB000C2605548089918308760C160012030759B
:102FC000514B0D9918339A680E98DB68FDF702F99A
:102FD0004F4F054600E061E0F9640C46B8644A4989
:102FE0000B9B8868C9680C9AFDF7F4F87965386519
:102FF00084460A463846737C016A406A002B0FD02B
:10300000634617465B1BA74130D367467D1B404B89
:10301000A2419D624919DA6250411962586244E046
:1030200063462746EB1A974109D36346EB1A94414E
:10303000374FCA18FC62BB6260413A6225E06746BE
:103040007D1BA241324B04469D62DA624F1B134640
:1030500094412F4A04D3491B98411162506224E0E5
:10306000691A834153620120116215E06346EB1A2D
:10307000274F9441FC622246CC1A0546BB6295411B
:103080003C4604D3C91A9041216278620DE0591A76
:103090008241216200207A62707406E01A4A099B1C
:1030A000146153611832516110610A98401CC0B21A
:1030B0003074032801D3032030740C4C307D154D3F
:1030C0002034002828D0124F03220023796A386A5E
:1030D000FDF780F8FF2291320023FDF74BF879626B
:1030E00038620027377480B2294623E05000002060
:1030F000C803002040420F00A086010010270000F6
:103100005C3F000080969800800C002024B20100F3
:10311000300100205B070020B07D02280FD1F07D38
:1031200064280CD300270748B775076247623774D5
:1031300029463846FDF788FF0120207477760FB0C6
:10314000F0BD000030010020D4B0FF480090FFF730
:1031500085F8FE4800260660FFF722F8FC4D2E6039
:10316000FFF77CF8FEF7BEFAFDF7F4F8FFF7C2FBB5
:10317000FFF77AFCFFF79EFCFFF714F9FFF732F92F
:10318000FFF750F9FDF714F90020FFF777F8FEF785
:10319000A9F9F04C8107206402D50121E16300E028
:1031A000E6634021EB4F8843803F2064387CEF2169
:1031B00008403874E84900220098FDF7C9FB0098E0
:1031C000FDF730FAFFF74AF80023072001221946DD
:1031D0000002FFF71FFDDE480660E04DA8682021D1
:1031E0008843A86019204001FEF74CF9A968202007
:1031F0000143A960A16E01200143A166FEF75AF9BF
:1032000000F04CFDF87BD64A81070029A16E01DA57
:10321000114300E09143A166410704D53A7A0221A7
:103220000A433A7203E0397AFD22114039720007ED
:10323000A06E02D51021084301E010218843A0664A
:10324000A321C848FDF71CF8C24C0322C6A1E069BF
:10325000FCF7FDFFE0690F22C4A1C01CFCF7F7FFDB
:10326000E0690722C5A16030FCF7F1FFE0690722A1
:10327000C4A16730FCF7EBFFE0690722C3A16E3001
:10328000FCF7E5FFE0690722C2A17530FCF7DFFF1C
:10329000E0690A22C1A17C30FCF7D9FFE06908226D
:1032A000C1A18630FCF7D3FFE0690822C0A18E30AF
:1032B000FCF7CDFFE0690822BFA19630FCF7C7FFFD
:1032C000E0690D21A13001704670A6485A21DF3017
:1032D00001713B2444710C22B9A1801DFCF7B7FF9A
:1032E000A0484325DD30009005754D2747750B221A
:1032F000B7A11630FCF7ABFF9A480322B7A1FE3006
:10330000FCF7A5FF97480C22FC30411C0191447149
:1033100086715A21C1710472A9A10930FCF797FF87
:1033200001990B220D754F75A9A1AD48FCF78FFFD0
:10333000AB480322ABA10B30FCF789FFA8485A2108
:103340000A300290047146712230017144710C22DE
:103350009BA1801DFCF77BFFA1480B222A30019026
:10336000057547759AA11630FCF771FF9C4803223A
:103370009DA14B30FCF76BFF99485A214A300471EC
:1033800046713E38017144710C228DA1801DFCF7FD
:103390005EFF02980B220575477591488CA120307D
:1033A0000290FCF754FF8E4803222B308FA103902C
:1033B000FCF74DFF01980C2204714671884880A1EA
:1033C0001230FCF744FF0B2281A10298FCF73FFF6B
:1033D000032287A10398FCF73AFF81485A216930FC
:1033E000C17104720C2276A10930FCF730FF7C48D1
:1033F0000B2269304575877575A11730FCF727FFDB
:10340000774803227BA18B30FCF721FF744803220D
:1034100079A18E30FCF71BFF7148032278A192300E
:10342000FCF715FF6E4877A189300190047346734D
:1034300020380988C1850C2261A13030FCF707FFD4
:1034400071A101980988818365480B22A73060A18A
:103450004E90FCF7FCFE624803226CA1B230FCF7F0
:10346000F6FE5F480322B53069A14F90FCF7EFFEEE
:103470005B484CA1A93009888183FD385521017131
:1034800044710C2267A1801DFCF7E1FE54480B2219
:1034900056380575477516304DA15390FCF7D7FE89
:1034A0004F48032263A13538FCF7D1FE009855A19F
:1034B000047146714A480988AB3081830C2240A1CF
:1034C0001E30FCF7C4FE46484FA1C93009888181EF
:1034D0000E300B223EA15190FCF7B9FE4048042269
:1034E00055A1E230FCF7B3FE3D48052254A1E63079
:1034F000FCF7ADFE3A482BA1E9300988418041A193
:1035000009888180841C0C222DA1801DFCF79FFE60
:103510003DA00088208232480B22FD302CA1529021
:10352000FCF795FE042248A14948FCF790FE484864
:10353000052243A1001DFCF78AFE454819A11F384A
:1035400009880185034D85E00000184000400040D7
:1035500000010050B000002090D003004041005016
:10356000000100003C0500205A3B0000494436366B
:103570003136303832323631363B00004F5030353C
:10358000303B000057543130303B00004656303657
:10359000303B000042563132303B0000524831325D
:1035A000333435363B0000005253313233343B0064
:1035B0005341464646463B005452464646463B002B
:1035C00030303030303030303030303B00000000B0
:1035D000303031363038323230313800424F4400EA
:1035E0004F0600204E424F004E4C490048414C00CF
:1035F000494E51004C494D00303030300000000041
:1036000030303000553B0000525000004558450016
:1036100030303030303030303030303030303030AA
:103620000000000030303030303030303030313B4E
:1036300000000000534F53004D4D4F3B0000000071
:1036400030303030300000004D4D433B0000000072
:1036500057070020403DEE82FF488662FF482C4617
:10366000203C509001272771687C012805D1FC4837
:1036700081683A03514081606E74FEF7EFFDF94AAC
:1036800010682C21884338431060FCF785FFF6480A
:103690000660FDF75DFAF54840780028E2D0288BF7
:1036A00000287ED1687D022803D2FEF7B3F9687541
:1036B0003AE2EE48C07C002804D0A07901285FD00F
:1036C000002853D0E948007D002804D0A0790228C2
:1036D0007DD0002870D0E548407D002804D0A07936
:1036E00003287ED000287DD0E048807D002804D0CB
:1036F000A079042877D0002876D0DC48C07D002847
:1037000004D0A079052870D000286ED0A87B0028AE
:1037100004D0A079062869D0002868D0D348807CDE
:10372000002804D0A079072873D0002871D0E87B46
:10373000002804D0A07909286CD000286AD0287C01
:10374000002807D0607E002804D0A0790A287ED007
:1037500000287CD02079002807D0287D002804D0BC
:10376000A079082874D0002873D0DDE1BF498022F9
:103770008031086C1043086480B24F99FDF7B2FCA9
:10378000A771202268464E99FCF761FD3022B849A6
:1037900008A8FCF75CFD08A80FC8FEF727FA6875B3
:1037A00002E01DE213E007E004287ED1AF48417F2C
:1037B00039434177C674B6E1AC49FF228031086CC9
:1037C00001321043086480B24F99FDF78BFC022050
:1037D000A071202268464E99FCF739FD3022A44999
:1037E00006E026E017E052E043E06EE0B7E082E05A
:1037F00008A8FCF72CFD08A80FC8FEF7F7F96875B4
:10380000042852D199480222417F1143417706751D
:1038100089E1C0E0DDE0954A01218032106C890227
:103820000843052149028843106480B24F99FDF78F
:1038300059FC0320A071202268464E99FCF707FD31
:1038400030228B4908A8FCF702FD08A802E0D6E068
:10385000EDE0EAE00FC8FEF7C9F96875042824D145
:1038600082481022417F1143F3221140417746756F
:1038700059E17E4A01218032106CC90208430321BC
:1038800049028843106480B24F99FDF72BFC042055
:10389000A071202268464E99FCF7D9FC3022744969
:1038A00008A8FCF7D4FC08A800E084E00FC8FEF7E5
:1038B0009DF9687504287ED16C480822417F114328
:1038C000EB221140417786752DE10520A071202261
:1038D00068464E99FCF7BBFC3022654908A8FCF706
:1038E000B6FC08A80FC8FEF781F96875042862D1F4
:1038F0005E48C67517E15D4801218030006C4902C1
:10390000084303218902884358498031086480B202
:103910004F99FDF7E7FB56490A222739887FC97F6F
:10392000303850433038091851480A23C01F0278F4
:1039300059433039511842785943303952184B495C
:1039400080318A638178C2783039594330395118CF
:103950000A2200795143303940184449087706203B
:10396000A071202268464E99FCF771FC3022404934
:1039700008A8FCF76CFC08A80FC8FEF737F96875B3
:10398000042818D139490422487F1043E722104007
:103990004877AE73C7E00720A0711022684653999C
:1039A000FCF755FC2D492022B33104A8FCF74FFC4D
:1039B00004A80FC800E00BE0FEF79EFA6875042823
:1039C00001D0002804D12948A67186742948E882CC
:1039D000AAE00920A071162268465199FCF737FC2D
:1039E00023492622303106A8FCF731FC06A80FC86F
:1039F000FEF710FA687504287ED1EE7393E00A2072
:103A0000A071162268465299FCF721FC1849282219
:103A1000563106A8FCF71BFC06A80FC8FEF7FAF9FA
:103A20006875042868D12E747DE0FDF76DFB0820D1
:103A3000A071FFF7FDF8104B18705E70FCF7A2FD47
:103A40009870FEF74DFBD8701A78012A03D1A7733E
:103A5000A17A491CA17211E0804200504C0500205F
:103A60004040005000400040000100503000002065
:103A7000E6060020AC2600004901002059788C465B
:103A8000012903D1A773617B491C617399780129CE
:103A900003D1A773E37A5B1CE372012803D1A773F8
:103AA000237B5B1C2373002A06D16246002A03D1C4
:103AB000002901D1002820D0A07B00281ED0A07AA8
:103AC000052808D3E17A052905D3217B052902D3EE
:103AD000617B052912D2401CA0729322684650993E
:103AE000FCF7B5FBA422684925A8FCF7B0FB25A884
:103AF0000FC8FCF799FC0FE016E0A6739322684606
:103B00005099FCF7A4FBA4225F4925A8FCF79FFB72
:103B100025A80FC8FEF7DAF86875C0B2042801D0EE
:103B2000002801D12E75A671607A00285AD0574816
:103B3000FCF7C8FB821E56485449C0691230FCF796
:103B400086FB667253480069800421D5207E1428C4
:103B500032D3A07C002819D126754D482674A7744D
:103B6000002180300162416266748038006D4849EE
:103B7000401C086580B24849FDF794FA444846491C
:103B8000006D263180B2FDF78DFAEF73A77516E050
:103B90002676A674A07D012802D0002804D00EE06D
:103BA000207D002804D0A6756776267526740FE060
:103BB0000220A075E67502E0A07D002808D0E07C18
:103BC0000A2802D2A07D022802D1E674FFF78EF8FF
:103BD0002F48C0691230FEF7FEFF002801D0677140
:103BE00000E06671FF209130FDF74CFC284F60200B
:103BF000803F796FFEF770FB2348796F2438C160EE
:103C00006879082801D908206871C1B25020FEF7F0
:103C10004BFBA9795120FEF747FB1B48A9792438B3
:103C20008171B9785220FEF73FFB1749B8782439E3
:103C3000C871282801D22821E971782801D9782073
:103C4000E871E9795520FEF72FFB5420F96EFEF755
:103C50002BFB0D49F86E243908830D48C16D642093
:103C6000FEF722FB0A480849C06D2439C882FCF7D8
:103C7000AFFBB8791E2800D2F4E4F8790028FBD015
:103C8000FDF756FCFE71EDE43C050020C803002062
:103C9000B0000020404000501807002010B5FEF78B
:103CA000DDFAFDF71FFB094A002111600849020CEB
:103CB0000B46803B4865DA73064A904205D9886E08
:103CC0000822104388660520486510BD0001005099
:103CD000B00000200F27000010B50F4C60780028BE
:103CE00019D12046403003210079FCF719FA01224E
:103CF0001E2801D36270402008495A230B70A52367
:103D00004B7003238B708023CB700A71487106219E
:103D1000024800F005F810BD300000200C0A002019
:103D200070B505460E46002405E028786D1CFEF7A8
:103D3000A9FF641CE4B2B442F7D370BDF3B52C4CB8
:103D400000252646203681B02A4F40342DE0E08BF6
:103D5000C72801D30020E0830198E18B405D7854AF
:103D6000E08B385C242804D0E08B385C0A280CD027
:103D700016E0002001463954401CC0B2C828FAD3CE
:103D8000E183E18B242078540AE03878242810D08D
:103D9000002001463954401CC0B2C828FAD3E18340
:103DA000E08B401CE0836D1CEDB202988542CED3BF
:103DB000FEBD11A10F48FCF76FFA00280BD0707AF6
:103DC0000028EDD10B494C220846C830FCF73FFAD9
:103DD00001207072E4E70AA10648FCF75DFA0028AA
:103DE000DED100213954401CC0B2C828FAD3D6E72E
:103DF000300000200003002024474E4747410000C8
:103E000024474E524D430000F3B52C4C0025264666
:103E1000203681B02A4F40342DE0E08BC72801D3F3
:103E20000020E0830198E18B405D7854E08B385CA2
:103E3000242804D0E08B385C0A280CD016E000203F
:103E400001463954401CC0B2C828FAD3E183E18B43
:103E5000242078540AE03878242810D00020014625
:103E60003954401CC0B2C828FAD3E183E08B401C0F
:103E7000E0836D1CEDB202988542CED3FEBD11A148
:103E80000F48FCF709FA00280BD0707A0028EDD112
:103E90000B4944220846C830FCF7D9F9012070725A
:103EA000E4E70AA10648FCF7F7F90028DED1002173
:103EB0003954401CC0B2C828FAD3D6E730000020DD
:103EC0000003002024474E524D4300002447505623
:103ED0005447000070B50E4C0546608B0E46FF211E
:103EE0002D31884205D30B48FCF7CAF900206083C6
:103EF000A0830022074907E0A85C638BC854608B4D
:103F0000401C6083521CD2B2B242F5D370BD000097
:103F1000700000203B0B002070B50E4C0546608BF6
:103F20000E46FF212D31884205D30B48FCF7A8F936
:103F300000206083A0830022074907E0A85C638B10
:103F4000C854608B401C6083521CD2B2B242F5D37D
:103F500070BD0000700000203B0B0020A086010017
:103F6000908601006386010017860100AC85010080
:103F7000238501007C840100B6830100D282010008
:103F8000D0810100B0800100727F0100167E010027
:103F90009D7C0100057B0100507901007E770100C6
:103FA0008E7501008173010057710100116F0100CE
:103FB000AE6C01002E6A010092670100DA64010014
:103FC00006620100175F01000C5C0100E658010069
:103FD000A65501004A520100D44E0100444B010095
:103FE0009B470100D7430100FB3F0100053C010056
:103FF000F7370100D1330100922F01003C2B010063
:10400000CF2601004A220100AF1D0100FE18010069
:1040100036140100590F0100670A01006105010013
:104020004500010016FB0000D4F500007EF0000002
:1040300015EB00009AE500000DE000006FDA0000CB
:10404000BFD40000FFCE00002FC9000050C3000005
:1040500061BD000063B7000057B100003DAB000038
:1040600015A50000E19E0000A1980000FC8B000057
:104070009A8500002C7F0000B578000035720000A2
:10408000AB6B000019650000805E0000DF57000088
:1040900037510000884A0000D44300001B3D000057
:1040A0005D3600009A2F0000D42800000B2200008B
:1040B0003F1B000071140000A10D0000D10600009C
:1040C0000000000000000000303132333435363754
:1040D00038394142434445464748494A4B4C4D4E86
:1040E0004F505152535455565758595A6162636450
:1040F00065666768696A6B6C6D6E6F7071727374F8
:1041000075767778797A0000001BB7000000000010
:104110000000000000805101001BB70000000000FB
:104120000000000000805101001BB70000000000EB
:1041300000000000008051010000000004000000A9
:104140000C0000002400000000000000040000003B
:104150002C0000000000000000000000040000002F
:104160002C00000000000000001BB7000000000051
:104170000000000000000000000000001027000008
:1041800000000000008051012B435245473A203087
:104190002C310D0A0D0A4F4B0D0A0061740D0D0AEA
:1041A0004F4B0D0A0041542B435354543D22434D71
:1041B0004E4554220D0061742B6369706D75783D16
:1041C000310D0041542B43495053544152543D301A
:1041D0002C22544350222C223137312E382E3232A9
:1041E000352E323436222C383030330D0061742BAA
:1041F000637265673F0D0041542B434349440D00F2
:1042000041542B43494943520D0041542B434946E5
:1042100053520D0041542B434950534855540D00FF
:1042200061740D0041542B43495053454E443D3079
:104230002C003E0053454E44204F4B00434F4E4E02
:10424000454354204F4B000068420000000000200E
:1042500034020000CE2C00009C44000034020020F8
:104260007C0E0000DE2C000080F0FA02320000001C
:1042700080F0FA02001BB7000000000080F0FA0294
:1042800010270000000000000000000000000000F7
:1042900000805101000000000000000000321E00FC
:1042A0000005000000000000000000000000000009
:1042B00000000032000000000000000000000000CC
:1042C00000000000000001000000000000000000ED
:1042D00000000000000000000000000000000000DE
:1042E00000000000000000000000000000000000CE
:1042F00000000000000000000000000000000000BE
:1043000000000000000000000000000000000000AD
:10431000000000000000000000000000000000009D
:10432000000000000000000000000000000000008D
:10433000000000003C050020443322110000000072
:10434000000000002308002000000000F110910987
:10435000000000000000000000000000000000005D
:10436000000000000000000000000000000000004D
:10437000000000000000000000000000000000003D
:10438000000000000000000000000000000000002D
:10439000000000000000000000000000000000001D
:1043A000000000000000000000000000000000000D
:1043B00000000000000000000000000000000000FD
:1043C00000000000000000000000000000000000ED
:1043D00000000000000000000000000000000000DD
:1043E00000000000000000000000000000000000CD
:1043F00000000000000000000000000000000000BD
:10440000000000000000000080000000000000002C
:10441000000000000000000000000000000000009C
:10442000000000000000000000000000000000008C
:10443000000000000000000000000000000000007C
:1044400000000000000000002042000014420000B4
:10445000B6410000ED410000A5410000004200000F
:104460000A420000F7410000C3410000244200005E
:104470009B41000044420000A04100008841000030
:104480004442000044420000A241000044420000B7
:0C4490003C4200003242000034420000B8
:04000005000000D522
:00000001FF
